{
  "_format": "hh-sol-artifact-1",
  "contractName": "PiggyBank",
  "sourceName": "contracts/PiggyBank.sol",
  "abi": [
    {
      "inputs": [
        {
          "internalType": "uint256",
          "name": "_targetAmount",
          "type": "uint256"
        },
        {
          "internalType": "uint256",
          "name": "_withdrawalDate",
          "type": "uint256"
        },
        {
          "internalType": "address",
          "name": "_manager",
          "type": "address"
        }
      ],
      "stateMutability": "nonpayable",
      "type": "constructor"
    },
    {
      "anonymous": false,
      "inputs": [
        {
          "indexed": true,
          "internalType": "address",
          "name": "Contributor",
          "type": "address"
        },
        {
          "indexed": false,
          "internalType": "uint256",
          "name": "amount",
          "type": "uint256"
        },
        {
          "indexed": false,
          "internalType": "uint256",
          "name": "time",
          "type": "uint256"
        }
      ],
      "name": "Contributed",
      "type": "event"
    },
    {
      "anonymous": false,
      "inputs": [
        {
          "indexed": false,
          "internalType": "uint256",
          "name": "amount",
          "type": "uint256"
        },
        {
          "indexed": false,
          "internalType": "uint256",
          "name": "time",
          "type": "uint256"
        }
      ],
      "name": "Withdrawn",
      "type": "event"
    },
    {
      "inputs": [
        {
          "internalType": "address",
          "name": "",
          "type": "address"
        }
      ],
      "name": "contributions",
      "outputs": [
        {
          "internalType": "uint256",
          "name": "",
          "type": "uint256"
        }
      ],
      "stateMutability": "view",
      "type": "function"
    },
    {
      "inputs": [],
      "name": "contributorsCount",
      "outputs": [
        {
          "internalType": "uint8",
          "name": "",
          "type": "uint8"
        }
      ],
      "stateMutability": "view",
      "type": "function"
    },
    {
      "inputs": [],
      "name": "manager",
      "outputs": [
        {
          "internalType": "address",
          "name": "",
          "type": "address"
        }
      ],
      "stateMutability": "view",
      "type": "function"
    },
    {
      "inputs": [],
      "name": "save",
      "outputs": [],
      "stateMutability": "payable",
      "type": "function"
    },
    {
      "inputs": [],
      "name": "targetAmount",
      "outputs": [
        {
          "internalType": "uint256",
          "name": "",
          "type": "uint256"
        }
      ],
      "stateMutability": "view",
      "type": "function"
    },
    {
      "inputs": [],
      "name": "withdrawal",
      "outputs": [],
      "stateMutability": "payable",
      "type": "function"
    },
    {
      "inputs": [],
      "name": "withdrawalDate",
      "outputs": [
        {
          "internalType": "uint256",
          "name": "",
          "type": "uint256"
        }
      ],
      "stateMutability": "view",
      "type": "function"
    }
  ],
  "bytecode": "0x60a060405234801561001057600080fd5b50604051610d1e380380610d1e83398181016040528101906100329190610165565b428211610074576040517f08c379a000000000000000000000000000000000000000000000000000000000815260040161006b90610215565b60405180910390fd5b82600081905550816080818152505080600260016101000a81548173ffffffffffffffffffffffffffffffffffffffff021916908373ffffffffffffffffffffffffffffffffffffffff160217905550505050610235565b600080fd5b6000819050919050565b6100e4816100d1565b81146100ef57600080fd5b50565b600081519050610101816100db565b92915050565b600073ffffffffffffffffffffffffffffffffffffffff82169050919050565b600061013282610107565b9050919050565b61014281610127565b811461014d57600080fd5b50565b60008151905061015f81610139565b92915050565b60008060006060848603121561017e5761017d6100cc565b5b600061018c868287016100f2565b935050602061019d868287016100f2565b92505060406101ae86828701610150565b9150509250925092565b600082825260208201905092915050565b7f5749544844524157414c204d55535420424520494e2046555455524500000000600082015250565b60006101ff601c836101b8565b915061020a826101c9565b602082019050919050565b6000602082019050818103600083015261022e816101f2565b9050919050565b608051610ac061025e600039600081816101e30152818161040101526104bb0152610ac06000f3fe6080604052600436106100705760003560e01c80637569b3d71161004e5780637569b3d7146100e75780638261051f14610112578063953b8fb81461013d578063d4e932921461016857610070565b806342dad49e1461007557806342e94c901461007f578063481c6a75146100bc575b600080fd5b61007d610172565b005b34801561008b57600080fd5b506100a660048036038101906100a1919061066e565b6103ae565b6040516100b391906106b4565b60405180910390f35b3480156100c857600080fd5b506100d16103c6565b6040516100de91906106de565b60405180910390f35b3480156100f357600080fd5b506100fc6103ec565b6040516101099190610715565b60405180910390f35b34801561011e57600080fd5b506101276103ff565b60405161013491906106b4565b60405180910390f35b34801561014957600080fd5b50610152610423565b60405161015f91906106b4565b60405180910390f35b610170610429565b005b600073ffffffffffffffffffffffffffffffffffffffff163373ffffffffffffffffffffffffffffffffffffffff16036101e1576040517f08c379a00000000000000000000000000000000000000000000000000000000081526004016101d89061078d565b60405180910390fd5b7f0000000000000000000000000000000000000000000000000000000000000000421115610244576040517f08c379a000000000000000000000000000000000000000000000000000000000815260040161023b906107f9565b60405180910390fd5b60003411610287576040517f08c379a000000000000000000000000000000000000000000000000000000000815260040161027e90610865565b60405180910390fd5b6000600160003373ffffffffffffffffffffffffffffffffffffffff1673ffffffffffffffffffffffffffffffffffffffff1681526020019081526020016000205403610306576001600260008282829054906101000a900460ff166102ed91906108b4565b92506101000a81548160ff021916908360ff1602179055505b34600160003373ffffffffffffffffffffffffffffffffffffffff1673ffffffffffffffffffffffffffffffffffffffff168152602001908152602001600020600082825461035591906108e9565b925050819055503373ffffffffffffffffffffffffffffffffffffffff167ffa35a310d7113dddce1c275da946348e9aaebf9050b00b372033c4d84b0bd6eb34426040516103a492919061091d565b60405180910390a2565b60016020528060005260406000206000915090505481565b600260019054906101000a900473ffffffffffffffffffffffffffffffffffffffff1681565b600260009054906101000a900460ff1681565b7f000000000000000000000000000000000000000000000000000000000000000081565b60005481565b600260019054906101000a900473ffffffffffffffffffffffffffffffffffffffff1673ffffffffffffffffffffffffffffffffffffffff163373ffffffffffffffffffffffffffffffffffffffff16146104b9576040517f08c379a00000000000000000000000000000000000000000000000000000000081526004016104b090610992565b60405180910390fd5b7f000000000000000000000000000000000000000000000000000000000000000042101561051c576040517f08c379a0000000000000000000000000000000000000000000000000000000008152600401610513906109fe565b60405180910390fd5b600054471015610561576040517f08c379a000000000000000000000000000000000000000000000000000000000815260040161055890610a6a565b60405180910390fd5b6000479050600260019054906101000a900473ffffffffffffffffffffffffffffffffffffffff1673ffffffffffffffffffffffffffffffffffffffff166108fc829081150290604051600060405180830381858888f193505050501580156105ce573d6000803e3d6000fd5b507f0c875c8d391179c5cf7ad8303d268efd50b8beb78b671f85cd54bfb91eb8ef40814260405161060092919061091d565b60405180910390a150565b600080fd5b600073ffffffffffffffffffffffffffffffffffffffff82169050919050565b600061063b82610610565b9050919050565b61064b81610630565b811461065657600080fd5b50565b60008135905061066881610642565b92915050565b6000602082840312156106845761068361060b565b5b600061069284828501610659565b91505092915050565b6000819050919050565b6106ae8161069b565b82525050565b60006020820190506106c960008301846106a5565b92915050565b6106d881610630565b82525050565b60006020820190506106f360008301846106cf565b92915050565b600060ff82169050919050565b61070f816106f9565b82525050565b600060208201905061072a6000830184610706565b92915050565b600082825260208201905092915050565b7f554e415554484f52495a45442041444452455353000000000000000000000000600082015250565b6000610777601483610730565b915061078282610741565b602082019050919050565b600060208201905081810360008301526107a68161076a565b9050919050565b7f594f552043414e204e4f204c4f4e474552205341564500000000000000000000600082015250565b60006107e3601683610730565b91506107ee826107ad565b602082019050919050565b60006020820190508181036000830152610812816107d6565b9050919050565b7f594f55204152452042524f4b4500000000000000000000000000000000000000600082015250565b600061084f600d83610730565b915061085a82610819565b602082019050919050565b6000602082019050818103600083015261087e81610842565b9050919050565b7f4e487b7100000000000000000000000000000000000000000000000000000000600052601160045260246000fd5b60006108bf826106f9565b91506108ca836106f9565b9250828201905060ff8111156108e3576108e2610885565b5b92915050565b60006108f48261069b565b91506108ff8361069b565b925082820190508082111561091757610916610885565b5b92915050565b600060408201905061093260008301856106a5565b61093f60208301846106a5565b9392505050565b7f594f552057414e20544849454620414249203f00000000000000000000000000600082015250565b600061097c601383610730565b915061098782610946565b602082019050919050565b600060208201905081810360008301526109ab8161096f565b9050919050565b7f4e4f54205945542054494d450000000000000000000000000000000000000000600082015250565b60006109e8600c83610730565b91506109f3826109b2565b602082019050919050565b60006020820190508181036000830152610a17816109db565b9050919050565b7f54415247455420414d4f554e54204e4f54205245414348454400000000000000600082015250565b6000610a54601983610730565b9150610a5f82610a1e565b602082019050919050565b60006020820190508181036000830152610a8381610a47565b905091905056fea2646970667358221220e1b5f39e7912efcff5e6f6acee26b841481a7a5d4dc71b4fecdfb04d3126e50864736f6c634300081c0033",
  "linkReferences": {},
  "deployedLinkReferences": {}
}