{
  "_format": "hh-sol-artifact-1",
  "contractName": "EventContract",
  "sourceName": "contracts/EventContract.sol",
  "abi": [
    {
      "inputs": [
        {
          "internalType": "address",
          "name": "_ticketFactory",
          "type": "address"
        }
      ],
      "stateMutability": "nonpayable",
      "type": "constructor"
    },
    {
      "anonymous": false,
      "inputs": [
        {
          "indexed": true,
          "internalType": "uint256",
          "name": "eventId",
          "type": "uint256"
        },
        {
          "indexed": true,
          "internalType": "address",
          "name": "organizer",
          "type": "address"
        }
      ],
      "name": "EventCreated",
      "type": "event"
    },
    {
      "anonymous": false,
      "inputs": [
        {
          "indexed": true,
          "internalType": "address",
          "name": "user",
          "type": "address"
        },
        {
          "indexed": true,
          "internalType": "uint256",
          "name": "eventId",
          "type": "uint256"
        }
      ],
      "name": "GuestCheckedIn",
      "type": "event"
    },
    {
      "anonymous": false,
      "inputs": [
        {
          "indexed": true,
          "internalType": "address",
          "name": "user",
          "type": "address"
        },
        {
          "indexed": true,
          "internalType": "uint256",
          "name": "eventId",
          "type": "uint256"
        },
        {
          "indexed": false,
          "internalType": "uint256",
          "name": "ticketId",
          "type": "uint256"
        }
      ],
      "name": "TicketMinted",
      "type": "event"
    },
    {
      "inputs": [
        {
          "internalType": "uint256",
          "name": "_eventId",
          "type": "uint256"
        }
      ],
      "name": "checkIn",
      "outputs": [],
      "stateMutability": "nonpayable",
      "type": "function"
    },
    {
      "inputs": [
        {
          "internalType": "string",
          "name": "_title",
          "type": "string"
        },
        {
          "internalType": "string",
          "name": "_desc",
          "type": "string"
        },
        {
          "internalType": "uint256",
          "name": "_startDate",
          "type": "uint256"
        },
        {
          "internalType": "uint256",
          "name": "_endDate",
          "type": "uint256"
        },
        {
          "internalType": "enum EventContract.EventType",
          "name": "_eventType",
          "type": "uint8"
        },
        {
          "internalType": "uint32",
          "name": "_egc",
          "type": "uint32"
        },
        {
          "internalType": "string",
          "name": "_ticketName",
          "type": "string"
        },
        {
          "internalType": "string",
          "name": "_ticketSymbol",
          "type": "string"
        }
      ],
      "name": "createEvent",
      "outputs": [],
      "stateMutability": "nonpayable",
      "type": "function"
    },
    {
      "inputs": [],
      "name": "eventCount",
      "outputs": [
        {
          "internalType": "uint256",
          "name": "",
          "type": "uint256"
        }
      ],
      "stateMutability": "view",
      "type": "function"
    },
    {
      "inputs": [
        {
          "internalType": "uint256",
          "name": "",
          "type": "uint256"
        }
      ],
      "name": "events",
      "outputs": [
        {
          "internalType": "string",
          "name": "title",
          "type": "string"
        },
        {
          "internalType": "string",
          "name": "description",
          "type": "string"
        },
        {
          "internalType": "uint256",
          "name": "startDate",
          "type": "uint256"
        },
        {
          "internalType": "uint256",
          "name": "endDate",
          "type": "uint256"
        },
        {
          "internalType": "enum EventContract.EventType",
          "name": "eventType",
          "type": "uint8"
        },
        {
          "internalType": "uint32",
          "name": "expectedGuestCount",
          "type": "uint32"
        },
        {
          "internalType": "uint32",
          "name": "registeredGuestCount",
          "type": "uint32"
        },
        {
          "internalType": "uint32",
          "name": "attendedGuestCount",
          "type": "uint32"
        },
        {
          "internalType": "address",
          "name": "organizer",
          "type": "address"
        },
        {
          "internalType": "address",
          "name": "ticketAddress",
          "type": "address"
        }
      ],
      "stateMutability": "view",
      "type": "function"
    },
    {
      "inputs": [
        {
          "internalType": "address",
          "name": "",
          "type": "address"
        },
        {
          "internalType": "uint256",
          "name": "",
          "type": "uint256"
        }
      ],
      "name": "hasCheckedIn",
      "outputs": [
        {
          "internalType": "bool",
          "name": "",
          "type": "bool"
        }
      ],
      "stateMutability": "view",
      "type": "function"
    },
    {
      "inputs": [
        {
          "internalType": "address",
          "name": "",
          "type": "address"
        },
        {
          "internalType": "uint256",
          "name": "",
          "type": "uint256"
        }
      ],
      "name": "hasRegistered",
      "outputs": [
        {
          "internalType": "bool",
          "name": "",
          "type": "bool"
        }
      ],
      "stateMutability": "view",
      "type": "function"
    },
    {
      "inputs": [
        {
          "internalType": "uint256",
          "name": "_eventId",
          "type": "uint256"
        }
      ],
      "name": "registerForEvent",
      "outputs": [],
      "stateMutability": "nonpayable",
      "type": "function"
    },
    {
      "inputs": [],
      "name": "ticketFactory",
      "outputs": [
        {
          "internalType": "contract TicketFactory",
          "name": "",
          "type": "address"
        }
      ],
      "stateMutability": "view",
      "type": "function"
    }
  ],
  "bytecode": "0x608060405234801561001057600080fd5b50604051611ed2380380611ed2833981810160405281019061003291906100db565b806000806101000a81548173ffffffffffffffffffffffffffffffffffffffff021916908373ffffffffffffffffffffffffffffffffffffffff16021790555050610108565b600080fd5b600073ffffffffffffffffffffffffffffffffffffffff82169050919050565b60006100a88261007d565b9050919050565b6100b88161009d565b81146100c357600080fd5b50565b6000815190506100d5816100af565b92915050565b6000602082840312156100f1576100f0610078565b5b60006100ff848285016100c6565b91505092915050565b611dbb806101176000396000f3fe608060405234801561001057600080fd5b50600436106100885760003560e01c80637115c2441161005b5780637115c2441461011c57806371be2e4a1461014c578063a6ea10511461016a578063e95a644f1461019a57610088565b8063068f46ce1461008d5780630b791430146100ab578063406db843146100e45780634c1362f814610100575b600080fd5b6100956101b6565b6040516100a29190610f25565b60405180910390f35b6100c560048036038101906100c09190610f8a565b6101da565b6040516100db9a9998979695949392919061110d565b60405180910390f35b6100fe60048036038101906100f99190610f8a565b6103bb565b005b61011a6004803603810190610115919061133d565b61076d565b005b6101366004803603810190610131919061148f565b610b20565b60405161014391906114ea565b60405180910390f35b610154610b4f565b6040516101619190611505565b60405180910390f35b610184600480360381019061017f919061148f565b610b55565b60405161019191906114ea565b60405180910390f35b6101b460048036038101906101af9190610f8a565b610b84565b005b60008054906101000a900473ffffffffffffffffffffffffffffffffffffffff1681565b60026020528060005260406000206000915090508060000180546101fd9061154f565b80601f01602080910402602001604051908101604052809291908181526020018280546102299061154f565b80156102765780601f1061024b57610100808354040283529160200191610276565b820191906000526020600020905b81548152906001019060200180831161025957829003601f168201915b50505050509080600101805461028b9061154f565b80601f01602080910402602001604051908101604052809291908181526020018280546102b79061154f565b80156103045780601f106102d957610100808354040283529160200191610304565b820191906000526020600020905b8154815290600101906020018083116102e757829003601f168201915b5050505050908060020154908060030154908060040160009054906101000a900460ff16908060040160019054906101000a900463ffffffff16908060040160059054906101000a900463ffffffff16908060040160099054906101000a900463ffffffff16908060050160009054906101000a900473ffffffffffffffffffffffffffffffffffffffff16908060060160009054906101000a900473ffffffffffffffffffffffffffffffffffffffff1690508a565b60015481111580156103ce575060008114155b61040d576040517f08c379a0000000000000000000000000000000000000000000000000000000008152600401610404906115cc565b60405180910390fd5b600360003373ffffffffffffffffffffffffffffffffffffffff1673ffffffffffffffffffffffffffffffffffffffff168152602001908152602001600020600082815260200190815260200160002060009054906101000a900460ff16156104ab576040517f08c379a00000000000000000000000000000000000000000000000000000000081526004016104a290611638565b60405180910390fd5b60006002600083815260200190815260200160002090508060040160019054906101000a900463ffffffff1663ffffffff168160040160059054906101000a900463ffffffff1663ffffffff1610610538576040517f08c379a000000000000000000000000000000000000000000000000000000000815260040161052f906116a4565b60405180910390fd5b6001600360003373ffffffffffffffffffffffffffffffffffffffff1673ffffffffffffffffffffffffffffffffffffffff168152602001908152602001600020600084815260200190815260200160002060006101000a81548160ff02191690831515021790555080600401600581819054906101000a900463ffffffff16809291906105c5906116f3565b91906101000a81548163ffffffff021916908363ffffffff16021790555050600073ffffffffffffffffffffffffffffffffffffffff168160060160009054906101000a900473ffffffffffffffffffffffffffffffffffffffff1673ffffffffffffffffffffffffffffffffffffffff1603610677576040517f08c379a000000000000000000000000000000000000000000000000000000000815260040161066e9061176b565b60405180910390fd5b8060060160009054906101000a900473ffffffffffffffffffffffffffffffffffffffff1673ffffffffffffffffffffffffffffffffffffffff16634f2b9379336040518263ffffffff1660e01b81526004016106d4919061178b565b600060405180830381600087803b1580156106ee57600080fd5b505af1158015610702573d6000803e3d6000fd5b50505050813373ffffffffffffffffffffffffffffffffffffffff167fcbea9c23945e351434f7ae5b1a435091cc278dd9dd0eba4c04203674014ca7d78360040160059054906101000a900463ffffffff1660405161076191906117d7565b60405180910390a35050565b4286116107af576040517f08c379a00000000000000000000000000000000000000000000000000000000081526004016107a69061183e565b60405180910390fd5b8486106107f1576040517f08c379a00000000000000000000000000000000000000000000000000000000081526004016107e8906118aa565b60405180910390fd5b6000600160008154610802906118ca565b919050819055905060008060009054906101000a900473ffffffffffffffffffffffffffffffffffffffff1673ffffffffffffffffffffffffffffffffffffffff166370ed064185856040518363ffffffff1660e01b8152600401610868929190611912565b6020604051808303816000875af1158015610887573d6000803e3d6000fd5b505050506040513d601f19601f820116820180604052508101906108ab919061195e565b90506040518061014001604052808b81526020018a81526020018981526020018881526020018760018111156108e4576108e3611056565b5b81526020018663ffffffff168152602001600063ffffffff168152602001600063ffffffff1681526020013373ffffffffffffffffffffffffffffffffffffffff1681526020018273ffffffffffffffffffffffffffffffffffffffff1681525060026000848152602001908152602001600020600082015181600001908161096d9190611b2d565b5060208201518160010190816109839190611b2d565b50604082015181600201556060820151816003015560808201518160040160006101000a81548160ff021916908360018111156109c3576109c2611056565b5b021790555060a08201518160040160016101000a81548163ffffffff021916908363ffffffff16021790555060c08201518160040160056101000a81548163ffffffff021916908363ffffffff16021790555060e08201518160040160096101000a81548163ffffffff021916908363ffffffff1602179055506101008201518160050160006101000a81548173ffffffffffffffffffffffffffffffffffffffff021916908373ffffffffffffffffffffffffffffffffffffffff1602179055506101208201518160060160006101000a81548173ffffffffffffffffffffffffffffffffffffffff021916908373ffffffffffffffffffffffffffffffffffffffff1602179055509050503373ffffffffffffffffffffffffffffffffffffffff16827fe43349c008949cf6b65249356e6f918d4aaa0ca79f2b1166df4a4a98c9c16de260405160405180910390a350505050505050505050565b60036020528160005260406000206020528060005260406000206000915091509054906101000a900460ff1681565b60015481565b60046020528160005260406000206020528060005260406000206000915091509054906101000a900460ff1681565b6001548111158015610b97575060008114155b610bd6576040517f08c379a0000000000000000000000000000000000000000000000000000000008152600401610bcd906115cc565b60405180910390fd5b60006002600083815260200190815260200160002090508060020154421015610c34576040517f08c379a0000000000000000000000000000000000000000000000000000000008152600401610c2b90611c4b565b60405180910390fd5b600460003373ffffffffffffffffffffffffffffffffffffffff1673ffffffffffffffffffffffffffffffffffffffff168152602001908152602001600020600083815260200190815260200160002060009054906101000a900460ff1615610cd2576040517f08c379a0000000000000000000000000000000000000000000000000000000008152600401610cc990611cb7565b60405180910390fd5b60008160060160009054906101000a900473ffffffffffffffffffffffffffffffffffffffff1673ffffffffffffffffffffffffffffffffffffffff166370a08231336040518263ffffffff1660e01b8152600401610d31919061178b565b602060405180830381865afa158015610d4e573d6000803e3d6000fd5b505050506040513d601f19601f82011682018060405250810190610d729190611cec565b11610db2576040517f08c379a0000000000000000000000000000000000000000000000000000000008152600401610da990611d65565b60405180910390fd5b6001600460003373ffffffffffffffffffffffffffffffffffffffff1673ffffffffffffffffffffffffffffffffffffffff168152602001908152602001600020600084815260200190815260200160002060006101000a81548160ff02191690831515021790555080600401600981819054906101000a900463ffffffff1680929190610e3f906116f3565b91906101000a81548163ffffffff021916908363ffffffff16021790555050813373ffffffffffffffffffffffffffffffffffffffff167f5b25fc1ebd3020e3fd298db72822ab1682ed5cde8201b8081f970b67e9a7141360405160405180910390a35050565b600073ffffffffffffffffffffffffffffffffffffffff82169050919050565b6000819050919050565b6000610eeb610ee6610ee184610ea6565b610ec6565b610ea6565b9050919050565b6000610efd82610ed0565b9050919050565b6000610f0f82610ef2565b9050919050565b610f1f81610f04565b82525050565b6000602082019050610f3a6000830184610f16565b92915050565b6000604051905090565b600080fd5b600080fd5b6000819050919050565b610f6781610f54565b8114610f7257600080fd5b50565b600081359050610f8481610f5e565b92915050565b600060208284031215610fa057610f9f610f4a565b5b6000610fae84828501610f75565b91505092915050565b600081519050919050565b600082825260208201905092915050565b60005b83811015610ff1578082015181840152602081019050610fd6565b60008484015250505050565b6000601f19601f8301169050919050565b600061101982610fb7565b6110238185610fc2565b9350611033818560208601610fd3565b61103c81610ffd565b840191505092915050565b61105081610f54565b82525050565b7f4e487b7100000000000000000000000000000000000000000000000000000000600052602160045260246000fd5b6002811061109657611095611056565b5b50565b60008190506110a782611085565b919050565b60006110b782611099565b9050919050565b6110c7816110ac565b82525050565b600063ffffffff82169050919050565b6110e6816110cd565b82525050565b60006110f782610ea6565b9050919050565b611107816110ec565b82525050565b6000610140820190508181036000830152611128818d61100e565b9050818103602083015261113c818c61100e565b905061114b604083018b611047565b611158606083018a611047565b61116560808301896110be565b61117260a08301886110dd565b61117f60c08301876110dd565b61118c60e08301866110dd565b61119a6101008301856110fe565b6111a86101208301846110fe565b9b9a5050505050505050505050565b600080fd5b600080fd5b7f4e487b7100000000000000000000000000000000000000000000000000000000600052604160045260246000fd5b6111f982610ffd565b810181811067ffffffffffffffff82111715611218576112176111c1565b5b80604052505050565b600061122b610f40565b905061123782826111f0565b919050565b600067ffffffffffffffff821115611257576112566111c1565b5b61126082610ffd565b9050602081019050919050565b82818337600083830152505050565b600061128f61128a8461123c565b611221565b9050828152602081018484840111156112ab576112aa6111bc565b5b6112b684828561126d565b509392505050565b600082601f8301126112d3576112d26111b7565b5b81356112e384826020860161127c565b91505092915050565b600281106112f957600080fd5b50565b60008135905061130b816112ec565b92915050565b61131a816110cd565b811461132557600080fd5b50565b60008135905061133781611311565b92915050565b600080600080600080600080610100898b03121561135e5761135d610f4a565b5b600089013567ffffffffffffffff81111561137c5761137b610f4f565b5b6113888b828c016112be565b985050602089013567ffffffffffffffff8111156113a9576113a8610f4f565b5b6113b58b828c016112be565b97505060406113c68b828c01610f75565b96505060606113d78b828c01610f75565b95505060806113e88b828c016112fc565b94505060a06113f98b828c01611328565b93505060c089013567ffffffffffffffff81111561141a57611419610f4f565b5b6114268b828c016112be565b92505060e089013567ffffffffffffffff81111561144757611446610f4f565b5b6114538b828c016112be565b9150509295985092959890939650565b61146c816110ec565b811461147757600080fd5b50565b60008135905061148981611463565b92915050565b600080604083850312156114a6576114a5610f4a565b5b60006114b48582860161147a565b92505060206114c585828601610f75565b9150509250929050565b60008115159050919050565b6114e4816114cf565b82525050565b60006020820190506114ff60008301846114db565b92915050565b600060208201905061151a6000830184611047565b92915050565b7f4e487b7100000000000000000000000000000000000000000000000000000000600052602260045260246000fd5b6000600282049050600182168061156757607f821691505b60208210810361157a57611579611520565b5b50919050565b7f4556454e5420444f45534e542045584953540000000000000000000000000000600082015250565b60006115b6601283610fc2565b91506115c182611580565b602082019050919050565b600060208201905081810360008301526115e5816115a9565b9050919050565b7f414c524541445920524547495354455245440000000000000000000000000000600082015250565b6000611622601283610fc2565b915061162d826115ec565b602082019050919050565b6000602082019050818103600083015261165181611615565b9050919050565b7f524547495354524154494f4e20434c4f53454400000000000000000000000000600082015250565b600061168e601383610fc2565b915061169982611658565b602082019050919050565b600060208201905081810360008301526116bd81611681565b9050919050565b7f4e487b7100000000000000000000000000000000000000000000000000000000600052601160045260246000fd5b60006116fe826110cd565b915063ffffffff8203611714576117136116c4565b5b600182019050919050565b7f5449434b4554494e47204e4f5420454e41424c45440000000000000000000000600082015250565b6000611755601583610fc2565b91506117608261171f565b602082019050919050565b6000602082019050818103600083015261178481611748565b9050919050565b60006020820190506117a060008301846110fe565b92915050565b60006117c16117bc6117b7846110cd565b610ec6565b610f54565b9050919050565b6117d1816117a6565b82525050565b60006020820190506117ec60008301846117c8565b92915050565b7f53544152542044415445204d55535420424520494e2046555455524500000000600082015250565b6000611828601c83610fc2565b9150611833826117f2565b602082019050919050565b600060208201905081810360008301526118578161181b565b9050919050565b7f454e442044415445204d55535420424520475245415445520000000000000000600082015250565b6000611894601883610fc2565b915061189f8261185e565b602082019050919050565b600060208201905081810360008301526118c381611887565b9050919050565b60006118d582610f54565b91507fffffffffffffffffffffffffffffffffffffffffffffffffffffffffffffffff8203611907576119066116c4565b5b600182019050919050565b6000604082019050818103600083015261192c818561100e565b90508181036020830152611940818461100e565b90509392505050565b60008151905061195881611463565b92915050565b60006020828403121561197457611973610f4a565b5b600061198284828501611949565b91505092915050565b60008190508160005260206000209050919050565b60006020601f8301049050919050565b600082821b905092915050565b6000600883026119ed7fffffffffffffffffffffffffffffffffffffffffffffffffffffffffffffffff826119b0565b6119f786836119b0565b95508019841693508086168417925050509392505050565b6000611a2a611a25611a2084610f54565b610ec6565b610f54565b9050919050565b6000819050919050565b611a4483611a0f565b611a58611a5082611a31565b8484546119bd565b825550505050565b600090565b611a6d611a60565b611a78818484611a3b565b505050565b5b81811015611a9c57611a91600082611a65565b600181019050611a7e565b5050565b601f821115611ae157611ab28161198b565b611abb846119a0565b81016020851015611aca578190505b611ade611ad6856119a0565b830182611a7d565b50505b505050565b600082821c905092915050565b6000611b0460001984600802611ae6565b1980831691505092915050565b6000611b1d8383611af3565b9150826002028217905092915050565b611b3682610fb7565b67ffffffffffffffff811115611b4f57611b4e6111c1565b5b611b59825461154f565b611b64828285611aa0565b600060209050601f831160018114611b975760008415611b85578287015190505b611b8f8582611b11565b865550611bf7565b601f198416611ba58661198b565b60005b82811015611bcd57848901518255600182019150602085019450602081019050611ba8565b86831015611bea5784890151611be6601f891682611af3565b8355505b6001600288020188555050505b505050505050565b7f4556454e5420484153204e4f5420535441525445440000000000000000000000600082015250565b6000611c35601583610fc2565b9150611c4082611bff565b602082019050919050565b60006020820190508181036000830152611c6481611c28565b9050919050565b7f414c524541445920434845434b454420494e0000000000000000000000000000600082015250565b6000611ca1601283610fc2565b9150611cac82611c6b565b602082019050919050565b60006020820190508181036000830152611cd081611c94565b9050919050565b600081519050611ce681610f5e565b92915050565b600060208284031215611d0257611d01610f4a565b5b6000611d1084828501611cd7565b91505092915050565b7f4e4f2056414c4944205449434b45540000000000000000000000000000000000600082015250565b6000611d4f600f83610fc2565b9150611d5a82611d19565b602082019050919050565b60006020820190508181036000830152611d7e81611d42565b905091905056fea2646970667358221220d4ab5c8dbde64e216c4b81aa5b0d43c17469dcb4760bb86434ba3f575b438f1564736f6c634300081c0033",
  "linkReferences": {},
  "deployedLinkReferences": {}
}