{"contracts/AuctionFactory.sol":{"AuctionFactory":{"abi":[{"inputs":[],"stateMutability":"nonpayable","type":"constructor"},{"anonymous":false,"inputs":[{"indexed":true,"internalType":"address","name":"auction","type":"address"},{"indexed":false,"internalType":"string","name":"itemName","type":"string"},{"indexed":false,"internalType":"uint256","name":"initialPrice","type":"uint256"},{"indexed":false,"internalType":"address","name":"seller","type":"address"}],"name":"AuctionCreated","type":"event"},{"inputs":[],"name":"admin","outputs":[{"internalType":"address","name":"","type":"address"}],"stateMutability":"view","type":"function"},{"inputs":[{"internalType":"uint256","name":"","type":"uint256"}],"name":"auctions","outputs":[{"internalType":"address","name":"","type":"address"}],"stateMutability":"view","type":"function"},{"inputs":[{"internalType":"string","name":"itemName","type":"string"},{"internalType":"uint256","name":"initialPrice","type":"uint256"},{"internalType":"uint256","name":"endTime","type":"uint256"}],"name":"createAuction","outputs":[],"stateMutability":"nonpayable","type":"function"},{"inputs":[],"name":"getAuctions","outputs":[{"internalType":"address[]","name":"","type":"address[]"}],"stateMutability":"view","type":"function"}],"evm":{"bytecode":{"linkReferences":{},"object":"6080604052348015600f57600080fd5b50336000806101000a81548173ffffffffffffffffffffffffffffffffffffffff021916908373ffffffffffffffffffffffffffffffffffffffff160217905550611bd48061005f6000396000f3fe608060405234801561001057600080fd5b506004361061004c5760003560e01c80632dbddb4114610051578063571a26a01461006d578063d7c069191461009d578063f851a440146100bb575b600080fd5b61006b600480360381019061006691906104a2565b6100d9565b005b61008760048036038101906100829190610511565b610214565b604051610094919061057f565b60405180910390f35b6100a5610253565b6040516100b29190610658565b60405180910390f35b6100c36102e1565b6040516100d0919061057f565b60405180910390f35b80421061011b576040517f08c379a0000000000000000000000000000000000000000000000000000000008152600401610112906106d7565b60405180910390fd5b60008383338460405161012d90610305565b61013a9493929190610774565b604051809103906000f080158015610156573d6000803e3d6000fd5b5090506001819080600181540180825580915050600190039060005260206000200160009091909190916101000a81548173ffffffffffffffffffffffffffffffffffffffff021916908373ffffffffffffffffffffffffffffffffffffffff1602179055508073ffffffffffffffffffffffffffffffffffffffff167fbf290ac16c38959544e00865d39281ad1492eff55c51a9ff2820bbce2e15226c858533604051610206939291906107c0565b60405180910390a250505050565b6001818154811061022457600080fd5b906000526020600020016000915054906101000a900473ffffffffffffffffffffffffffffffffffffffff1681565b606060018054806020026020016040519081016040528092919081815260200182805480156102d757602002820191906000526020600020905b8160009054906101000a900473ffffffffffffffffffffffffffffffffffffffff1673ffffffffffffffffffffffffffffffffffffffff168152602001906001019080831161028d575b5050505050905090565b60008054906101000a900473ffffffffffffffffffffffffffffffffffffffff1681565b6113a0806107ff83390190565b6000604051905090565b600080fd5b600080fd5b600080fd5b600080fd5b6000601f19601f8301169050919050565b7f4e487b7100000000000000000000000000000000000000000000000000000000600052604160045260246000fd5b61037982610330565b810181811067ffffffffffffffff8211171561039857610397610341565b5b80604052505050565b60006103ab610312565b90506103b78282610370565b919050565b600067ffffffffffffffff8211156103d7576103d6610341565b5b6103e082610330565b9050602081019050919050565b82818337600083830152505050565b600061040f61040a846103bc565b6103a1565b90508281526020810184848401111561042b5761042a61032b565b5b6104368482856103ed565b509392505050565b600082601f83011261045357610452610326565b5b81356104638482602086016103fc565b91505092915050565b6000819050919050565b61047f8161046c565b811461048a57600080fd5b50565b60008135905061049c81610476565b92915050565b6000806000606084860312156104bb576104ba61031c565b5b600084013567ffffffffffffffff8111156104d9576104d8610321565b5b6104e58682870161043e565b93505060206104f68682870161048d565b92505060406105078682870161048d565b9150509250925092565b6000602082840312156105275761052661031c565b5b60006105358482850161048d565b91505092915050565b600073ffffffffffffffffffffffffffffffffffffffff82169050919050565b60006105698261053e565b9050919050565b6105798161055e565b82525050565b60006020820190506105946000830184610570565b92915050565b600081519050919050565b600082825260208201905092915050565b6000819050602082019050919050565b6105cf8161055e565b82525050565b60006105e183836105c6565b60208301905092915050565b6000602082019050919050565b60006106058261059a565b61060f81856105a5565b935061061a836105b6565b8060005b8381101561064b57815161063288826105d5565b975061063d836105ed565b92505060018101905061061e565b5085935050505092915050565b6000602082019050818103600083015261067281846105fa565b905092915050565b600082825260208201905092915050565b7f456e642074696d65206d75737420626520696e20746865206675747572650000600082015250565b60006106c1601e8361067a565b91506106cc8261068b565b602082019050919050565b600060208201905081810360008301526106f0816106b4565b9050919050565b600081519050919050565b60005b83811015610720578082015181840152602081019050610705565b60008484015250505050565b6000610737826106f7565b610741818561067a565b9350610751818560208601610702565b61075a81610330565b840191505092915050565b61076e8161046c565b82525050565b6000608082019050818103600083015261078e818761072c565b905061079d6020830186610765565b6107aa6040830185610570565b6107b76060830184610765565b95945050505050565b600060608201905081810360008301526107da818661072c565b90506107e96020830185610765565b6107f66040830184610570565b94935050505056fe608060405234801561001057600080fd5b506040516113a03803806113a0833981810160405281019061003291906102aa565b816000806101000a81548173ffffffffffffffffffffffffffffffffffffffff021916908373ffffffffffffffffffffffffffffffffffffffff16021790555083600190816100819190610544565b508260038190555080600281905550600060058190555050505050610616565b6000604051905090565b600080fd5b600080fd5b600080fd5b600080fd5b6000601f19601f8301169050919050565b7f4e487b7100000000000000000000000000000000000000000000000000000000600052604160045260246000fd5b610108826100bf565b810181811067ffffffffffffffff82111715610127576101266100d0565b5b80604052505050565b600061013a6100a1565b905061014682826100ff565b919050565b600067ffffffffffffffff821115610166576101656100d0565b5b61016f826100bf565b9050602081019050919050565b60005b8381101561019a57808201518184015260208101905061017f565b60008484015250505050565b60006101b96101b48461014b565b610130565b9050828152602081018484840111156101d5576101d46100ba565b5b6101e084828561017c565b509392505050565b600082601f8301126101fd576101fc6100b5565b5b815161020d8482602086016101a6565b91505092915050565b6000819050919050565b61022981610216565b811461023457600080fd5b50565b60008151905061024681610220565b92915050565b600073ffffffffffffffffffffffffffffffffffffffff82169050919050565b60006102778261024c565b9050919050565b6102878161026c565b811461029257600080fd5b50565b6000815190506102a48161027e565b92915050565b600080600080608085870312156102c4576102c36100ab565b5b600085015167ffffffffffffffff8111156102e2576102e16100b0565b5b6102ee878288016101e8565b94505060206102ff87828801610237565b935050604061031087828801610295565b925050606061032187828801610237565b91505092959194509250565b600081519050919050565b7f4e487b7100000000000000000000000000000000000000000000000000000000600052602260045260246000fd5b6000600282049050600182168061037f57607f821691505b60208210810361039257610391610338565b5b50919050565b60008190508160005260206000209050919050565b60006020601f8301049050919050565b600082821b905092915050565b6000600883026103fa7fffffffffffffffffffffffffffffffffffffffffffffffffffffffffffffffff826103bd565b61040486836103bd565b95508019841693508086168417925050509392505050565b6000819050919050565b600061044161043c61043784610216565b61041c565b610216565b9050919050565b6000819050919050565b61045b83610426565b61046f61046782610448565b8484546103ca565b825550505050565b600090565b610484610477565b61048f818484610452565b505050565b5b818110156104b3576104a860008261047c565b600181019050610495565b5050565b601f8211156104f8576104c981610398565b6104d2846103ad565b810160208510156104e1578190505b6104f56104ed856103ad565b830182610494565b50505b505050565b600082821c905092915050565b600061051b600019846008026104fd565b1980831691505092915050565b6000610534838361050a565b9150826002028217905092915050565b61054d8261032d565b67ffffffffffffffff811115610566576105656100d0565b5b6105708254610367565b61057b8282856104b7565b600060209050601f8311600181146105ae576000841561059c578287015190505b6105a68582610528565b86555061060e565b601f1984166105bc86610398565b60005b828110156105e4578489015182556001820191506020850194506020810190506105bf565b8683101561060157848901516105fd601f89168261050a565b8355505b6001600288020188555050505b505050505050565b610d7b806106256000396000f3fe6080604052600436106100865760003560e01c806391f901571161005957806391f9015714610123578063c5b636001461014e578063d57bde7914610179578063ecfc7ecc146101a4578063f2a4a82e146101ae57610086565b806308551a531461008b5780633197cbb6146100b65780633ccfd60b146100e15780638b7afe2e146100f8575b600080fd5b34801561009757600080fd5b506100a06101d9565b6040516100ad919061083c565b60405180910390f35b3480156100c257600080fd5b506100cb6101fd565b6040516100d89190610870565b60405180910390f35b3480156100ed57600080fd5b506100f6610203565b005b34801561010457600080fd5b5061010d6103ef565b60405161011a9190610870565b60405180910390f35b34801561012f57600080fd5b506101386103f5565b604051610145919061083c565b60405180910390f35b34801561015a57600080fd5b5061016361041b565b6040516101709190610870565b60405180910390f35b34801561018557600080fd5b5061018e61045d565b60405161019b9190610870565b60405180910390f35b6101ac610463565b005b3480156101ba57600080fd5b506101c361076d565b6040516101d0919061091b565b60405180910390f35b60008054906101000a900473ffffffffffffffffffffffffffffffffffffffff1681565b60025481565b60008054906101000a900473ffffffffffffffffffffffffffffffffffffffff1673ffffffffffffffffffffffffffffffffffffffff163373ffffffffffffffffffffffffffffffffffffffff1614610291576040517f08c379a000000000000000000000000000000000000000000000000000000000815260040161028890610989565b60405180910390fd5b6002544210156102d6576040517f08c379a00000000000000000000000000000000000000000000000000000000081526004016102cd906109f5565b60405180910390fd5b60006005541161031b576040517f08c379a000000000000000000000000000000000000000000000000000000000815260040161031290610a61565b60405180910390fd5b60006005549050600060058190555060008054906101000a900473ffffffffffffffffffffffffffffffffffffffff1673ffffffffffffffffffffffffffffffffffffffff166108fc829081150290604051600060405180830381858888f19350505050158015610390573d6000803e3d6000fd5b507fdaec4582d5d9595688c8c98545fdd1c696d41c6aeaeb636737e84ed2f5c00eda600460009054906101000a900473ffffffffffffffffffffffffffffffffffffffff16826040516103e4929190610a81565b60405180910390a150565b60055481565b600460009054906101000a900473ffffffffffffffffffffffffffffffffffffffff1681565b600080600a60035461042d9190610b08565b60055460035461043d9190610b39565b60055461044a9190610b6d565b6104549190610b6d565b90508091505090565b60035481565b60025442106104a7576040517f08c379a000000000000000000000000000000000000000000000000000000000815260040161049e90610bed565b60405180910390fd5b600034116104ea576040517f08c379a00000000000000000000000000000000000000000000000000000000081526004016104e190610c59565b60405180910390fd5b60006104f461041b565b905080341015610539576040517f08c379a000000000000000000000000000000000000000000000000000000000815260040161053090610cc5565b60405180910390fd5b600073ffffffffffffffffffffffffffffffffffffffff16600460009054906101000a900473ffffffffffffffffffffffffffffffffffffffff1673ffffffffffffffffffffffffffffffffffffffff1614610695576000600a600354346105a19190610b39565b6105ab9190610b08565b6003546105b89190610b6d565b9050600460009054906101000a900473ffffffffffffffffffffffffffffffffffffffff1673ffffffffffffffffffffffffffffffffffffffff166108fc829081150290604051600060405180830381858888f19350505050158015610622573d6000803e3d6000fd5b50600460009054906101000a900473ffffffffffffffffffffffffffffffffffffffff1673ffffffffffffffffffffffffffffffffffffffff167fbb28353e4598c3b9199101a66e0989549b659a59a54d2c27fbb183f1932c8e6d8260405161068b9190610870565b60405180910390a2505b33600460006101000a81548173ffffffffffffffffffffffffffffffffffffffff021916908373ffffffffffffffffffffffffffffffffffffffff16021790555034600381905550600a6003546106ec9190610b08565b600354346106fa9190610b39565b6107049190610b6d565b600560008282546107159190610b6d565b925050819055503373ffffffffffffffffffffffffffffffffffffffff167fdd0b6c6a77960e2066c96171b4d7ac9e8b4c184011f38544afa36a5bb63ec59f346040516107629190610870565b60405180910390a250565b6001805461077a90610d14565b80601f01602080910402602001604051908101604052809291908181526020018280546107a690610d14565b80156107f35780601f106107c8576101008083540402835291602001916107f3565b820191906000526020600020905b8154815290600101906020018083116107d657829003601f168201915b505050505081565b600073ffffffffffffffffffffffffffffffffffffffff82169050919050565b6000610826826107fb565b9050919050565b6108368161081b565b82525050565b6000602082019050610851600083018461082d565b92915050565b6000819050919050565b61086a81610857565b82525050565b60006020820190506108856000830184610861565b92915050565b600081519050919050565b600082825260208201905092915050565b60005b838110156108c55780820151818401526020810190506108aa565b60008484015250505050565b6000601f19601f8301169050919050565b60006108ed8261088b565b6108f78185610896565b93506109078185602086016108a7565b610910816108d1565b840191505092915050565b6000602082019050818103600083015261093581846108e2565b905092915050565b7f4f6e6c792073656c6c65722063616e2063616c6c207468697300000000000000600082015250565b6000610973601983610896565b915061097e8261093d565b602082019050919050565b600060208201905081810360008301526109a281610966565b9050919050565b7f41756374696f6e206e6f742079657420656e6465640000000000000000000000600082015250565b60006109df601583610896565b91506109ea826109a9565b602082019050919050565b60006020820190508181036000830152610a0e816109d2565b9050919050565b7f4e6f7468696e6720746f20776974686472617700000000000000000000000000600082015250565b6000610a4b601383610896565b9150610a5682610a15565b602082019050919050565b60006020820190508181036000830152610a7a81610a3e565b9050919050565b6000604082019050610a96600083018561082d565b610aa36020830184610861565b9392505050565b7f4e487b7100000000000000000000000000000000000000000000000000000000600052601260045260246000fd5b7f4e487b7100000000000000000000000000000000000000000000000000000000600052601160045260246000fd5b6000610b1382610857565b9150610b1e83610857565b925082610b2e57610b2d610aaa565b5b828204905092915050565b6000610b4482610857565b9150610b4f83610857565b9250828203905081811115610b6757610b66610ad9565b5b92915050565b6000610b7882610857565b9150610b8383610857565b9250828201905080821115610b9b57610b9a610ad9565b5b92915050565b7f41756374696f6e2068617320656e646564000000000000000000000000000000600082015250565b6000610bd7601183610896565b9150610be282610ba1565b602082019050919050565b60006020820190508181036000830152610c0681610bca565b9050919050565b7f426964206d7573742062652067726561746572207468616e207a65726f000000600082015250565b6000610c43601d83610896565b9150610c4e82610c0d565b602082019050919050565b60006020820190508181036000830152610c7281610c36565b9050919050565b7f42696420746f6f206c6f77000000000000000000000000000000000000000000600082015250565b6000610caf600b83610896565b9150610cba82610c79565b602082019050919050565b60006020820190508181036000830152610cde81610ca2565b9050919050565b7f4e487b7100000000000000000000000000000000000000000000000000000000600052602260045260246000fd5b60006002820490506001821680610d2c57607f821691505b602082108103610d3f57610d3e610ce5565b5b5091905056fea26469706673582212208c109dfdd8448df7891bf8f3a1668c905502ff32b651bc20158b435781b2bc7564736f6c634300081c0033a26469706673582212209f1139c1b7720f206a906f03d6d9a473e758eeaa81ae5b7b104f14ee9d51eea464736f6c634300081c0033","opcodes":"PUSH1 0x80 PUSH1 0x40 MSTORE CALLVALUE DUP1 ISZERO PUSH1 0xF JUMPI PUSH1 0x0 DUP1 REVERT JUMPDEST POP CALLER PUSH1 0x0 DUP1 PUSH2 0x100 EXP DUP2 SLOAD DUP2 PUSH20 0xFFFFFFFFFFFFFFFFFFFFFFFFFFFFFFFFFFFFFFFF MUL NOT AND SWAP1 DUP4 PUSH20 0xFFFFFFFFFFFFFFFFFFFFFFFFFFFFFFFFFFFFFFFF AND MUL OR SWAP1 SSTORE POP PUSH2 0x1BD4 DUP1 PUSH2 0x5F PUSH1 0x0 CODECOPY PUSH1 0x0 RETURN INVALID PUSH1 0x80 PUSH1 0x40 MSTORE CALLVALUE DUP1 ISZERO PUSH2 0x10 JUMPI PUSH1 0x0 DUP1 REVERT JUMPDEST POP PUSH1 0x4 CALLDATASIZE LT PUSH2 0x4C JUMPI PUSH1 0x0 CALLDATALOAD PUSH1 0xE0 SHR DUP1 PUSH4 0x2DBDDB41 EQ PUSH2 0x51 JUMPI DUP1 PUSH4 0x571A26A0 EQ PUSH2 0x6D JUMPI DUP1 PUSH4 0xD7C06919 EQ PUSH2 0x9D JUMPI DUP1 PUSH4 0xF851A440 EQ PUSH2 0xBB JUMPI JUMPDEST PUSH1 0x0 DUP1 REVERT JUMPDEST PUSH2 0x6B PUSH1 0x4 DUP1 CALLDATASIZE SUB DUP2 ADD SWAP1 PUSH2 0x66 SWAP2 SWAP1 PUSH2 0x4A2 JUMP JUMPDEST PUSH2 0xD9 JUMP JUMPDEST STOP JUMPDEST PUSH2 0x87 PUSH1 0x4 DUP1 CALLDATASIZE SUB DUP2 ADD SWAP1 PUSH2 0x82 SWAP2 SWAP1 PUSH2 0x511 JUMP JUMPDEST PUSH2 0x214 JUMP JUMPDEST PUSH1 0x40 MLOAD PUSH2 0x94 SWAP2 SWAP1 PUSH2 0x57F JUMP JUMPDEST PUSH1 0x40 MLOAD DUP1 SWAP2 SUB SWAP1 RETURN JUMPDEST PUSH2 0xA5 PUSH2 0x253 JUMP JUMPDEST PUSH1 0x40 MLOAD PUSH2 0xB2 SWAP2 SWAP1 PUSH2 0x658 JUMP JUMPDEST PUSH1 0x40 MLOAD DUP1 SWAP2 SUB SWAP1 RETURN JUMPDEST PUSH2 0xC3 PUSH2 0x2E1 JUMP JUMPDEST PUSH1 0x40 MLOAD PUSH2 0xD0 SWAP2 SWAP1 PUSH2 0x57F JUMP JUMPDEST PUSH1 0x40 MLOAD DUP1 SWAP2 SUB SWAP1 RETURN JUMPDEST DUP1 TIMESTAMP LT PUSH2 0x11B JUMPI PUSH1 0x40 MLOAD PUSH32 0x8C379A000000000000000000000000000000000000000000000000000000000 DUP2 MSTORE PUSH1 0x4 ADD PUSH2 0x112 SWAP1 PUSH2 0x6D7 JUMP JUMPDEST PUSH1 0x40 MLOAD DUP1 SWAP2 SUB SWAP1 REVERT JUMPDEST PUSH1 0x0 DUP4 DUP4 CALLER DUP5 PUSH1 0x40 MLOAD PUSH2 0x12D SWAP1 PUSH2 0x305 JUMP JUMPDEST PUSH2 0x13A SWAP5 SWAP4 SWAP3 SWAP2 SWAP1 PUSH2 0x774 JUMP JUMPDEST PUSH1 0x40 MLOAD DUP1 SWAP2 SUB SWAP1 PUSH1 0x0 CREATE DUP1 ISZERO DUP1 ISZERO PUSH2 0x156 JUMPI RETURNDATASIZE PUSH1 0x0 DUP1 RETURNDATACOPY RETURNDATASIZE PUSH1 0x0 REVERT JUMPDEST POP SWAP1 POP PUSH1 0x1 DUP2 SWAP1 DUP1 PUSH1 0x1 DUP2 SLOAD ADD DUP1 DUP3 SSTORE DUP1 SWAP2 POP POP PUSH1 0x1 SWAP1 SUB SWAP1 PUSH1 0x0 MSTORE PUSH1 0x20 PUSH1 0x0 KECCAK256 ADD PUSH1 0x0 SWAP1 SWAP2 SWAP1 SWAP2 SWAP1 SWAP2 PUSH2 0x100 EXP DUP2 SLOAD DUP2 PUSH20 0xFFFFFFFFFFFFFFFFFFFFFFFFFFFFFFFFFFFFFFFF MUL NOT AND SWAP1 DUP4 PUSH20 0xFFFFFFFFFFFFFFFFFFFFFFFFFFFFFFFFFFFFFFFF AND MUL OR SWAP1 SSTORE POP DUP1 PUSH20 0xFFFFFFFFFFFFFFFFFFFFFFFFFFFFFFFFFFFFFFFF AND PUSH32 0xBF290AC16C38959544E00865D39281AD1492EFF55C51A9FF2820BBCE2E15226C DUP6 DUP6 CALLER PUSH1 0x40 MLOAD PUSH2 0x206 SWAP4 SWAP3 SWAP2 SWAP1 PUSH2 0x7C0 JUMP JUMPDEST PUSH1 0x40 MLOAD DUP1 SWAP2 SUB SWAP1 LOG2 POP POP POP POP JUMP JUMPDEST PUSH1 0x1 DUP2 DUP2 SLOAD DUP2 LT PUSH2 0x224 JUMPI PUSH1 0x0 DUP1 REVERT JUMPDEST SWAP1 PUSH1 0x0 MSTORE PUSH1 0x20 PUSH1 0x0 KECCAK256 ADD PUSH1 0x0 SWAP2 POP SLOAD SWAP1 PUSH2 0x100 EXP SWAP1 DIV PUSH20 0xFFFFFFFFFFFFFFFFFFFFFFFFFFFFFFFFFFFFFFFF AND DUP2 JUMP JUMPDEST PUSH1 0x60 PUSH1 0x1 DUP1 SLOAD DUP1 PUSH1 0x20 MUL PUSH1 0x20 ADD PUSH1 0x40 MLOAD SWAP1 DUP2 ADD PUSH1 0x40 MSTORE DUP1 SWAP3 SWAP2 SWAP1 DUP2 DUP2 MSTORE PUSH1 0x20 ADD DUP3 DUP1 SLOAD DUP1 ISZERO PUSH2 0x2D7 JUMPI PUSH1 0x20 MUL DUP3 ADD SWAP2 SWAP1 PUSH1 0x0 MSTORE PUSH1 0x20 PUSH1 0x0 KECCAK256 SWAP1 JUMPDEST DUP2 PUSH1 0x0 SWAP1 SLOAD SWAP1 PUSH2 0x100 EXP SWAP1 DIV PUSH20 0xFFFFFFFFFFFFFFFFFFFFFFFFFFFFFFFFFFFFFFFF AND PUSH20 0xFFFFFFFFFFFFFFFFFFFFFFFFFFFFFFFFFFFFFFFF AND DUP2 MSTORE PUSH1 0x20 ADD SWAP1 PUSH1 0x1 ADD SWAP1 DUP1 DUP4 GT PUSH2 0x28D JUMPI JUMPDEST POP POP POP POP POP SWAP1 POP SWAP1 JUMP JUMPDEST PUSH1 0x0 DUP1 SLOAD SWAP1 PUSH2 0x100 EXP SWAP1 DIV PUSH20 0xFFFFFFFFFFFFFFFFFFFFFFFFFFFFFFFFFFFFFFFF AND DUP2 JUMP JUMPDEST PUSH2 0x13A0 DUP1 PUSH2 0x7FF DUP4 CODECOPY ADD SWAP1 JUMP JUMPDEST PUSH1 0x0 PUSH1 0x40 MLOAD SWAP1 POP SWAP1 JUMP JUMPDEST PUSH1 0x0 DUP1 REVERT JUMPDEST PUSH1 0x0 DUP1 REVERT JUMPDEST PUSH1 0x0 DUP1 REVERT JUMPDEST PUSH1 0x0 DUP1 REVERT JUMPDEST PUSH1 0x0 PUSH1 0x1F NOT PUSH1 0x1F DUP4 ADD AND SWAP1 POP SWAP2 SWAP1 POP JUMP JUMPDEST PUSH32 0x4E487B7100000000000000000000000000000000000000000000000000000000 PUSH1 0x0 MSTORE PUSH1 0x41 PUSH1 0x4 MSTORE PUSH1 0x24 PUSH1 0x0 REVERT JUMPDEST PUSH2 0x379 DUP3 PUSH2 0x330 JUMP JUMPDEST DUP2 ADD DUP2 DUP2 LT PUSH8 0xFFFFFFFFFFFFFFFF DUP3 GT OR ISZERO PUSH2 0x398 JUMPI PUSH2 0x397 PUSH2 0x341 JUMP JUMPDEST JUMPDEST DUP1 PUSH1 0x40 MSTORE POP POP POP JUMP JUMPDEST PUSH1 0x0 PUSH2 0x3AB PUSH2 0x312 JUMP JUMPDEST SWAP1 POP PUSH2 0x3B7 DUP3 DUP3 PUSH2 0x370 JUMP JUMPDEST SWAP2 SWAP1 POP JUMP JUMPDEST PUSH1 0x0 PUSH8 0xFFFFFFFFFFFFFFFF DUP3 GT ISZERO PUSH2 0x3D7 JUMPI PUSH2 0x3D6 PUSH2 0x341 JUMP JUMPDEST JUMPDEST PUSH2 0x3E0 DUP3 PUSH2 0x330 JUMP JUMPDEST SWAP1 POP PUSH1 0x20 DUP2 ADD SWAP1 POP SWAP2 SWAP1 POP JUMP JUMPDEST DUP3 DUP2 DUP4 CALLDATACOPY PUSH1 0x0 DUP4 DUP4 ADD MSTORE POP POP POP JUMP JUMPDEST PUSH1 0x0 PUSH2 0x40F PUSH2 0x40A DUP5 PUSH2 0x3BC JUMP JUMPDEST PUSH2 0x3A1 JUMP JUMPDEST SWAP1 POP DUP3 DUP2 MSTORE PUSH1 0x20 DUP2 ADD DUP5 DUP5 DUP5 ADD GT ISZERO PUSH2 0x42B JUMPI PUSH2 0x42A PUSH2 0x32B JUMP JUMPDEST JUMPDEST PUSH2 0x436 DUP5 DUP3 DUP6 PUSH2 0x3ED JUMP JUMPDEST POP SWAP4 SWAP3 POP POP POP JUMP JUMPDEST PUSH1 0x0 DUP3 PUSH1 0x1F DUP4 ADD SLT PUSH2 0x453 JUMPI PUSH2 0x452 PUSH2 0x326 JUMP JUMPDEST JUMPDEST DUP2 CALLDATALOAD PUSH2 0x463 DUP5 DUP3 PUSH1 0x20 DUP7 ADD PUSH2 0x3FC JUMP JUMPDEST SWAP2 POP POP SWAP3 SWAP2 POP POP JUMP JUMPDEST PUSH1 0x0 DUP2 SWAP1 POP SWAP2 SWAP1 POP JUMP JUMPDEST PUSH2 0x47F DUP2 PUSH2 0x46C JUMP JUMPDEST DUP2 EQ PUSH2 0x48A JUMPI PUSH1 0x0 DUP1 REVERT JUMPDEST POP JUMP JUMPDEST PUSH1 0x0 DUP2 CALLDATALOAD SWAP1 POP PUSH2 0x49C DUP2 PUSH2 0x476 JUMP JUMPDEST SWAP3 SWAP2 POP POP JUMP JUMPDEST PUSH1 0x0 DUP1 PUSH1 0x0 PUSH1 0x60 DUP5 DUP7 SUB SLT ISZERO PUSH2 0x4BB JUMPI PUSH2 0x4BA PUSH2 0x31C JUMP JUMPDEST JUMPDEST PUSH1 0x0 DUP5 ADD CALLDATALOAD PUSH8 0xFFFFFFFFFFFFFFFF DUP2 GT ISZERO PUSH2 0x4D9 JUMPI PUSH2 0x4D8 PUSH2 0x321 JUMP JUMPDEST JUMPDEST PUSH2 0x4E5 DUP7 DUP3 DUP8 ADD PUSH2 0x43E JUMP JUMPDEST SWAP4 POP POP PUSH1 0x20 PUSH2 0x4F6 DUP7 DUP3 DUP8 ADD PUSH2 0x48D JUMP JUMPDEST SWAP3 POP POP PUSH1 0x40 PUSH2 0x507 DUP7 DUP3 DUP8 ADD PUSH2 0x48D JUMP JUMPDEST SWAP2 POP POP SWAP3 POP SWAP3 POP SWAP3 JUMP JUMPDEST PUSH1 0x0 PUSH1 0x20 DUP3 DUP5 SUB SLT ISZERO PUSH2 0x527 JUMPI PUSH2 0x526 PUSH2 0x31C JUMP JUMPDEST JUMPDEST PUSH1 0x0 PUSH2 0x535 DUP5 DUP3 DUP6 ADD PUSH2 0x48D JUMP JUMPDEST SWAP2 POP POP SWAP3 SWAP2 POP POP JUMP JUMPDEST PUSH1 0x0 PUSH20 0xFFFFFFFFFFFFFFFFFFFFFFFFFFFFFFFFFFFFFFFF DUP3 AND SWAP1 POP SWAP2 SWAP1 POP JUMP JUMPDEST PUSH1 0x0 PUSH2 0x569 DUP3 PUSH2 0x53E JUMP JUMPDEST SWAP1 POP SWAP2 SWAP1 POP JUMP JUMPDEST PUSH2 0x579 DUP2 PUSH2 0x55E JUMP JUMPDEST DUP3 MSTORE POP POP JUMP JUMPDEST PUSH1 0x0 PUSH1 0x20 DUP3 ADD SWAP1 POP PUSH2 0x594 PUSH1 0x0 DUP4 ADD DUP5 PUSH2 0x570 JUMP JUMPDEST SWAP3 SWAP2 POP POP JUMP JUMPDEST PUSH1 0x0 DUP2 MLOAD SWAP1 POP SWAP2 SWAP1 POP JUMP JUMPDEST PUSH1 0x0 DUP3 DUP3 MSTORE PUSH1 0x20 DUP3 ADD SWAP1 POP SWAP3 SWAP2 POP POP JUMP JUMPDEST PUSH1 0x0 DUP2 SWAP1 POP PUSH1 0x20 DUP3 ADD SWAP1 POP SWAP2 SWAP1 POP JUMP JUMPDEST PUSH2 0x5CF DUP2 PUSH2 0x55E JUMP JUMPDEST DUP3 MSTORE POP POP JUMP JUMPDEST PUSH1 0x0 PUSH2 0x5E1 DUP4 DUP4 PUSH2 0x5C6 JUMP JUMPDEST PUSH1 0x20 DUP4 ADD SWAP1 POP SWAP3 SWAP2 POP POP JUMP JUMPDEST PUSH1 0x0 PUSH1 0x20 DUP3 ADD SWAP1 POP SWAP2 SWAP1 POP JUMP JUMPDEST PUSH1 0x0 PUSH2 0x605 DUP3 PUSH2 0x59A JUMP JUMPDEST PUSH2 0x60F DUP2 DUP6 PUSH2 0x5A5 JUMP JUMPDEST SWAP4 POP PUSH2 0x61A DUP4 PUSH2 0x5B6 JUMP JUMPDEST DUP1 PUSH1 0x0 JUMPDEST DUP4 DUP2 LT ISZERO PUSH2 0x64B JUMPI DUP2 MLOAD PUSH2 0x632 DUP9 DUP3 PUSH2 0x5D5 JUMP JUMPDEST SWAP8 POP PUSH2 0x63D DUP4 PUSH2 0x5ED JUMP JUMPDEST SWAP3 POP POP PUSH1 0x1 DUP2 ADD SWAP1 POP PUSH2 0x61E JUMP JUMPDEST POP DUP6 SWAP4 POP POP POP POP SWAP3 SWAP2 POP POP JUMP JUMPDEST PUSH1 0x0 PUSH1 0x20 DUP3 ADD SWAP1 POP DUP2 DUP2 SUB PUSH1 0x0 DUP4 ADD MSTORE PUSH2 0x672 DUP2 DUP5 PUSH2 0x5FA JUMP JUMPDEST SWAP1 POP SWAP3 SWAP2 POP POP JUMP JUMPDEST PUSH1 0x0 DUP3 DUP3 MSTORE PUSH1 0x20 DUP3 ADD SWAP1 POP SWAP3 SWAP2 POP POP JUMP JUMPDEST PUSH32 0x456E642074696D65206D75737420626520696E20746865206675747572650000 PUSH1 0x0 DUP3 ADD MSTORE POP JUMP JUMPDEST PUSH1 0x0 PUSH2 0x6C1 PUSH1 0x1E DUP4 PUSH2 0x67A JUMP JUMPDEST SWAP2 POP PUSH2 0x6CC DUP3 PUSH2 0x68B JUMP JUMPDEST PUSH1 0x20 DUP3 ADD SWAP1 POP SWAP2 SWAP1 POP JUMP JUMPDEST PUSH1 0x0 PUSH1 0x20 DUP3 ADD SWAP1 POP DUP2 DUP2 SUB PUSH1 0x0 DUP4 ADD MSTORE PUSH2 0x6F0 DUP2 PUSH2 0x6B4 JUMP JUMPDEST SWAP1 POP SWAP2 SWAP1 POP JUMP JUMPDEST PUSH1 0x0 DUP2 MLOAD SWAP1 POP SWAP2 SWAP1 POP JUMP JUMPDEST PUSH1 0x0 JUMPDEST DUP4 DUP2 LT ISZERO PUSH2 0x720 JUMPI DUP1 DUP3 ADD MLOAD DUP2 DUP5 ADD MSTORE PUSH1 0x20 DUP2 ADD SWAP1 POP PUSH2 0x705 JUMP JUMPDEST PUSH1 0x0 DUP5 DUP5 ADD MSTORE POP POP POP POP JUMP JUMPDEST PUSH1 0x0 PUSH2 0x737 DUP3 PUSH2 0x6F7 JUMP JUMPDEST PUSH2 0x741 DUP2 DUP6 PUSH2 0x67A JUMP JUMPDEST SWAP4 POP PUSH2 0x751 DUP2 DUP6 PUSH1 0x20 DUP7 ADD PUSH2 0x702 JUMP JUMPDEST PUSH2 0x75A DUP2 PUSH2 0x330 JUMP JUMPDEST DUP5 ADD SWAP2 POP POP SWAP3 SWAP2 POP POP JUMP JUMPDEST PUSH2 0x76E DUP2 PUSH2 0x46C JUMP JUMPDEST DUP3 MSTORE POP POP JUMP JUMPDEST PUSH1 0x0 PUSH1 0x80 DUP3 ADD SWAP1 POP DUP2 DUP2 SUB PUSH1 0x0 DUP4 ADD MSTORE PUSH2 0x78E DUP2 DUP8 PUSH2 0x72C JUMP JUMPDEST SWAP1 POP PUSH2 0x79D PUSH1 0x20 DUP4 ADD DUP7 PUSH2 0x765 JUMP JUMPDEST PUSH2 0x7AA PUSH1 0x40 DUP4 ADD DUP6 PUSH2 0x570 JUMP JUMPDEST PUSH2 0x7B7 PUSH1 0x60 DUP4 ADD DUP5 PUSH2 0x765 JUMP JUMPDEST SWAP6 SWAP5 POP POP POP POP POP JUMP JUMPDEST PUSH1 0x0 PUSH1 0x60 DUP3 ADD SWAP1 POP DUP2 DUP2 SUB PUSH1 0x0 DUP4 ADD MSTORE PUSH2 0x7DA DUP2 DUP7 PUSH2 0x72C JUMP JUMPDEST SWAP1 POP PUSH2 0x7E9 PUSH1 0x20 DUP4 ADD DUP6 PUSH2 0x765 JUMP JUMPDEST PUSH2 0x7F6 PUSH1 0x40 DUP4 ADD DUP5 PUSH2 0x570 JUMP JUMPDEST SWAP5 SWAP4 POP POP POP POP JUMP INVALID PUSH1 0x80 PUSH1 0x40 MSTORE CALLVALUE DUP1 ISZERO PUSH2 0x10 JUMPI PUSH1 0x0 DUP1 REVERT JUMPDEST POP PUSH1 0x40 MLOAD PUSH2 0x13A0 CODESIZE SUB DUP1 PUSH2 0x13A0 DUP4 CODECOPY DUP2 DUP2 ADD PUSH1 0x40 MSTORE DUP2 ADD SWAP1 PUSH2 0x32 SWAP2 SWAP1 PUSH2 0x2AA JUMP JUMPDEST DUP2 PUSH1 0x0 DUP1 PUSH2 0x100 EXP DUP2 SLOAD DUP2 PUSH20 0xFFFFFFFFFFFFFFFFFFFFFFFFFFFFFFFFFFFFFFFF MUL NOT AND SWAP1 DUP4 PUSH20 0xFFFFFFFFFFFFFFFFFFFFFFFFFFFFFFFFFFFFFFFF AND MUL OR SWAP1 SSTORE POP DUP4 PUSH1 0x1 SWAP1 DUP2 PUSH2 0x81 SWAP2 SWAP1 PUSH2 0x544 JUMP JUMPDEST POP DUP3 PUSH1 0x3 DUP2 SWAP1 SSTORE POP DUP1 PUSH1 0x2 DUP2 SWAP1 SSTORE POP PUSH1 0x0 PUSH1 0x5 DUP2 SWAP1 SSTORE POP POP POP POP POP PUSH2 0x616 JUMP JUMPDEST PUSH1 0x0 PUSH1 0x40 MLOAD SWAP1 POP SWAP1 JUMP JUMPDEST PUSH1 0x0 DUP1 REVERT JUMPDEST PUSH1 0x0 DUP1 REVERT JUMPDEST PUSH1 0x0 DUP1 REVERT JUMPDEST PUSH1 0x0 DUP1 REVERT JUMPDEST PUSH1 0x0 PUSH1 0x1F NOT PUSH1 0x1F DUP4 ADD AND SWAP1 POP SWAP2 SWAP1 POP JUMP JUMPDEST PUSH32 0x4E487B7100000000000000000000000000000000000000000000000000000000 PUSH1 0x0 MSTORE PUSH1 0x41 PUSH1 0x4 MSTORE PUSH1 0x24 PUSH1 0x0 REVERT JUMPDEST PUSH2 0x108 DUP3 PUSH2 0xBF JUMP JUMPDEST DUP2 ADD DUP2 DUP2 LT PUSH8 0xFFFFFFFFFFFFFFFF DUP3 GT OR ISZERO PUSH2 0x127 JUMPI PUSH2 0x126 PUSH2 0xD0 JUMP JUMPDEST JUMPDEST DUP1 PUSH1 0x40 MSTORE POP POP POP JUMP JUMPDEST PUSH1 0x0 PUSH2 0x13A PUSH2 0xA1 JUMP JUMPDEST SWAP1 POP PUSH2 0x146 DUP3 DUP3 PUSH2 0xFF JUMP JUMPDEST SWAP2 SWAP1 POP JUMP JUMPDEST PUSH1 0x0 PUSH8 0xFFFFFFFFFFFFFFFF DUP3 GT ISZERO PUSH2 0x166 JUMPI PUSH2 0x165 PUSH2 0xD0 JUMP JUMPDEST JUMPDEST PUSH2 0x16F DUP3 PUSH2 0xBF JUMP JUMPDEST SWAP1 POP PUSH1 0x20 DUP2 ADD SWAP1 POP SWAP2 SWAP1 POP JUMP JUMPDEST PUSH1 0x0 JUMPDEST DUP4 DUP2 LT ISZERO PUSH2 0x19A JUMPI DUP1 DUP3 ADD MLOAD DUP2 DUP5 ADD MSTORE PUSH1 0x20 DUP2 ADD SWAP1 POP PUSH2 0x17F JUMP JUMPDEST PUSH1 0x0 DUP5 DUP5 ADD MSTORE POP POP POP POP JUMP JUMPDEST PUSH1 0x0 PUSH2 0x1B9 PUSH2 0x1B4 DUP5 PUSH2 0x14B JUMP JUMPDEST PUSH2 0x130 JUMP JUMPDEST SWAP1 POP DUP3 DUP2 MSTORE PUSH1 0x20 DUP2 ADD DUP5 DUP5 DUP5 ADD GT ISZERO PUSH2 0x1D5 JUMPI PUSH2 0x1D4 PUSH2 0xBA JUMP JUMPDEST JUMPDEST PUSH2 0x1E0 DUP5 DUP3 DUP6 PUSH2 0x17C JUMP JUMPDEST POP SWAP4 SWAP3 POP POP POP JUMP JUMPDEST PUSH1 0x0 DUP3 PUSH1 0x1F DUP4 ADD SLT PUSH2 0x1FD JUMPI PUSH2 0x1FC PUSH2 0xB5 JUMP JUMPDEST JUMPDEST DUP2 MLOAD PUSH2 0x20D DUP5 DUP3 PUSH1 0x20 DUP7 ADD PUSH2 0x1A6 JUMP JUMPDEST SWAP2 POP POP SWAP3 SWAP2 POP POP JUMP JUMPDEST PUSH1 0x0 DUP2 SWAP1 POP SWAP2 SWAP1 POP JUMP JUMPDEST PUSH2 0x229 DUP2 PUSH2 0x216 JUMP JUMPDEST DUP2 EQ PUSH2 0x234 JUMPI PUSH1 0x0 DUP1 REVERT JUMPDEST POP JUMP JUMPDEST PUSH1 0x0 DUP2 MLOAD SWAP1 POP PUSH2 0x246 DUP2 PUSH2 0x220 JUMP JUMPDEST SWAP3 SWAP2 POP POP JUMP JUMPDEST PUSH1 0x0 PUSH20 0xFFFFFFFFFFFFFFFFFFFFFFFFFFFFFFFFFFFFFFFF DUP3 AND SWAP1 POP SWAP2 SWAP1 POP JUMP JUMPDEST PUSH1 0x0 PUSH2 0x277 DUP3 PUSH2 0x24C JUMP JUMPDEST SWAP1 POP SWAP2 SWAP1 POP JUMP JUMPDEST PUSH2 0x287 DUP2 PUSH2 0x26C JUMP JUMPDEST DUP2 EQ PUSH2 0x292 JUMPI PUSH1 0x0 DUP1 REVERT JUMPDEST POP JUMP JUMPDEST PUSH1 0x0 DUP2 MLOAD SWAP1 POP PUSH2 0x2A4 DUP2 PUSH2 0x27E JUMP JUMPDEST SWAP3 SWAP2 POP POP JUMP JUMPDEST PUSH1 0x0 DUP1 PUSH1 0x0 DUP1 PUSH1 0x80 DUP6 DUP8 SUB SLT ISZERO PUSH2 0x2C4 JUMPI PUSH2 0x2C3 PUSH2 0xAB JUMP JUMPDEST JUMPDEST PUSH1 0x0 DUP6 ADD MLOAD PUSH8 0xFFFFFFFFFFFFFFFF DUP2 GT ISZERO PUSH2 0x2E2 JUMPI PUSH2 0x2E1 PUSH2 0xB0 JUMP JUMPDEST JUMPDEST PUSH2 0x2EE DUP8 DUP3 DUP9 ADD PUSH2 0x1E8 JUMP JUMPDEST SWAP5 POP POP PUSH1 0x20 PUSH2 0x2FF DUP8 DUP3 DUP9 ADD PUSH2 0x237 JUMP JUMPDEST SWAP4 POP POP PUSH1 0x40 PUSH2 0x310 DUP8 DUP3 DUP9 ADD PUSH2 0x295 JUMP JUMPDEST SWAP3 POP POP PUSH1 0x60 PUSH2 0x321 DUP8 DUP3 DUP9 ADD PUSH2 0x237 JUMP JUMPDEST SWAP2 POP POP SWAP3 SWAP6 SWAP2 SWAP5 POP SWAP3 POP JUMP JUMPDEST PUSH1 0x0 DUP2 MLOAD SWAP1 POP SWAP2 SWAP1 POP JUMP JUMPDEST PUSH32 0x4E487B7100000000000000000000000000000000000000000000000000000000 PUSH1 0x0 MSTORE PUSH1 0x22 PUSH1 0x4 MSTORE PUSH1 0x24 PUSH1 0x0 REVERT JUMPDEST PUSH1 0x0 PUSH1 0x2 DUP3 DIV SWAP1 POP PUSH1 0x1 DUP3 AND DUP1 PUSH2 0x37F JUMPI PUSH1 0x7F DUP3 AND SWAP2 POP JUMPDEST PUSH1 0x20 DUP3 LT DUP2 SUB PUSH2 0x392 JUMPI PUSH2 0x391 PUSH2 0x338 JUMP JUMPDEST JUMPDEST POP SWAP2 SWAP1 POP JUMP JUMPDEST PUSH1 0x0 DUP2 SWAP1 POP DUP2 PUSH1 0x0 MSTORE PUSH1 0x20 PUSH1 0x0 KECCAK256 SWAP1 POP SWAP2 SWAP1 POP JUMP JUMPDEST PUSH1 0x0 PUSH1 0x20 PUSH1 0x1F DUP4 ADD DIV SWAP1 POP SWAP2 SWAP1 POP JUMP JUMPDEST PUSH1 0x0 DUP3 DUP3 SHL SWAP1 POP SWAP3 SWAP2 POP POP JUMP JUMPDEST PUSH1 0x0 PUSH1 0x8 DUP4 MUL PUSH2 0x3FA PUSH32 0xFFFFFFFFFFFFFFFFFFFFFFFFFFFFFFFFFFFFFFFFFFFFFFFFFFFFFFFFFFFFFFFF DUP3 PUSH2 0x3BD JUMP JUMPDEST PUSH2 0x404 DUP7 DUP4 PUSH2 0x3BD JUMP JUMPDEST SWAP6 POP DUP1 NOT DUP5 AND SWAP4 POP DUP1 DUP7 AND DUP5 OR SWAP3 POP POP POP SWAP4 SWAP3 POP POP POP JUMP JUMPDEST PUSH1 0x0 DUP2 SWAP1 POP SWAP2 SWAP1 POP JUMP JUMPDEST PUSH1 0x0 PUSH2 0x441 PUSH2 0x43C PUSH2 0x437 DUP5 PUSH2 0x216 JUMP JUMPDEST PUSH2 0x41C JUMP JUMPDEST PUSH2 0x216 JUMP JUMPDEST SWAP1 POP SWAP2 SWAP1 POP JUMP JUMPDEST PUSH1 0x0 DUP2 SWAP1 POP SWAP2 SWAP1 POP JUMP JUMPDEST PUSH2 0x45B DUP4 PUSH2 0x426 JUMP JUMPDEST PUSH2 0x46F PUSH2 0x467 DUP3 PUSH2 0x448 JUMP JUMPDEST DUP5 DUP5 SLOAD PUSH2 0x3CA JUMP JUMPDEST DUP3 SSTORE POP POP POP POP JUMP JUMPDEST PUSH1 0x0 SWAP1 JUMP JUMPDEST PUSH2 0x484 PUSH2 0x477 JUMP JUMPDEST PUSH2 0x48F DUP2 DUP5 DUP5 PUSH2 0x452 JUMP JUMPDEST POP POP POP JUMP JUMPDEST JUMPDEST DUP2 DUP2 LT ISZERO PUSH2 0x4B3 JUMPI PUSH2 0x4A8 PUSH1 0x0 DUP3 PUSH2 0x47C JUMP JUMPDEST PUSH1 0x1 DUP2 ADD SWAP1 POP PUSH2 0x495 JUMP JUMPDEST POP POP JUMP JUMPDEST PUSH1 0x1F DUP3 GT ISZERO PUSH2 0x4F8 JUMPI PUSH2 0x4C9 DUP2 PUSH2 0x398 JUMP JUMPDEST PUSH2 0x4D2 DUP5 PUSH2 0x3AD JUMP JUMPDEST DUP2 ADD PUSH1 0x20 DUP6 LT ISZERO PUSH2 0x4E1 JUMPI DUP2 SWAP1 POP JUMPDEST PUSH2 0x4F5 PUSH2 0x4ED DUP6 PUSH2 0x3AD JUMP JUMPDEST DUP4 ADD DUP3 PUSH2 0x494 JUMP JUMPDEST POP POP JUMPDEST POP POP POP JUMP JUMPDEST PUSH1 0x0 DUP3 DUP3 SHR SWAP1 POP SWAP3 SWAP2 POP POP JUMP JUMPDEST PUSH1 0x0 PUSH2 0x51B PUSH1 0x0 NOT DUP5 PUSH1 0x8 MUL PUSH2 0x4FD JUMP JUMPDEST NOT DUP1 DUP4 AND SWAP2 POP POP SWAP3 SWAP2 POP POP JUMP JUMPDEST PUSH1 0x0 PUSH2 0x534 DUP4 DUP4 PUSH2 0x50A JUMP JUMPDEST SWAP2 POP DUP3 PUSH1 0x2 MUL DUP3 OR SWAP1 POP SWAP3 SWAP2 POP POP JUMP JUMPDEST PUSH2 0x54D DUP3 PUSH2 0x32D JUMP JUMPDEST PUSH8 0xFFFFFFFFFFFFFFFF DUP2 GT ISZERO PUSH2 0x566 JUMPI PUSH2 0x565 PUSH2 0xD0 JUMP JUMPDEST JUMPDEST PUSH2 0x570 DUP3 SLOAD PUSH2 0x367 JUMP JUMPDEST PUSH2 0x57B DUP3 DUP3 DUP6 PUSH2 0x4B7 JUMP JUMPDEST PUSH1 0x0 PUSH1 0x20 SWAP1 POP PUSH1 0x1F DUP4 GT PUSH1 0x1 DUP2 EQ PUSH2 0x5AE JUMPI PUSH1 0x0 DUP5 ISZERO PUSH2 0x59C JUMPI DUP3 DUP8 ADD MLOAD SWAP1 POP JUMPDEST PUSH2 0x5A6 DUP6 DUP3 PUSH2 0x528 JUMP JUMPDEST DUP7 SSTORE POP PUSH2 0x60E JUMP JUMPDEST PUSH1 0x1F NOT DUP5 AND PUSH2 0x5BC DUP7 PUSH2 0x398 JUMP JUMPDEST PUSH1 0x0 JUMPDEST DUP3 DUP2 LT ISZERO PUSH2 0x5E4 JUMPI DUP5 DUP10 ADD MLOAD DUP3 SSTORE PUSH1 0x1 DUP3 ADD SWAP2 POP PUSH1 0x20 DUP6 ADD SWAP5 POP PUSH1 0x20 DUP2 ADD SWAP1 POP PUSH2 0x5BF JUMP JUMPDEST DUP7 DUP4 LT ISZERO PUSH2 0x601 JUMPI DUP5 DUP10 ADD MLOAD PUSH2 0x5FD PUSH1 0x1F DUP10 AND DUP3 PUSH2 0x50A JUMP JUMPDEST DUP4 SSTORE POP JUMPDEST PUSH1 0x1 PUSH1 0x2 DUP9 MUL ADD DUP9 SSTORE POP POP POP JUMPDEST POP POP POP POP POP POP JUMP JUMPDEST PUSH2 0xD7B DUP1 PUSH2 0x625 PUSH1 0x0 CODECOPY PUSH1 0x0 RETURN INVALID PUSH1 0x80 PUSH1 0x40 MSTORE PUSH1 0x4 CALLDATASIZE LT PUSH2 0x86 JUMPI PUSH1 0x0 CALLDATALOAD PUSH1 0xE0 SHR DUP1 PUSH4 0x91F90157 GT PUSH2 0x59 JUMPI DUP1 PUSH4 0x91F90157 EQ PUSH2 0x123 JUMPI DUP1 PUSH4 0xC5B63600 EQ PUSH2 0x14E JUMPI DUP1 PUSH4 0xD57BDE79 EQ PUSH2 0x179 JUMPI DUP1 PUSH4 0xECFC7ECC EQ PUSH2 0x1A4 JUMPI DUP1 PUSH4 0xF2A4A82E EQ PUSH2 0x1AE JUMPI PUSH2 0x86 JUMP JUMPDEST DUP1 PUSH4 0x8551A53 EQ PUSH2 0x8B JUMPI DUP1 PUSH4 0x3197CBB6 EQ PUSH2 0xB6 JUMPI DUP1 PUSH4 0x3CCFD60B EQ PUSH2 0xE1 JUMPI DUP1 PUSH4 0x8B7AFE2E EQ PUSH2 0xF8 JUMPI JUMPDEST PUSH1 0x0 DUP1 REVERT JUMPDEST CALLVALUE DUP1 ISZERO PUSH2 0x97 JUMPI PUSH1 0x0 DUP1 REVERT JUMPDEST POP PUSH2 0xA0 PUSH2 0x1D9 JUMP JUMPDEST PUSH1 0x40 MLOAD PUSH2 0xAD SWAP2 SWAP1 PUSH2 0x83C JUMP JUMPDEST PUSH1 0x40 MLOAD DUP1 SWAP2 SUB SWAP1 RETURN JUMPDEST CALLVALUE DUP1 ISZERO PUSH2 0xC2 JUMPI PUSH1 0x0 DUP1 REVERT JUMPDEST POP PUSH2 0xCB PUSH2 0x1FD JUMP JUMPDEST PUSH1 0x40 MLOAD PUSH2 0xD8 SWAP2 SWAP1 PUSH2 0x870 JUMP JUMPDEST PUSH1 0x40 MLOAD DUP1 SWAP2 SUB SWAP1 RETURN JUMPDEST CALLVALUE DUP1 ISZERO PUSH2 0xED JUMPI PUSH1 0x0 DUP1 REVERT JUMPDEST POP PUSH2 0xF6 PUSH2 0x203 JUMP JUMPDEST STOP JUMPDEST CALLVALUE DUP1 ISZERO PUSH2 0x104 JUMPI PUSH1 0x0 DUP1 REVERT JUMPDEST POP PUSH2 0x10D PUSH2 0x3EF JUMP JUMPDEST PUSH1 0x40 MLOAD PUSH2 0x11A SWAP2 SWAP1 PUSH2 0x870 JUMP JUMPDEST PUSH1 0x40 MLOAD DUP1 SWAP2 SUB SWAP1 RETURN JUMPDEST CALLVALUE DUP1 ISZERO PUSH2 0x12F JUMPI PUSH1 0x0 DUP1 REVERT JUMPDEST POP PUSH2 0x138 PUSH2 0x3F5 JUMP JUMPDEST PUSH1 0x40 MLOAD PUSH2 0x145 SWAP2 SWAP1 PUSH2 0x83C JUMP JUMPDEST PUSH1 0x40 MLOAD DUP1 SWAP2 SUB SWAP1 RETURN JUMPDEST CALLVALUE DUP1 ISZERO PUSH2 0x15A JUMPI PUSH1 0x0 DUP1 REVERT JUMPDEST POP PUSH2 0x163 PUSH2 0x41B JUMP JUMPDEST PUSH1 0x40 MLOAD PUSH2 0x170 SWAP2 SWAP1 PUSH2 0x870 JUMP JUMPDEST PUSH1 0x40 MLOAD DUP1 SWAP2 SUB SWAP1 RETURN JUMPDEST CALLVALUE DUP1 ISZERO PUSH2 0x185 JUMPI PUSH1 0x0 DUP1 REVERT JUMPDEST POP PUSH2 0x18E PUSH2 0x45D JUMP JUMPDEST PUSH1 0x40 MLOAD PUSH2 0x19B SWAP2 SWAP1 PUSH2 0x870 JUMP JUMPDEST PUSH1 0x40 MLOAD DUP1 SWAP2 SUB SWAP1 RETURN JUMPDEST PUSH2 0x1AC PUSH2 0x463 JUMP JUMPDEST STOP JUMPDEST CALLVALUE DUP1 ISZERO PUSH2 0x1BA JUMPI PUSH1 0x0 DUP1 REVERT JUMPDEST POP PUSH2 0x1C3 PUSH2 0x76D JUMP JUMPDEST PUSH1 0x40 MLOAD PUSH2 0x1D0 SWAP2 SWAP1 PUSH2 0x91B JUMP JUMPDEST PUSH1 0x40 MLOAD DUP1 SWAP2 SUB SWAP1 RETURN JUMPDEST PUSH1 0x0 DUP1 SLOAD SWAP1 PUSH2 0x100 EXP SWAP1 DIV PUSH20 0xFFFFFFFFFFFFFFFFFFFFFFFFFFFFFFFFFFFFFFFF AND DUP2 JUMP JUMPDEST PUSH1 0x2 SLOAD DUP2 JUMP JUMPDEST PUSH1 0x0 DUP1 SLOAD SWAP1 PUSH2 0x100 EXP SWAP1 DIV PUSH20 0xFFFFFFFFFFFFFFFFFFFFFFFFFFFFFFFFFFFFFFFF AND PUSH20 0xFFFFFFFFFFFFFFFFFFFFFFFFFFFFFFFFFFFFFFFF AND CALLER PUSH20 0xFFFFFFFFFFFFFFFFFFFFFFFFFFFFFFFFFFFFFFFF AND EQ PUSH2 0x291 JUMPI PUSH1 0x40 MLOAD PUSH32 0x8C379A000000000000000000000000000000000000000000000000000000000 DUP2 MSTORE PUSH1 0x4 ADD PUSH2 0x288 SWAP1 PUSH2 0x989 JUMP JUMPDEST PUSH1 0x40 MLOAD DUP1 SWAP2 SUB SWAP1 REVERT JUMPDEST PUSH1 0x2 SLOAD TIMESTAMP LT ISZERO PUSH2 0x2D6 JUMPI PUSH1 0x40 MLOAD PUSH32 0x8C379A000000000000000000000000000000000000000000000000000000000 DUP2 MSTORE PUSH1 0x4 ADD PUSH2 0x2CD SWAP1 PUSH2 0x9F5 JUMP JUMPDEST PUSH1 0x40 MLOAD DUP1 SWAP2 SUB SWAP1 REVERT JUMPDEST PUSH1 0x0 PUSH1 0x5 SLOAD GT PUSH2 0x31B JUMPI PUSH1 0x40 MLOAD PUSH32 0x8C379A000000000000000000000000000000000000000000000000000000000 DUP2 MSTORE PUSH1 0x4 ADD PUSH2 0x312 SWAP1 PUSH2 0xA61 JUMP JUMPDEST PUSH1 0x40 MLOAD DUP1 SWAP2 SUB SWAP1 REVERT JUMPDEST PUSH1 0x0 PUSH1 0x5 SLOAD SWAP1 POP PUSH1 0x0 PUSH1 0x5 DUP2 SWAP1 SSTORE POP PUSH1 0x0 DUP1 SLOAD SWAP1 PUSH2 0x100 EXP SWAP1 DIV PUSH20 0xFFFFFFFFFFFFFFFFFFFFFFFFFFFFFFFFFFFFFFFF AND PUSH20 0xFFFFFFFFFFFFFFFFFFFFFFFFFFFFFFFFFFFFFFFF AND PUSH2 0x8FC DUP3 SWAP1 DUP2 ISZERO MUL SWAP1 PUSH1 0x40 MLOAD PUSH1 0x0 PUSH1 0x40 MLOAD DUP1 DUP4 SUB DUP2 DUP6 DUP9 DUP9 CALL SWAP4 POP POP POP POP ISZERO DUP1 ISZERO PUSH2 0x390 JUMPI RETURNDATASIZE PUSH1 0x0 DUP1 RETURNDATACOPY RETURNDATASIZE PUSH1 0x0 REVERT JUMPDEST POP PUSH32 0xDAEC4582D5D9595688C8C98545FDD1C696D41C6AEAEB636737E84ED2F5C00EDA PUSH1 0x4 PUSH1 0x0 SWAP1 SLOAD SWAP1 PUSH2 0x100 EXP SWAP1 DIV PUSH20 0xFFFFFFFFFFFFFFFFFFFFFFFFFFFFFFFFFFFFFFFF AND DUP3 PUSH1 0x40 MLOAD PUSH2 0x3E4 SWAP3 SWAP2 SWAP1 PUSH2 0xA81 JUMP JUMPDEST PUSH1 0x40 MLOAD DUP1 SWAP2 SUB SWAP1 LOG1 POP JUMP JUMPDEST PUSH1 0x5 SLOAD DUP2 JUMP JUMPDEST PUSH1 0x4 PUSH1 0x0 SWAP1 SLOAD SWAP1 PUSH2 0x100 EXP SWAP1 DIV PUSH20 0xFFFFFFFFFFFFFFFFFFFFFFFFFFFFFFFFFFFFFFFF AND DUP2 JUMP JUMPDEST PUSH1 0x0 DUP1 PUSH1 0xA PUSH1 0x3 SLOAD PUSH2 0x42D SWAP2 SWAP1 PUSH2 0xB08 JUMP JUMPDEST PUSH1 0x5 SLOAD PUSH1 0x3 SLOAD PUSH2 0x43D SWAP2 SWAP1 PUSH2 0xB39 JUMP JUMPDEST PUSH1 0x5 SLOAD PUSH2 0x44A SWAP2 SWAP1 PUSH2 0xB6D JUMP JUMPDEST PUSH2 0x454 SWAP2 SWAP1 PUSH2 0xB6D JUMP JUMPDEST SWAP1 POP DUP1 SWAP2 POP POP SWAP1 JUMP JUMPDEST PUSH1 0x3 SLOAD DUP2 JUMP JUMPDEST PUSH1 0x2 SLOAD TIMESTAMP LT PUSH2 0x4A7 JUMPI PUSH1 0x40 MLOAD PUSH32 0x8C379A000000000000000000000000000000000000000000000000000000000 DUP2 MSTORE PUSH1 0x4 ADD PUSH2 0x49E SWAP1 PUSH2 0xBED JUMP JUMPDEST PUSH1 0x40 MLOAD DUP1 SWAP2 SUB SWAP1 REVERT JUMPDEST PUSH1 0x0 CALLVALUE GT PUSH2 0x4EA JUMPI PUSH1 0x40 MLOAD PUSH32 0x8C379A000000000000000000000000000000000000000000000000000000000 DUP2 MSTORE PUSH1 0x4 ADD PUSH2 0x4E1 SWAP1 PUSH2 0xC59 JUMP JUMPDEST PUSH1 0x40 MLOAD DUP1 SWAP2 SUB SWAP1 REVERT JUMPDEST PUSH1 0x0 PUSH2 0x4F4 PUSH2 0x41B JUMP JUMPDEST SWAP1 POP DUP1 CALLVALUE LT ISZERO PUSH2 0x539 JUMPI PUSH1 0x40 MLOAD PUSH32 0x8C379A000000000000000000000000000000000000000000000000000000000 DUP2 MSTORE PUSH1 0x4 ADD PUSH2 0x530 SWAP1 PUSH2 0xCC5 JUMP JUMPDEST PUSH1 0x40 MLOAD DUP1 SWAP2 SUB SWAP1 REVERT JUMPDEST PUSH1 0x0 PUSH20 0xFFFFFFFFFFFFFFFFFFFFFFFFFFFFFFFFFFFFFFFF AND PUSH1 0x4 PUSH1 0x0 SWAP1 SLOAD SWAP1 PUSH2 0x100 EXP SWAP1 DIV PUSH20 0xFFFFFFFFFFFFFFFFFFFFFFFFFFFFFFFFFFFFFFFF AND PUSH20 0xFFFFFFFFFFFFFFFFFFFFFFFFFFFFFFFFFFFFFFFF AND EQ PUSH2 0x695 JUMPI PUSH1 0x0 PUSH1 0xA PUSH1 0x3 SLOAD CALLVALUE PUSH2 0x5A1 SWAP2 SWAP1 PUSH2 0xB39 JUMP JUMPDEST PUSH2 0x5AB SWAP2 SWAP1 PUSH2 0xB08 JUMP JUMPDEST PUSH1 0x3 SLOAD PUSH2 0x5B8 SWAP2 SWAP1 PUSH2 0xB6D JUMP JUMPDEST SWAP1 POP PUSH1 0x4 PUSH1 0x0 SWAP1 SLOAD SWAP1 PUSH2 0x100 EXP SWAP1 DIV PUSH20 0xFFFFFFFFFFFFFFFFFFFFFFFFFFFFFFFFFFFFFFFF AND PUSH20 0xFFFFFFFFFFFFFFFFFFFFFFFFFFFFFFFFFFFFFFFF AND PUSH2 0x8FC DUP3 SWAP1 DUP2 ISZERO MUL SWAP1 PUSH1 0x40 MLOAD PUSH1 0x0 PUSH1 0x40 MLOAD DUP1 DUP4 SUB DUP2 DUP6 DUP9 DUP9 CALL SWAP4 POP POP POP POP ISZERO DUP1 ISZERO PUSH2 0x622 JUMPI RETURNDATASIZE PUSH1 0x0 DUP1 RETURNDATACOPY RETURNDATASIZE PUSH1 0x0 REVERT JUMPDEST POP PUSH1 0x4 PUSH1 0x0 SWAP1 SLOAD SWAP1 PUSH2 0x100 EXP SWAP1 DIV PUSH20 0xFFFFFFFFFFFFFFFFFFFFFFFFFFFFFFFFFFFFFFFF AND PUSH20 0xFFFFFFFFFFFFFFFFFFFFFFFFFFFFFFFFFFFFFFFF AND PUSH32 0xBB28353E4598C3B9199101A66E0989549B659A59A54D2C27FBB183F1932C8E6D DUP3 PUSH1 0x40 MLOAD PUSH2 0x68B SWAP2 SWAP1 PUSH2 0x870 JUMP JUMPDEST PUSH1 0x40 MLOAD DUP1 SWAP2 SUB SWAP1 LOG2 POP JUMPDEST CALLER PUSH1 0x4 PUSH1 0x0 PUSH2 0x100 EXP DUP2 SLOAD DUP2 PUSH20 0xFFFFFFFFFFFFFFFFFFFFFFFFFFFFFFFFFFFFFFFF MUL NOT AND SWAP1 DUP4 PUSH20 0xFFFFFFFFFFFFFFFFFFFFFFFFFFFFFFFFFFFFFFFF AND MUL OR SWAP1 SSTORE POP CALLVALUE PUSH1 0x3 DUP2 SWAP1 SSTORE POP PUSH1 0xA PUSH1 0x3 SLOAD PUSH2 0x6EC SWAP2 SWAP1 PUSH2 0xB08 JUMP JUMPDEST PUSH1 0x3 SLOAD CALLVALUE PUSH2 0x6FA SWAP2 SWAP1 PUSH2 0xB39 JUMP JUMPDEST PUSH2 0x704 SWAP2 SWAP1 PUSH2 0xB6D JUMP JUMPDEST PUSH1 0x5 PUSH1 0x0 DUP3 DUP3 SLOAD PUSH2 0x715 SWAP2 SWAP1 PUSH2 0xB6D JUMP JUMPDEST SWAP3 POP POP DUP2 SWAP1 SSTORE POP CALLER PUSH20 0xFFFFFFFFFFFFFFFFFFFFFFFFFFFFFFFFFFFFFFFF AND PUSH32 0xDD0B6C6A77960E2066C96171B4D7AC9E8B4C184011F38544AFA36A5BB63EC59F CALLVALUE PUSH1 0x40 MLOAD PUSH2 0x762 SWAP2 SWAP1 PUSH2 0x870 JUMP JUMPDEST PUSH1 0x40 MLOAD DUP1 SWAP2 SUB SWAP1 LOG2 POP JUMP JUMPDEST PUSH1 0x1 DUP1 SLOAD PUSH2 0x77A SWAP1 PUSH2 0xD14 JUMP JUMPDEST DUP1 PUSH1 0x1F ADD PUSH1 0x20 DUP1 SWAP2 DIV MUL PUSH1 0x20 ADD PUSH1 0x40 MLOAD SWAP1 DUP2 ADD PUSH1 0x40 MSTORE DUP1 SWAP3 SWAP2 SWAP1 DUP2 DUP2 MSTORE PUSH1 0x20 ADD DUP3 DUP1 SLOAD PUSH2 0x7A6 SWAP1 PUSH2 0xD14 JUMP JUMPDEST DUP1 ISZERO PUSH2 0x7F3 JUMPI DUP1 PUSH1 0x1F LT PUSH2 0x7C8 JUMPI PUSH2 0x100 DUP1 DUP4 SLOAD DIV MUL DUP4 MSTORE SWAP2 PUSH1 0x20 ADD SWAP2 PUSH2 0x7F3 JUMP JUMPDEST DUP3 ADD SWAP2 SWAP1 PUSH1 0x0 MSTORE PUSH1 0x20 PUSH1 0x0 KECCAK256 SWAP1 JUMPDEST DUP2 SLOAD DUP2 MSTORE SWAP1 PUSH1 0x1 ADD SWAP1 PUSH1 0x20 ADD DUP1 DUP4 GT PUSH2 0x7D6 JUMPI DUP3 SWAP1 SUB PUSH1 0x1F AND DUP3 ADD SWAP2 JUMPDEST POP POP POP POP POP DUP2 JUMP JUMPDEST PUSH1 0x0 PUSH20 0xFFFFFFFFFFFFFFFFFFFFFFFFFFFFFFFFFFFFFFFF DUP3 AND SWAP1 POP SWAP2 SWAP1 POP JUMP JUMPDEST PUSH1 0x0 PUSH2 0x826 DUP3 PUSH2 0x7FB JUMP JUMPDEST SWAP1 POP SWAP2 SWAP1 POP JUMP JUMPDEST PUSH2 0x836 DUP2 PUSH2 0x81B JUMP JUMPDEST DUP3 MSTORE POP POP JUMP JUMPDEST PUSH1 0x0 PUSH1 0x20 DUP3 ADD SWAP1 POP PUSH2 0x851 PUSH1 0x0 DUP4 ADD DUP5 PUSH2 0x82D JUMP JUMPDEST SWAP3 SWAP2 POP POP JUMP JUMPDEST PUSH1 0x0 DUP2 SWAP1 POP SWAP2 SWAP1 POP JUMP JUMPDEST PUSH2 0x86A DUP2 PUSH2 0x857 JUMP JUMPDEST DUP3 MSTORE POP POP JUMP JUMPDEST PUSH1 0x0 PUSH1 0x20 DUP3 ADD SWAP1 POP PUSH2 0x885 PUSH1 0x0 DUP4 ADD DUP5 PUSH2 0x861 JUMP JUMPDEST SWAP3 SWAP2 POP POP JUMP JUMPDEST PUSH1 0x0 DUP2 MLOAD SWAP1 POP SWAP2 SWAP1 POP JUMP JUMPDEST PUSH1 0x0 DUP3 DUP3 MSTORE PUSH1 0x20 DUP3 ADD SWAP1 POP SWAP3 SWAP2 POP POP JUMP JUMPDEST PUSH1 0x0 JUMPDEST DUP4 DUP2 LT ISZERO PUSH2 0x8C5 JUMPI DUP1 DUP3 ADD MLOAD DUP2 DUP5 ADD MSTORE PUSH1 0x20 DUP2 ADD SWAP1 POP PUSH2 0x8AA JUMP JUMPDEST PUSH1 0x0 DUP5 DUP5 ADD MSTORE POP POP POP POP JUMP JUMPDEST PUSH1 0x0 PUSH1 0x1F NOT PUSH1 0x1F DUP4 ADD AND SWAP1 POP SWAP2 SWAP1 POP JUMP JUMPDEST PUSH1 0x0 PUSH2 0x8ED DUP3 PUSH2 0x88B JUMP JUMPDEST PUSH2 0x8F7 DUP2 DUP6 PUSH2 0x896 JUMP JUMPDEST SWAP4 POP PUSH2 0x907 DUP2 DUP6 PUSH1 0x20 DUP7 ADD PUSH2 0x8A7 JUMP JUMPDEST PUSH2 0x910 DUP2 PUSH2 0x8D1 JUMP JUMPDEST DUP5 ADD SWAP2 POP POP SWAP3 SWAP2 POP POP JUMP JUMPDEST PUSH1 0x0 PUSH1 0x20 DUP3 ADD SWAP1 POP DUP2 DUP2 SUB PUSH1 0x0 DUP4 ADD MSTORE PUSH2 0x935 DUP2 DUP5 PUSH2 0x8E2 JUMP JUMPDEST SWAP1 POP SWAP3 SWAP2 POP POP JUMP JUMPDEST PUSH32 0x4F6E6C792073656C6C65722063616E2063616C6C207468697300000000000000 PUSH1 0x0 DUP3 ADD MSTORE POP JUMP JUMPDEST PUSH1 0x0 PUSH2 0x973 PUSH1 0x19 DUP4 PUSH2 0x896 JUMP JUMPDEST SWAP2 POP PUSH2 0x97E DUP3 PUSH2 0x93D JUMP JUMPDEST PUSH1 0x20 DUP3 ADD SWAP1 POP SWAP2 SWAP1 POP JUMP JUMPDEST PUSH1 0x0 PUSH1 0x20 DUP3 ADD SWAP1 POP DUP2 DUP2 SUB PUSH1 0x0 DUP4 ADD MSTORE PUSH2 0x9A2 DUP2 PUSH2 0x966 JUMP JUMPDEST SWAP1 POP SWAP2 SWAP1 POP JUMP JUMPDEST PUSH32 0x41756374696F6E206E6F742079657420656E6465640000000000000000000000 PUSH1 0x0 DUP3 ADD MSTORE POP JUMP JUMPDEST PUSH1 0x0 PUSH2 0x9DF PUSH1 0x15 DUP4 PUSH2 0x896 JUMP JUMPDEST SWAP2 POP PUSH2 0x9EA DUP3 PUSH2 0x9A9 JUMP JUMPDEST PUSH1 0x20 DUP3 ADD SWAP1 POP SWAP2 SWAP1 POP JUMP JUMPDEST PUSH1 0x0 PUSH1 0x20 DUP3 ADD SWAP1 POP DUP2 DUP2 SUB PUSH1 0x0 DUP4 ADD MSTORE PUSH2 0xA0E DUP2 PUSH2 0x9D2 JUMP JUMPDEST SWAP1 POP SWAP2 SWAP1 POP JUMP JUMPDEST PUSH32 0x4E6F7468696E6720746F20776974686472617700000000000000000000000000 PUSH1 0x0 DUP3 ADD MSTORE POP JUMP JUMPDEST PUSH1 0x0 PUSH2 0xA4B PUSH1 0x13 DUP4 PUSH2 0x896 JUMP JUMPDEST SWAP2 POP PUSH2 0xA56 DUP3 PUSH2 0xA15 JUMP JUMPDEST PUSH1 0x20 DUP3 ADD SWAP1 POP SWAP2 SWAP1 POP JUMP JUMPDEST PUSH1 0x0 PUSH1 0x20 DUP3 ADD SWAP1 POP DUP2 DUP2 SUB PUSH1 0x0 DUP4 ADD MSTORE PUSH2 0xA7A DUP2 PUSH2 0xA3E JUMP JUMPDEST SWAP1 POP SWAP2 SWAP1 POP JUMP JUMPDEST PUSH1 0x0 PUSH1 0x40 DUP3 ADD SWAP1 POP PUSH2 0xA96 PUSH1 0x0 DUP4 ADD DUP6 PUSH2 0x82D JUMP JUMPDEST PUSH2 0xAA3 PUSH1 0x20 DUP4 ADD DUP5 PUSH2 0x861 JUMP JUMPDEST SWAP4 SWAP3 POP POP POP JUMP JUMPDEST PUSH32 0x4E487B7100000000000000000000000000000000000000000000000000000000 PUSH1 0x0 MSTORE PUSH1 0x12 PUSH1 0x4 MSTORE PUSH1 0x24 PUSH1 0x0 REVERT JUMPDEST PUSH32 0x4E487B7100000000000000000000000000000000000000000000000000000000 PUSH1 0x0 MSTORE PUSH1 0x11 PUSH1 0x4 MSTORE PUSH1 0x24 PUSH1 0x0 REVERT JUMPDEST PUSH1 0x0 PUSH2 0xB13 DUP3 PUSH2 0x857 JUMP JUMPDEST SWAP2 POP PUSH2 0xB1E DUP4 PUSH2 0x857 JUMP JUMPDEST SWAP3 POP DUP3 PUSH2 0xB2E JUMPI PUSH2 0xB2D PUSH2 0xAAA JUMP JUMPDEST JUMPDEST DUP3 DUP3 DIV SWAP1 POP SWAP3 SWAP2 POP POP JUMP JUMPDEST PUSH1 0x0 PUSH2 0xB44 DUP3 PUSH2 0x857 JUMP JUMPDEST SWAP2 POP PUSH2 0xB4F DUP4 PUSH2 0x857 JUMP JUMPDEST SWAP3 POP DUP3 DUP3 SUB SWAP1 POP DUP2 DUP2 GT ISZERO PUSH2 0xB67 JUMPI PUSH2 0xB66 PUSH2 0xAD9 JUMP JUMPDEST JUMPDEST SWAP3 SWAP2 POP POP JUMP JUMPDEST PUSH1 0x0 PUSH2 0xB78 DUP3 PUSH2 0x857 JUMP JUMPDEST SWAP2 POP PUSH2 0xB83 DUP4 PUSH2 0x857 JUMP JUMPDEST SWAP3 POP DUP3 DUP3 ADD SWAP1 POP DUP1 DUP3 GT ISZERO PUSH2 0xB9B JUMPI PUSH2 0xB9A PUSH2 0xAD9 JUMP JUMPDEST JUMPDEST SWAP3 SWAP2 POP POP JUMP JUMPDEST PUSH32 0x41756374696F6E2068617320656E646564000000000000000000000000000000 PUSH1 0x0 DUP3 ADD MSTORE POP JUMP JUMPDEST PUSH1 0x0 PUSH2 0xBD7 PUSH1 0x11 DUP4 PUSH2 0x896 JUMP JUMPDEST SWAP2 POP PUSH2 0xBE2 DUP3 PUSH2 0xBA1 JUMP JUMPDEST PUSH1 0x20 DUP3 ADD SWAP1 POP SWAP2 SWAP1 POP JUMP JUMPDEST PUSH1 0x0 PUSH1 0x20 DUP3 ADD SWAP1 POP DUP2 DUP2 SUB PUSH1 0x0 DUP4 ADD MSTORE PUSH2 0xC06 DUP2 PUSH2 0xBCA JUMP JUMPDEST SWAP1 POP SWAP2 SWAP1 POP JUMP JUMPDEST PUSH32 0x426964206D7573742062652067726561746572207468616E207A65726F000000 PUSH1 0x0 DUP3 ADD MSTORE POP JUMP JUMPDEST PUSH1 0x0 PUSH2 0xC43 PUSH1 0x1D DUP4 PUSH2 0x896 JUMP JUMPDEST SWAP2 POP PUSH2 0xC4E DUP3 PUSH2 0xC0D JUMP JUMPDEST PUSH1 0x20 DUP3 ADD SWAP1 POP SWAP2 SWAP1 POP JUMP JUMPDEST PUSH1 0x0 PUSH1 0x20 DUP3 ADD SWAP1 POP DUP2 DUP2 SUB PUSH1 0x0 DUP4 ADD MSTORE PUSH2 0xC72 DUP2 PUSH2 0xC36 JUMP JUMPDEST SWAP1 POP SWAP2 SWAP1 POP JUMP JUMPDEST PUSH32 0x42696420746F6F206C6F77000000000000000000000000000000000000000000 PUSH1 0x0 DUP3 ADD MSTORE POP JUMP JUMPDEST PUSH1 0x0 PUSH2 0xCAF PUSH1 0xB DUP4 PUSH2 0x896 JUMP JUMPDEST SWAP2 POP PUSH2 0xCBA DUP3 PUSH2 0xC79 JUMP JUMPDEST PUSH1 0x20 DUP3 ADD SWAP1 POP SWAP2 SWAP1 POP JUMP JUMPDEST PUSH1 0x0 PUSH1 0x20 DUP3 ADD SWAP1 POP DUP2 DUP2 SUB PUSH1 0x0 DUP4 ADD MSTORE PUSH2 0xCDE DUP2 PUSH2 0xCA2 JUMP JUMPDEST SWAP1 POP SWAP2 SWAP1 POP JUMP JUMPDEST PUSH32 0x4E487B7100000000000000000000000000000000000000000000000000000000 PUSH1 0x0 MSTORE PUSH1 0x22 PUSH1 0x4 MSTORE PUSH1 0x24 PUSH1 0x0 REVERT JUMPDEST PUSH1 0x0 PUSH1 0x2 DUP3 DIV SWAP1 POP PUSH1 0x1 DUP3 AND DUP1 PUSH2 0xD2C JUMPI PUSH1 0x7F DUP3 AND SWAP2 POP JUMPDEST PUSH1 0x20 DUP3 LT DUP2 SUB PUSH2 0xD3F JUMPI PUSH2 0xD3E PUSH2 0xCE5 JUMP JUMPDEST JUMPDEST POP SWAP2 SWAP1 POP JUMP INVALID LOG2 PUSH5 0x6970667358 0x22 SLT KECCAK256 DUP13 LT SWAP14 REVERT 0xD8 PREVRANDAO DUP14 0xF7 DUP10 SHL 0xF8 RETURN LOG1 PUSH7 0x8C905502FF32B6 MLOAD 0xBC KECCAK256 ISZERO DUP12 NUMBER JUMPI DUP2 0xB2 0xBC PUSH22 0x64736F6C634300081C0033A26469706673582212209F GT CODECOPY 0xC1 0xB7 PUSH19 0xF206A906F03D6D9A473E758EEAA81AE5B7B10 0x4F EQ 0xEE SWAP14 MLOAD 0xEE LOG4 PUSH5 0x736F6C6343 STOP ADDMOD SHR STOP CALLER "},"methodIdentifiers":{"admin()":"f851a440","auctions(uint256)":"571a26a0","createAuction(string,uint256,uint256)":"2dbddb41","getAuctions()":"d7c06919"}},"storageLayout":{"storage":[{"astId":248,"contract":"contracts/AuctionFactory.sol:AuctionFactory","label":"admin","offset":0,"slot":"0","type":"t_address"},{"astId":251,"contract":"contracts/AuctionFactory.sol:AuctionFactory","label":"auctions","offset":0,"slot":"1","type":"t_array(t_address)dyn_storage"}],"types":{"t_address":{"encoding":"inplace","label":"address","numberOfBytes":"20"},"t_array(t_address)dyn_storage":{"base":"t_address","encoding":"dynamic_array","label":"address[]","numberOfBytes":"32"}}}}}}