{"contracts/PiggyBank.sol":{"PiggyBank":{"abi":[{"inputs":[{"internalType":"uint256","name":"_targetAmount","type":"uint256"},{"internalType":"uint256","name":"_withdrawalDate","type":"uint256"},{"internalType":"address","name":"_manager","type":"address"}],"stateMutability":"nonpayable","type":"constructor"},{"anonymous":false,"inputs":[{"indexed":true,"internalType":"address","name":"Contributor","type":"address"},{"indexed":false,"internalType":"uint256","name":"amount","type":"uint256"},{"indexed":false,"internalType":"uint256","name":"time","type":"uint256"}],"name":"Contributed","type":"event"},{"anonymous":false,"inputs":[{"indexed":false,"internalType":"uint256","name":"amount","type":"uint256"},{"indexed":false,"internalType":"uint256","name":"time","type":"uint256"}],"name":"Withdrawn","type":"event"},{"inputs":[{"internalType":"address","name":"","type":"address"}],"name":"contributions","outputs":[{"internalType":"uint256","name":"","type":"uint256"}],"stateMutability":"view","type":"function"},{"inputs":[],"name":"contributorsCount","outputs":[{"internalType":"uint8","name":"","type":"uint8"}],"stateMutability":"view","type":"function"},{"inputs":[],"name":"manager","outputs":[{"internalType":"address","name":"","type":"address"}],"stateMutability":"view","type":"function"},{"inputs":[],"name":"save","outputs":[],"stateMutability":"payable","type":"function"},{"inputs":[],"name":"targetAmount","outputs":[{"internalType":"uint256","name":"","type":"uint256"}],"stateMutability":"view","type":"function"},{"inputs":[],"name":"withdrawal","outputs":[],"stateMutability":"payable","type":"function"},{"inputs":[],"name":"withdrawalDate","outputs":[{"internalType":"uint256","name":"","type":"uint256"}],"stateMutability":"view","type":"function"}],"evm":{"bytecode":{"linkReferences":{},"object":"60a060405234801561001057600080fd5b50604051610d1e380380610d1e83398181016040528101906100329190610165565b428211610074576040517f08c379a000000000000000000000000000000000000000000000000000000000815260040161006b90610215565b60405180910390fd5b82600081905550816080818152505080600260016101000a81548173ffffffffffffffffffffffffffffffffffffffff021916908373ffffffffffffffffffffffffffffffffffffffff160217905550505050610235565b600080fd5b6000819050919050565b6100e4816100d1565b81146100ef57600080fd5b50565b600081519050610101816100db565b92915050565b600073ffffffffffffffffffffffffffffffffffffffff82169050919050565b600061013282610107565b9050919050565b61014281610127565b811461014d57600080fd5b50565b60008151905061015f81610139565b92915050565b60008060006060848603121561017e5761017d6100cc565b5b600061018c868287016100f2565b935050602061019d868287016100f2565b92505060406101ae86828701610150565b9150509250925092565b600082825260208201905092915050565b7f5749544844524157414c204d55535420424520494e2046555455524500000000600082015250565b60006101ff601c836101b8565b915061020a826101c9565b602082019050919050565b6000602082019050818103600083015261022e816101f2565b9050919050565b608051610ac061025e600039600081816101e30152818161040101526104bb0152610ac06000f3fe6080604052600436106100705760003560e01c80637569b3d71161004e5780637569b3d7146100e75780638261051f14610112578063953b8fb81461013d578063d4e932921461016857610070565b806342dad49e1461007557806342e94c901461007f578063481c6a75146100bc575b600080fd5b61007d610172565b005b34801561008b57600080fd5b506100a660048036038101906100a1919061066e565b6103ae565b6040516100b391906106b4565b60405180910390f35b3480156100c857600080fd5b506100d16103c6565b6040516100de91906106de565b60405180910390f35b3480156100f357600080fd5b506100fc6103ec565b6040516101099190610715565b60405180910390f35b34801561011e57600080fd5b506101276103ff565b60405161013491906106b4565b60405180910390f35b34801561014957600080fd5b50610152610423565b60405161015f91906106b4565b60405180910390f35b610170610429565b005b600073ffffffffffffffffffffffffffffffffffffffff163373ffffffffffffffffffffffffffffffffffffffff16036101e1576040517f08c379a00000000000000000000000000000000000000000000000000000000081526004016101d89061078d565b60405180910390fd5b7f0000000000000000000000000000000000000000000000000000000000000000421115610244576040517f08c379a000000000000000000000000000000000000000000000000000000000815260040161023b906107f9565b60405180910390fd5b60003411610287576040517f08c379a000000000000000000000000000000000000000000000000000000000815260040161027e90610865565b60405180910390fd5b6000600160003373ffffffffffffffffffffffffffffffffffffffff1673ffffffffffffffffffffffffffffffffffffffff1681526020019081526020016000205403610306576001600260008282829054906101000a900460ff166102ed91906108b4565b92506101000a81548160ff021916908360ff1602179055505b34600160003373ffffffffffffffffffffffffffffffffffffffff1673ffffffffffffffffffffffffffffffffffffffff168152602001908152602001600020600082825461035591906108e9565b925050819055503373ffffffffffffffffffffffffffffffffffffffff167ffa35a310d7113dddce1c275da946348e9aaebf9050b00b372033c4d84b0bd6eb34426040516103a492919061091d565b60405180910390a2565b60016020528060005260406000206000915090505481565b600260019054906101000a900473ffffffffffffffffffffffffffffffffffffffff1681565b600260009054906101000a900460ff1681565b7f000000000000000000000000000000000000000000000000000000000000000081565b60005481565b600260019054906101000a900473ffffffffffffffffffffffffffffffffffffffff1673ffffffffffffffffffffffffffffffffffffffff163373ffffffffffffffffffffffffffffffffffffffff16146104b9576040517f08c379a00000000000000000000000000000000000000000000000000000000081526004016104b090610992565b60405180910390fd5b7f000000000000000000000000000000000000000000000000000000000000000042101561051c576040517f08c379a0000000000000000000000000000000000000000000000000000000008152600401610513906109fe565b60405180910390fd5b600054471015610561576040517f08c379a000000000000000000000000000000000000000000000000000000000815260040161055890610a6a565b60405180910390fd5b6000479050600260019054906101000a900473ffffffffffffffffffffffffffffffffffffffff1673ffffffffffffffffffffffffffffffffffffffff166108fc829081150290604051600060405180830381858888f193505050501580156105ce573d6000803e3d6000fd5b507f0c875c8d391179c5cf7ad8303d268efd50b8beb78b671f85cd54bfb91eb8ef40814260405161060092919061091d565b60405180910390a150565b600080fd5b600073ffffffffffffffffffffffffffffffffffffffff82169050919050565b600061063b82610610565b9050919050565b61064b81610630565b811461065657600080fd5b50565b60008135905061066881610642565b92915050565b6000602082840312156106845761068361060b565b5b600061069284828501610659565b91505092915050565b6000819050919050565b6106ae8161069b565b82525050565b60006020820190506106c960008301846106a5565b92915050565b6106d881610630565b82525050565b60006020820190506106f360008301846106cf565b92915050565b600060ff82169050919050565b61070f816106f9565b82525050565b600060208201905061072a6000830184610706565b92915050565b600082825260208201905092915050565b7f554e415554484f52495a45442041444452455353000000000000000000000000600082015250565b6000610777601483610730565b915061078282610741565b602082019050919050565b600060208201905081810360008301526107a68161076a565b9050919050565b7f594f552043414e204e4f204c4f4e474552205341564500000000000000000000600082015250565b60006107e3601683610730565b91506107ee826107ad565b602082019050919050565b60006020820190508181036000830152610812816107d6565b9050919050565b7f594f55204152452042524f4b4500000000000000000000000000000000000000600082015250565b600061084f600d83610730565b915061085a82610819565b602082019050919050565b6000602082019050818103600083015261087e81610842565b9050919050565b7f4e487b7100000000000000000000000000000000000000000000000000000000600052601160045260246000fd5b60006108bf826106f9565b91506108ca836106f9565b9250828201905060ff8111156108e3576108e2610885565b5b92915050565b60006108f48261069b565b91506108ff8361069b565b925082820190508082111561091757610916610885565b5b92915050565b600060408201905061093260008301856106a5565b61093f60208301846106a5565b9392505050565b7f594f552057414e20544849454620414249203f00000000000000000000000000600082015250565b600061097c601383610730565b915061098782610946565b602082019050919050565b600060208201905081810360008301526109ab8161096f565b9050919050565b7f4e4f54205945542054494d450000000000000000000000000000000000000000600082015250565b60006109e8600c83610730565b91506109f3826109b2565b602082019050919050565b60006020820190508181036000830152610a17816109db565b9050919050565b7f54415247455420414d4f554e54204e4f54205245414348454400000000000000600082015250565b6000610a54601983610730565b9150610a5f82610a1e565b602082019050919050565b60006020820190508181036000830152610a8381610a47565b905091905056fea2646970667358221220e1b5f39e7912efcff5e6f6acee26b841481a7a5d4dc71b4fecdfb04d3126e50864736f6c634300081c0033","opcodes":"PUSH1 0xA0 PUSH1 0x40 MSTORE CALLVALUE DUP1 ISZERO PUSH2 0x10 JUMPI PUSH1 0x0 DUP1 REVERT JUMPDEST POP PUSH1 0x40 MLOAD PUSH2 0xD1E CODESIZE SUB DUP1 PUSH2 0xD1E DUP4 CODECOPY DUP2 DUP2 ADD PUSH1 0x40 MSTORE DUP2 ADD SWAP1 PUSH2 0x32 SWAP2 SWAP1 PUSH2 0x165 JUMP JUMPDEST TIMESTAMP DUP3 GT PUSH2 0x74 JUMPI PUSH1 0x40 MLOAD PUSH32 0x8C379A000000000000000000000000000000000000000000000000000000000 DUP2 MSTORE PUSH1 0x4 ADD PUSH2 0x6B SWAP1 PUSH2 0x215 JUMP JUMPDEST PUSH1 0x40 MLOAD DUP1 SWAP2 SUB SWAP1 REVERT JUMPDEST DUP3 PUSH1 0x0 DUP2 SWAP1 SSTORE POP DUP2 PUSH1 0x80 DUP2 DUP2 MSTORE POP POP DUP1 PUSH1 0x2 PUSH1 0x1 PUSH2 0x100 EXP DUP2 SLOAD DUP2 PUSH20 0xFFFFFFFFFFFFFFFFFFFFFFFFFFFFFFFFFFFFFFFF MUL NOT AND SWAP1 DUP4 PUSH20 0xFFFFFFFFFFFFFFFFFFFFFFFFFFFFFFFFFFFFFFFF AND MUL OR SWAP1 SSTORE POP POP POP POP PUSH2 0x235 JUMP JUMPDEST PUSH1 0x0 DUP1 REVERT JUMPDEST PUSH1 0x0 DUP2 SWAP1 POP SWAP2 SWAP1 POP JUMP JUMPDEST PUSH2 0xE4 DUP2 PUSH2 0xD1 JUMP JUMPDEST DUP2 EQ PUSH2 0xEF JUMPI PUSH1 0x0 DUP1 REVERT JUMPDEST POP JUMP JUMPDEST PUSH1 0x0 DUP2 MLOAD SWAP1 POP PUSH2 0x101 DUP2 PUSH2 0xDB JUMP JUMPDEST SWAP3 SWAP2 POP POP JUMP JUMPDEST PUSH1 0x0 PUSH20 0xFFFFFFFFFFFFFFFFFFFFFFFFFFFFFFFFFFFFFFFF DUP3 AND SWAP1 POP SWAP2 SWAP1 POP JUMP JUMPDEST PUSH1 0x0 PUSH2 0x132 DUP3 PUSH2 0x107 JUMP JUMPDEST SWAP1 POP SWAP2 SWAP1 POP JUMP JUMPDEST PUSH2 0x142 DUP2 PUSH2 0x127 JUMP JUMPDEST DUP2 EQ PUSH2 0x14D JUMPI PUSH1 0x0 DUP1 REVERT JUMPDEST POP JUMP JUMPDEST PUSH1 0x0 DUP2 MLOAD SWAP1 POP PUSH2 0x15F DUP2 PUSH2 0x139 JUMP JUMPDEST SWAP3 SWAP2 POP POP JUMP JUMPDEST PUSH1 0x0 DUP1 PUSH1 0x0 PUSH1 0x60 DUP5 DUP7 SUB SLT ISZERO PUSH2 0x17E JUMPI PUSH2 0x17D PUSH2 0xCC JUMP JUMPDEST JUMPDEST PUSH1 0x0 PUSH2 0x18C DUP7 DUP3 DUP8 ADD PUSH2 0xF2 JUMP JUMPDEST SWAP4 POP POP PUSH1 0x20 PUSH2 0x19D DUP7 DUP3 DUP8 ADD PUSH2 0xF2 JUMP JUMPDEST SWAP3 POP POP PUSH1 0x40 PUSH2 0x1AE DUP7 DUP3 DUP8 ADD PUSH2 0x150 JUMP JUMPDEST SWAP2 POP POP SWAP3 POP SWAP3 POP SWAP3 JUMP JUMPDEST PUSH1 0x0 DUP3 DUP3 MSTORE PUSH1 0x20 DUP3 ADD SWAP1 POP SWAP3 SWAP2 POP POP JUMP JUMPDEST PUSH32 0x5749544844524157414C204D55535420424520494E2046555455524500000000 PUSH1 0x0 DUP3 ADD MSTORE POP JUMP JUMPDEST PUSH1 0x0 PUSH2 0x1FF PUSH1 0x1C DUP4 PUSH2 0x1B8 JUMP JUMPDEST SWAP2 POP PUSH2 0x20A DUP3 PUSH2 0x1C9 JUMP JUMPDEST PUSH1 0x20 DUP3 ADD SWAP1 POP SWAP2 SWAP1 POP JUMP JUMPDEST PUSH1 0x0 PUSH1 0x20 DUP3 ADD SWAP1 POP DUP2 DUP2 SUB PUSH1 0x0 DUP4 ADD MSTORE PUSH2 0x22E DUP2 PUSH2 0x1F2 JUMP JUMPDEST SWAP1 POP SWAP2 SWAP1 POP JUMP JUMPDEST PUSH1 0x80 MLOAD PUSH2 0xAC0 PUSH2 0x25E PUSH1 0x0 CODECOPY PUSH1 0x0 DUP2 DUP2 PUSH2 0x1E3 ADD MSTORE DUP2 DUP2 PUSH2 0x401 ADD MSTORE PUSH2 0x4BB ADD MSTORE PUSH2 0xAC0 PUSH1 0x0 RETURN INVALID PUSH1 0x80 PUSH1 0x40 MSTORE PUSH1 0x4 CALLDATASIZE LT PUSH2 0x70 JUMPI PUSH1 0x0 CALLDATALOAD PUSH1 0xE0 SHR DUP1 PUSH4 0x7569B3D7 GT PUSH2 0x4E JUMPI DUP1 PUSH4 0x7569B3D7 EQ PUSH2 0xE7 JUMPI DUP1 PUSH4 0x8261051F EQ PUSH2 0x112 JUMPI DUP1 PUSH4 0x953B8FB8 EQ PUSH2 0x13D JUMPI DUP1 PUSH4 0xD4E93292 EQ PUSH2 0x168 JUMPI PUSH2 0x70 JUMP JUMPDEST DUP1 PUSH4 0x42DAD49E EQ PUSH2 0x75 JUMPI DUP1 PUSH4 0x42E94C90 EQ PUSH2 0x7F JUMPI DUP1 PUSH4 0x481C6A75 EQ PUSH2 0xBC JUMPI JUMPDEST PUSH1 0x0 DUP1 REVERT JUMPDEST PUSH2 0x7D PUSH2 0x172 JUMP JUMPDEST STOP JUMPDEST CALLVALUE DUP1 ISZERO PUSH2 0x8B JUMPI PUSH1 0x0 DUP1 REVERT JUMPDEST POP PUSH2 0xA6 PUSH1 0x4 DUP1 CALLDATASIZE SUB DUP2 ADD SWAP1 PUSH2 0xA1 SWAP2 SWAP1 PUSH2 0x66E JUMP JUMPDEST PUSH2 0x3AE JUMP JUMPDEST PUSH1 0x40 MLOAD PUSH2 0xB3 SWAP2 SWAP1 PUSH2 0x6B4 JUMP JUMPDEST PUSH1 0x40 MLOAD DUP1 SWAP2 SUB SWAP1 RETURN JUMPDEST CALLVALUE DUP1 ISZERO PUSH2 0xC8 JUMPI PUSH1 0x0 DUP1 REVERT JUMPDEST POP PUSH2 0xD1 PUSH2 0x3C6 JUMP JUMPDEST PUSH1 0x40 MLOAD PUSH2 0xDE SWAP2 SWAP1 PUSH2 0x6DE JUMP JUMPDEST PUSH1 0x40 MLOAD DUP1 SWAP2 SUB SWAP1 RETURN JUMPDEST CALLVALUE DUP1 ISZERO PUSH2 0xF3 JUMPI PUSH1 0x0 DUP1 REVERT JUMPDEST POP PUSH2 0xFC PUSH2 0x3EC JUMP JUMPDEST PUSH1 0x40 MLOAD PUSH2 0x109 SWAP2 SWAP1 PUSH2 0x715 JUMP JUMPDEST PUSH1 0x40 MLOAD DUP1 SWAP2 SUB SWAP1 RETURN JUMPDEST CALLVALUE DUP1 ISZERO PUSH2 0x11E JUMPI PUSH1 0x0 DUP1 REVERT JUMPDEST POP PUSH2 0x127 PUSH2 0x3FF JUMP JUMPDEST PUSH1 0x40 MLOAD PUSH2 0x134 SWAP2 SWAP1 PUSH2 0x6B4 JUMP JUMPDEST PUSH1 0x40 MLOAD DUP1 SWAP2 SUB SWAP1 RETURN JUMPDEST CALLVALUE DUP1 ISZERO PUSH2 0x149 JUMPI PUSH1 0x0 DUP1 REVERT JUMPDEST POP PUSH2 0x152 PUSH2 0x423 JUMP JUMPDEST PUSH1 0x40 MLOAD PUSH2 0x15F SWAP2 SWAP1 PUSH2 0x6B4 JUMP JUMPDEST PUSH1 0x40 MLOAD DUP1 SWAP2 SUB SWAP1 RETURN JUMPDEST PUSH2 0x170 PUSH2 0x429 JUMP JUMPDEST STOP JUMPDEST PUSH1 0x0 PUSH20 0xFFFFFFFFFFFFFFFFFFFFFFFFFFFFFFFFFFFFFFFF AND CALLER PUSH20 0xFFFFFFFFFFFFFFFFFFFFFFFFFFFFFFFFFFFFFFFF AND SUB PUSH2 0x1E1 JUMPI PUSH1 0x40 MLOAD PUSH32 0x8C379A000000000000000000000000000000000000000000000000000000000 DUP2 MSTORE PUSH1 0x4 ADD PUSH2 0x1D8 SWAP1 PUSH2 0x78D JUMP JUMPDEST PUSH1 0x40 MLOAD DUP1 SWAP2 SUB SWAP1 REVERT JUMPDEST PUSH32 0x0 TIMESTAMP GT ISZERO PUSH2 0x244 JUMPI PUSH1 0x40 MLOAD PUSH32 0x8C379A000000000000000000000000000000000000000000000000000000000 DUP2 MSTORE PUSH1 0x4 ADD PUSH2 0x23B SWAP1 PUSH2 0x7F9 JUMP JUMPDEST PUSH1 0x40 MLOAD DUP1 SWAP2 SUB SWAP1 REVERT JUMPDEST PUSH1 0x0 CALLVALUE GT PUSH2 0x287 JUMPI PUSH1 0x40 MLOAD PUSH32 0x8C379A000000000000000000000000000000000000000000000000000000000 DUP2 MSTORE PUSH1 0x4 ADD PUSH2 0x27E SWAP1 PUSH2 0x865 JUMP JUMPDEST PUSH1 0x40 MLOAD DUP1 SWAP2 SUB SWAP1 REVERT JUMPDEST PUSH1 0x0 PUSH1 0x1 PUSH1 0x0 CALLER PUSH20 0xFFFFFFFFFFFFFFFFFFFFFFFFFFFFFFFFFFFFFFFF AND PUSH20 0xFFFFFFFFFFFFFFFFFFFFFFFFFFFFFFFFFFFFFFFF AND DUP2 MSTORE PUSH1 0x20 ADD SWAP1 DUP2 MSTORE PUSH1 0x20 ADD PUSH1 0x0 KECCAK256 SLOAD SUB PUSH2 0x306 JUMPI PUSH1 0x1 PUSH1 0x2 PUSH1 0x0 DUP3 DUP3 DUP3 SWAP1 SLOAD SWAP1 PUSH2 0x100 EXP SWAP1 DIV PUSH1 0xFF AND PUSH2 0x2ED SWAP2 SWAP1 PUSH2 0x8B4 JUMP JUMPDEST SWAP3 POP PUSH2 0x100 EXP DUP2 SLOAD DUP2 PUSH1 0xFF MUL NOT AND SWAP1 DUP4 PUSH1 0xFF AND MUL OR SWAP1 SSTORE POP JUMPDEST CALLVALUE PUSH1 0x1 PUSH1 0x0 CALLER PUSH20 0xFFFFFFFFFFFFFFFFFFFFFFFFFFFFFFFFFFFFFFFF AND PUSH20 0xFFFFFFFFFFFFFFFFFFFFFFFFFFFFFFFFFFFFFFFF AND DUP2 MSTORE PUSH1 0x20 ADD SWAP1 DUP2 MSTORE PUSH1 0x20 ADD PUSH1 0x0 KECCAK256 PUSH1 0x0 DUP3 DUP3 SLOAD PUSH2 0x355 SWAP2 SWAP1 PUSH2 0x8E9 JUMP JUMPDEST SWAP3 POP POP DUP2 SWAP1 SSTORE POP CALLER PUSH20 0xFFFFFFFFFFFFFFFFFFFFFFFFFFFFFFFFFFFFFFFF AND PUSH32 0xFA35A310D7113DDDCE1C275DA946348E9AAEBF9050B00B372033C4D84B0BD6EB CALLVALUE TIMESTAMP PUSH1 0x40 MLOAD PUSH2 0x3A4 SWAP3 SWAP2 SWAP1 PUSH2 0x91D JUMP JUMPDEST PUSH1 0x40 MLOAD DUP1 SWAP2 SUB SWAP1 LOG2 JUMP JUMPDEST PUSH1 0x1 PUSH1 0x20 MSTORE DUP1 PUSH1 0x0 MSTORE PUSH1 0x40 PUSH1 0x0 KECCAK256 PUSH1 0x0 SWAP2 POP SWAP1 POP SLOAD DUP2 JUMP JUMPDEST PUSH1 0x2 PUSH1 0x1 SWAP1 SLOAD SWAP1 PUSH2 0x100 EXP SWAP1 DIV PUSH20 0xFFFFFFFFFFFFFFFFFFFFFFFFFFFFFFFFFFFFFFFF AND DUP2 JUMP JUMPDEST PUSH1 0x2 PUSH1 0x0 SWAP1 SLOAD SWAP1 PUSH2 0x100 EXP SWAP1 DIV PUSH1 0xFF AND DUP2 JUMP JUMPDEST PUSH32 0x0 DUP2 JUMP JUMPDEST PUSH1 0x0 SLOAD DUP2 JUMP JUMPDEST PUSH1 0x2 PUSH1 0x1 SWAP1 SLOAD SWAP1 PUSH2 0x100 EXP SWAP1 DIV PUSH20 0xFFFFFFFFFFFFFFFFFFFFFFFFFFFFFFFFFFFFFFFF AND PUSH20 0xFFFFFFFFFFFFFFFFFFFFFFFFFFFFFFFFFFFFFFFF AND CALLER PUSH20 0xFFFFFFFFFFFFFFFFFFFFFFFFFFFFFFFFFFFFFFFF AND EQ PUSH2 0x4B9 JUMPI PUSH1 0x40 MLOAD PUSH32 0x8C379A000000000000000000000000000000000000000000000000000000000 DUP2 MSTORE PUSH1 0x4 ADD PUSH2 0x4B0 SWAP1 PUSH2 0x992 JUMP JUMPDEST PUSH1 0x40 MLOAD DUP1 SWAP2 SUB SWAP1 REVERT JUMPDEST PUSH32 0x0 TIMESTAMP LT ISZERO PUSH2 0x51C JUMPI PUSH1 0x40 MLOAD PUSH32 0x8C379A000000000000000000000000000000000000000000000000000000000 DUP2 MSTORE PUSH1 0x4 ADD PUSH2 0x513 SWAP1 PUSH2 0x9FE JUMP JUMPDEST PUSH1 0x40 MLOAD DUP1 SWAP2 SUB SWAP1 REVERT JUMPDEST PUSH1 0x0 SLOAD SELFBALANCE LT ISZERO PUSH2 0x561 JUMPI PUSH1 0x40 MLOAD PUSH32 0x8C379A000000000000000000000000000000000000000000000000000000000 DUP2 MSTORE PUSH1 0x4 ADD PUSH2 0x558 SWAP1 PUSH2 0xA6A JUMP JUMPDEST PUSH1 0x40 MLOAD DUP1 SWAP2 SUB SWAP1 REVERT JUMPDEST PUSH1 0x0 SELFBALANCE SWAP1 POP PUSH1 0x2 PUSH1 0x1 SWAP1 SLOAD SWAP1 PUSH2 0x100 EXP SWAP1 DIV PUSH20 0xFFFFFFFFFFFFFFFFFFFFFFFFFFFFFFFFFFFFFFFF AND PUSH20 0xFFFFFFFFFFFFFFFFFFFFFFFFFFFFFFFFFFFFFFFF AND PUSH2 0x8FC DUP3 SWAP1 DUP2 ISZERO MUL SWAP1 PUSH1 0x40 MLOAD PUSH1 0x0 PUSH1 0x40 MLOAD DUP1 DUP4 SUB DUP2 DUP6 DUP9 DUP9 CALL SWAP4 POP POP POP POP ISZERO DUP1 ISZERO PUSH2 0x5CE JUMPI RETURNDATASIZE PUSH1 0x0 DUP1 RETURNDATACOPY RETURNDATASIZE PUSH1 0x0 REVERT JUMPDEST POP PUSH32 0xC875C8D391179C5CF7AD8303D268EFD50B8BEB78B671F85CD54BFB91EB8EF40 DUP2 TIMESTAMP PUSH1 0x40 MLOAD PUSH2 0x600 SWAP3 SWAP2 SWAP1 PUSH2 0x91D JUMP JUMPDEST PUSH1 0x40 MLOAD DUP1 SWAP2 SUB SWAP1 LOG1 POP JUMP JUMPDEST PUSH1 0x0 DUP1 REVERT JUMPDEST PUSH1 0x0 PUSH20 0xFFFFFFFFFFFFFFFFFFFFFFFFFFFFFFFFFFFFFFFF DUP3 AND SWAP1 POP SWAP2 SWAP1 POP JUMP JUMPDEST PUSH1 0x0 PUSH2 0x63B DUP3 PUSH2 0x610 JUMP JUMPDEST SWAP1 POP SWAP2 SWAP1 POP JUMP JUMPDEST PUSH2 0x64B DUP2 PUSH2 0x630 JUMP JUMPDEST DUP2 EQ PUSH2 0x656 JUMPI PUSH1 0x0 DUP1 REVERT JUMPDEST POP JUMP JUMPDEST PUSH1 0x0 DUP2 CALLDATALOAD SWAP1 POP PUSH2 0x668 DUP2 PUSH2 0x642 JUMP JUMPDEST SWAP3 SWAP2 POP POP JUMP JUMPDEST PUSH1 0x0 PUSH1 0x20 DUP3 DUP5 SUB SLT ISZERO PUSH2 0x684 JUMPI PUSH2 0x683 PUSH2 0x60B JUMP JUMPDEST JUMPDEST PUSH1 0x0 PUSH2 0x692 DUP5 DUP3 DUP6 ADD PUSH2 0x659 JUMP JUMPDEST SWAP2 POP POP SWAP3 SWAP2 POP POP JUMP JUMPDEST PUSH1 0x0 DUP2 SWAP1 POP SWAP2 SWAP1 POP JUMP JUMPDEST PUSH2 0x6AE DUP2 PUSH2 0x69B JUMP JUMPDEST DUP3 MSTORE POP POP JUMP JUMPDEST PUSH1 0x0 PUSH1 0x20 DUP3 ADD SWAP1 POP PUSH2 0x6C9 PUSH1 0x0 DUP4 ADD DUP5 PUSH2 0x6A5 JUMP JUMPDEST SWAP3 SWAP2 POP POP JUMP JUMPDEST PUSH2 0x6D8 DUP2 PUSH2 0x630 JUMP JUMPDEST DUP3 MSTORE POP POP JUMP JUMPDEST PUSH1 0x0 PUSH1 0x20 DUP3 ADD SWAP1 POP PUSH2 0x6F3 PUSH1 0x0 DUP4 ADD DUP5 PUSH2 0x6CF JUMP JUMPDEST SWAP3 SWAP2 POP POP JUMP JUMPDEST PUSH1 0x0 PUSH1 0xFF DUP3 AND SWAP1 POP SWAP2 SWAP1 POP JUMP JUMPDEST PUSH2 0x70F DUP2 PUSH2 0x6F9 JUMP JUMPDEST DUP3 MSTORE POP POP JUMP JUMPDEST PUSH1 0x0 PUSH1 0x20 DUP3 ADD SWAP1 POP PUSH2 0x72A PUSH1 0x0 DUP4 ADD DUP5 PUSH2 0x706 JUMP JUMPDEST SWAP3 SWAP2 POP POP JUMP JUMPDEST PUSH1 0x0 DUP3 DUP3 MSTORE PUSH1 0x20 DUP3 ADD SWAP1 POP SWAP3 SWAP2 POP POP JUMP JUMPDEST PUSH32 0x554E415554484F52495A45442041444452455353000000000000000000000000 PUSH1 0x0 DUP3 ADD MSTORE POP JUMP JUMPDEST PUSH1 0x0 PUSH2 0x777 PUSH1 0x14 DUP4 PUSH2 0x730 JUMP JUMPDEST SWAP2 POP PUSH2 0x782 DUP3 PUSH2 0x741 JUMP JUMPDEST PUSH1 0x20 DUP3 ADD SWAP1 POP SWAP2 SWAP1 POP JUMP JUMPDEST PUSH1 0x0 PUSH1 0x20 DUP3 ADD SWAP1 POP DUP2 DUP2 SUB PUSH1 0x0 DUP4 ADD MSTORE PUSH2 0x7A6 DUP2 PUSH2 0x76A JUMP JUMPDEST SWAP1 POP SWAP2 SWAP1 POP JUMP JUMPDEST PUSH32 0x594F552043414E204E4F204C4F4E474552205341564500000000000000000000 PUSH1 0x0 DUP3 ADD MSTORE POP JUMP JUMPDEST PUSH1 0x0 PUSH2 0x7E3 PUSH1 0x16 DUP4 PUSH2 0x730 JUMP JUMPDEST SWAP2 POP PUSH2 0x7EE DUP3 PUSH2 0x7AD JUMP JUMPDEST PUSH1 0x20 DUP3 ADD SWAP1 POP SWAP2 SWAP1 POP JUMP JUMPDEST PUSH1 0x0 PUSH1 0x20 DUP3 ADD SWAP1 POP DUP2 DUP2 SUB PUSH1 0x0 DUP4 ADD MSTORE PUSH2 0x812 DUP2 PUSH2 0x7D6 JUMP JUMPDEST SWAP1 POP SWAP2 SWAP1 POP JUMP JUMPDEST PUSH32 0x594F55204152452042524F4B4500000000000000000000000000000000000000 PUSH1 0x0 DUP3 ADD MSTORE POP JUMP JUMPDEST PUSH1 0x0 PUSH2 0x84F PUSH1 0xD DUP4 PUSH2 0x730 JUMP JUMPDEST SWAP2 POP PUSH2 0x85A DUP3 PUSH2 0x819 JUMP JUMPDEST PUSH1 0x20 DUP3 ADD SWAP1 POP SWAP2 SWAP1 POP JUMP JUMPDEST PUSH1 0x0 PUSH1 0x20 DUP3 ADD SWAP1 POP DUP2 DUP2 SUB PUSH1 0x0 DUP4 ADD MSTORE PUSH2 0x87E DUP2 PUSH2 0x842 JUMP JUMPDEST SWAP1 POP SWAP2 SWAP1 POP JUMP JUMPDEST PUSH32 0x4E487B7100000000000000000000000000000000000000000000000000000000 PUSH1 0x0 MSTORE PUSH1 0x11 PUSH1 0x4 MSTORE PUSH1 0x24 PUSH1 0x0 REVERT JUMPDEST PUSH1 0x0 PUSH2 0x8BF DUP3 PUSH2 0x6F9 JUMP JUMPDEST SWAP2 POP PUSH2 0x8CA DUP4 PUSH2 0x6F9 JUMP JUMPDEST SWAP3 POP DUP3 DUP3 ADD SWAP1 POP PUSH1 0xFF DUP2 GT ISZERO PUSH2 0x8E3 JUMPI PUSH2 0x8E2 PUSH2 0x885 JUMP JUMPDEST JUMPDEST SWAP3 SWAP2 POP POP JUMP JUMPDEST PUSH1 0x0 PUSH2 0x8F4 DUP3 PUSH2 0x69B JUMP JUMPDEST SWAP2 POP PUSH2 0x8FF DUP4 PUSH2 0x69B JUMP JUMPDEST SWAP3 POP DUP3 DUP3 ADD SWAP1 POP DUP1 DUP3 GT ISZERO PUSH2 0x917 JUMPI PUSH2 0x916 PUSH2 0x885 JUMP JUMPDEST JUMPDEST SWAP3 SWAP2 POP POP JUMP JUMPDEST PUSH1 0x0 PUSH1 0x40 DUP3 ADD SWAP1 POP PUSH2 0x932 PUSH1 0x0 DUP4 ADD DUP6 PUSH2 0x6A5 JUMP JUMPDEST PUSH2 0x93F PUSH1 0x20 DUP4 ADD DUP5 PUSH2 0x6A5 JUMP JUMPDEST SWAP4 SWAP3 POP POP POP JUMP JUMPDEST PUSH32 0x594F552057414E20544849454620414249203F00000000000000000000000000 PUSH1 0x0 DUP3 ADD MSTORE POP JUMP JUMPDEST PUSH1 0x0 PUSH2 0x97C PUSH1 0x13 DUP4 PUSH2 0x730 JUMP JUMPDEST SWAP2 POP PUSH2 0x987 DUP3 PUSH2 0x946 JUMP JUMPDEST PUSH1 0x20 DUP3 ADD SWAP1 POP SWAP2 SWAP1 POP JUMP JUMPDEST PUSH1 0x0 PUSH1 0x20 DUP3 ADD SWAP1 POP DUP2 DUP2 SUB PUSH1 0x0 DUP4 ADD MSTORE PUSH2 0x9AB DUP2 PUSH2 0x96F JUMP JUMPDEST SWAP1 POP SWAP2 SWAP1 POP JUMP JUMPDEST PUSH32 0x4E4F54205945542054494D450000000000000000000000000000000000000000 PUSH1 0x0 DUP3 ADD MSTORE POP JUMP JUMPDEST PUSH1 0x0 PUSH2 0x9E8 PUSH1 0xC DUP4 PUSH2 0x730 JUMP JUMPDEST SWAP2 POP PUSH2 0x9F3 DUP3 PUSH2 0x9B2 JUMP JUMPDEST PUSH1 0x20 DUP3 ADD SWAP1 POP SWAP2 SWAP1 POP JUMP JUMPDEST PUSH1 0x0 PUSH1 0x20 DUP3 ADD SWAP1 POP DUP2 DUP2 SUB PUSH1 0x0 DUP4 ADD MSTORE PUSH2 0xA17 DUP2 PUSH2 0x9DB JUMP JUMPDEST SWAP1 POP SWAP2 SWAP1 POP JUMP JUMPDEST PUSH32 0x54415247455420414D4F554E54204E4F54205245414348454400000000000000 PUSH1 0x0 DUP3 ADD MSTORE POP JUMP JUMPDEST PUSH1 0x0 PUSH2 0xA54 PUSH1 0x19 DUP4 PUSH2 0x730 JUMP JUMPDEST SWAP2 POP PUSH2 0xA5F DUP3 PUSH2 0xA1E JUMP JUMPDEST PUSH1 0x20 DUP3 ADD SWAP1 POP SWAP2 SWAP1 POP JUMP JUMPDEST PUSH1 0x0 PUSH1 0x20 DUP3 ADD SWAP1 POP DUP2 DUP2 SUB PUSH1 0x0 DUP4 ADD MSTORE PUSH2 0xA83 DUP2 PUSH2 0xA47 JUMP JUMPDEST SWAP1 POP SWAP2 SWAP1 POP JUMP INVALID LOG2 PUSH5 0x6970667358 0x22 SLT KECCAK256 0xE1 0xB5 RETURN SWAP15 PUSH26 0x12EFCFF5E6F6ACEE26B841481A7A5D4DC71B4FECDFB04D3126E5 ADDMOD PUSH5 0x736F6C6343 STOP ADDMOD SHR STOP CALLER "},"methodIdentifiers":{"contributions(address)":"42e94c90","contributorsCount()":"7569b3d7","manager()":"481c6a75","save()":"42dad49e","targetAmount()":"953b8fb8","withdrawal()":"d4e93292","withdrawalDate()":"8261051f"}}}}}