{"contracts/EventContract.sol":{"EventContract":{"abi":[{"inputs":[{"internalType":"address","name":"_ticketFactory","type":"address"}],"stateMutability":"nonpayable","type":"constructor"},{"anonymous":false,"inputs":[{"indexed":true,"internalType":"uint256","name":"eventId","type":"uint256"},{"indexed":true,"internalType":"address","name":"organizer","type":"address"}],"name":"EventCreated","type":"event"},{"anonymous":false,"inputs":[{"indexed":true,"internalType":"address","name":"user","type":"address"},{"indexed":true,"internalType":"uint256","name":"eventId","type":"uint256"}],"name":"GuestCheckedIn","type":"event"},{"anonymous":false,"inputs":[{"indexed":true,"internalType":"address","name":"user","type":"address"},{"indexed":true,"internalType":"uint256","name":"eventId","type":"uint256"},{"indexed":false,"internalType":"uint256","name":"ticketId","type":"uint256"}],"name":"TicketMinted","type":"event"},{"inputs":[{"internalType":"uint256","name":"_eventId","type":"uint256"}],"name":"checkIn","outputs":[],"stateMutability":"nonpayable","type":"function"},{"inputs":[{"internalType":"string","name":"_title","type":"string"},{"internalType":"string","name":"_desc","type":"string"},{"internalType":"uint256","name":"_startDate","type":"uint256"},{"internalType":"uint256","name":"_endDate","type":"uint256"},{"internalType":"enum EventContract.EventType","name":"_eventType","type":"uint8"},{"internalType":"uint32","name":"_egc","type":"uint32"},{"internalType":"string","name":"_ticketName","type":"string"},{"internalType":"string","name":"_ticketSymbol","type":"string"}],"name":"createEvent","outputs":[],"stateMutability":"nonpayable","type":"function"},{"inputs":[],"name":"eventCount","outputs":[{"internalType":"uint256","name":"","type":"uint256"}],"stateMutability":"view","type":"function"},{"inputs":[{"internalType":"uint256","name":"","type":"uint256"}],"name":"events","outputs":[{"internalType":"string","name":"title","type":"string"},{"internalType":"string","name":"description","type":"string"},{"internalType":"uint256","name":"startDate","type":"uint256"},{"internalType":"uint256","name":"endDate","type":"uint256"},{"internalType":"enum EventContract.EventType","name":"eventType","type":"uint8"},{"internalType":"uint32","name":"expectedGuestCount","type":"uint32"},{"internalType":"uint32","name":"registeredGuestCount","type":"uint32"},{"internalType":"uint32","name":"attendedGuestCount","type":"uint32"},{"internalType":"address","name":"organizer","type":"address"},{"internalType":"address","name":"ticketAddress","type":"address"}],"stateMutability":"view","type":"function"},{"inputs":[{"internalType":"address","name":"","type":"address"},{"internalType":"uint256","name":"","type":"uint256"}],"name":"hasCheckedIn","outputs":[{"internalType":"bool","name":"","type":"bool"}],"stateMutability":"view","type":"function"},{"inputs":[{"internalType":"address","name":"","type":"address"},{"internalType":"uint256","name":"","type":"uint256"}],"name":"hasRegistered","outputs":[{"internalType":"bool","name":"","type":"bool"}],"stateMutability":"view","type":"function"},{"inputs":[{"internalType":"uint256","name":"_eventId","type":"uint256"}],"name":"registerForEvent","outputs":[],"stateMutability":"nonpayable","type":"function"},{"inputs":[],"name":"ticketFactory","outputs":[{"internalType":"contract TicketFactory","name":"","type":"address"}],"stateMutability":"view","type":"function"}],"evm":{"bytecode":{"linkReferences":{},"object":"608060405234801561001057600080fd5b50604051611ed2380380611ed2833981810160405281019061003291906100db565b806000806101000a81548173ffffffffffffffffffffffffffffffffffffffff021916908373ffffffffffffffffffffffffffffffffffffffff16021790555050610108565b600080fd5b600073ffffffffffffffffffffffffffffffffffffffff82169050919050565b60006100a88261007d565b9050919050565b6100b88161009d565b81146100c357600080fd5b50565b6000815190506100d5816100af565b92915050565b6000602082840312156100f1576100f0610078565b5b60006100ff848285016100c6565b91505092915050565b611dbb806101176000396000f3fe608060405234801561001057600080fd5b50600436106100885760003560e01c80637115c2441161005b5780637115c2441461011c57806371be2e4a1461014c578063a6ea10511461016a578063e95a644f1461019a57610088565b8063068f46ce1461008d5780630b791430146100ab578063406db843146100e45780634c1362f814610100575b600080fd5b6100956101b6565b6040516100a29190610f25565b60405180910390f35b6100c560048036038101906100c09190610f8a565b6101da565b6040516100db9a9998979695949392919061110d565b60405180910390f35b6100fe60048036038101906100f99190610f8a565b6103bb565b005b61011a6004803603810190610115919061133d565b61076d565b005b6101366004803603810190610131919061148f565b610b20565b60405161014391906114ea565b60405180910390f35b610154610b4f565b6040516101619190611505565b60405180910390f35b610184600480360381019061017f919061148f565b610b55565b60405161019191906114ea565b60405180910390f35b6101b460048036038101906101af9190610f8a565b610b84565b005b60008054906101000a900473ffffffffffffffffffffffffffffffffffffffff1681565b60026020528060005260406000206000915090508060000180546101fd9061154f565b80601f01602080910402602001604051908101604052809291908181526020018280546102299061154f565b80156102765780601f1061024b57610100808354040283529160200191610276565b820191906000526020600020905b81548152906001019060200180831161025957829003601f168201915b50505050509080600101805461028b9061154f565b80601f01602080910402602001604051908101604052809291908181526020018280546102b79061154f565b80156103045780601f106102d957610100808354040283529160200191610304565b820191906000526020600020905b8154815290600101906020018083116102e757829003601f168201915b5050505050908060020154908060030154908060040160009054906101000a900460ff16908060040160019054906101000a900463ffffffff16908060040160059054906101000a900463ffffffff16908060040160099054906101000a900463ffffffff16908060050160009054906101000a900473ffffffffffffffffffffffffffffffffffffffff16908060060160009054906101000a900473ffffffffffffffffffffffffffffffffffffffff1690508a565b60015481111580156103ce575060008114155b61040d576040517f08c379a0000000000000000000000000000000000000000000000000000000008152600401610404906115cc565b60405180910390fd5b600360003373ffffffffffffffffffffffffffffffffffffffff1673ffffffffffffffffffffffffffffffffffffffff168152602001908152602001600020600082815260200190815260200160002060009054906101000a900460ff16156104ab576040517f08c379a00000000000000000000000000000000000000000000000000000000081526004016104a290611638565b60405180910390fd5b60006002600083815260200190815260200160002090508060040160019054906101000a900463ffffffff1663ffffffff168160040160059054906101000a900463ffffffff1663ffffffff1610610538576040517f08c379a000000000000000000000000000000000000000000000000000000000815260040161052f906116a4565b60405180910390fd5b6001600360003373ffffffffffffffffffffffffffffffffffffffff1673ffffffffffffffffffffffffffffffffffffffff168152602001908152602001600020600084815260200190815260200160002060006101000a81548160ff02191690831515021790555080600401600581819054906101000a900463ffffffff16809291906105c5906116f3565b91906101000a81548163ffffffff021916908363ffffffff16021790555050600073ffffffffffffffffffffffffffffffffffffffff168160060160009054906101000a900473ffffffffffffffffffffffffffffffffffffffff1673ffffffffffffffffffffffffffffffffffffffff1603610677576040517f08c379a000000000000000000000000000000000000000000000000000000000815260040161066e9061176b565b60405180910390fd5b8060060160009054906101000a900473ffffffffffffffffffffffffffffffffffffffff1673ffffffffffffffffffffffffffffffffffffffff16634f2b9379336040518263ffffffff1660e01b81526004016106d4919061178b565b600060405180830381600087803b1580156106ee57600080fd5b505af1158015610702573d6000803e3d6000fd5b50505050813373ffffffffffffffffffffffffffffffffffffffff167fcbea9c23945e351434f7ae5b1a435091cc278dd9dd0eba4c04203674014ca7d78360040160059054906101000a900463ffffffff1660405161076191906117d7565b60405180910390a35050565b4286116107af576040517f08c379a00000000000000000000000000000000000000000000000000000000081526004016107a69061183e565b60405180910390fd5b8486106107f1576040517f08c379a00000000000000000000000000000000000000000000000000000000081526004016107e8906118aa565b60405180910390fd5b6000600160008154610802906118ca565b919050819055905060008060009054906101000a900473ffffffffffffffffffffffffffffffffffffffff1673ffffffffffffffffffffffffffffffffffffffff166370ed064185856040518363ffffffff1660e01b8152600401610868929190611912565b6020604051808303816000875af1158015610887573d6000803e3d6000fd5b505050506040513d601f19601f820116820180604052508101906108ab919061195e565b90506040518061014001604052808b81526020018a81526020018981526020018881526020018760018111156108e4576108e3611056565b5b81526020018663ffffffff168152602001600063ffffffff168152602001600063ffffffff1681526020013373ffffffffffffffffffffffffffffffffffffffff1681526020018273ffffffffffffffffffffffffffffffffffffffff1681525060026000848152602001908152602001600020600082015181600001908161096d9190611b2d565b5060208201518160010190816109839190611b2d565b50604082015181600201556060820151816003015560808201518160040160006101000a81548160ff021916908360018111156109c3576109c2611056565b5b021790555060a08201518160040160016101000a81548163ffffffff021916908363ffffffff16021790555060c08201518160040160056101000a81548163ffffffff021916908363ffffffff16021790555060e08201518160040160096101000a81548163ffffffff021916908363ffffffff1602179055506101008201518160050160006101000a81548173ffffffffffffffffffffffffffffffffffffffff021916908373ffffffffffffffffffffffffffffffffffffffff1602179055506101208201518160060160006101000a81548173ffffffffffffffffffffffffffffffffffffffff021916908373ffffffffffffffffffffffffffffffffffffffff1602179055509050503373ffffffffffffffffffffffffffffffffffffffff16827fe43349c008949cf6b65249356e6f918d4aaa0ca79f2b1166df4a4a98c9c16de260405160405180910390a350505050505050505050565b60036020528160005260406000206020528060005260406000206000915091509054906101000a900460ff1681565b60015481565b60046020528160005260406000206020528060005260406000206000915091509054906101000a900460ff1681565b6001548111158015610b97575060008114155b610bd6576040517f08c379a0000000000000000000000000000000000000000000000000000000008152600401610bcd906115cc565b60405180910390fd5b60006002600083815260200190815260200160002090508060020154421015610c34576040517f08c379a0000000000000000000000000000000000000000000000000000000008152600401610c2b90611c4b565b60405180910390fd5b600460003373ffffffffffffffffffffffffffffffffffffffff1673ffffffffffffffffffffffffffffffffffffffff168152602001908152602001600020600083815260200190815260200160002060009054906101000a900460ff1615610cd2576040517f08c379a0000000000000000000000000000000000000000000000000000000008152600401610cc990611cb7565b60405180910390fd5b60008160060160009054906101000a900473ffffffffffffffffffffffffffffffffffffffff1673ffffffffffffffffffffffffffffffffffffffff166370a08231336040518263ffffffff1660e01b8152600401610d31919061178b565b602060405180830381865afa158015610d4e573d6000803e3d6000fd5b505050506040513d601f19601f82011682018060405250810190610d729190611cec565b11610db2576040517f08c379a0000000000000000000000000000000000000000000000000000000008152600401610da990611d65565b60405180910390fd5b6001600460003373ffffffffffffffffffffffffffffffffffffffff1673ffffffffffffffffffffffffffffffffffffffff168152602001908152602001600020600084815260200190815260200160002060006101000a81548160ff02191690831515021790555080600401600981819054906101000a900463ffffffff1680929190610e3f906116f3565b91906101000a81548163ffffffff021916908363ffffffff16021790555050813373ffffffffffffffffffffffffffffffffffffffff167f5b25fc1ebd3020e3fd298db72822ab1682ed5cde8201b8081f970b67e9a7141360405160405180910390a35050565b600073ffffffffffffffffffffffffffffffffffffffff82169050919050565b6000819050919050565b6000610eeb610ee6610ee184610ea6565b610ec6565b610ea6565b9050919050565b6000610efd82610ed0565b9050919050565b6000610f0f82610ef2565b9050919050565b610f1f81610f04565b82525050565b6000602082019050610f3a6000830184610f16565b92915050565b6000604051905090565b600080fd5b600080fd5b6000819050919050565b610f6781610f54565b8114610f7257600080fd5b50565b600081359050610f8481610f5e565b92915050565b600060208284031215610fa057610f9f610f4a565b5b6000610fae84828501610f75565b91505092915050565b600081519050919050565b600082825260208201905092915050565b60005b83811015610ff1578082015181840152602081019050610fd6565b60008484015250505050565b6000601f19601f8301169050919050565b600061101982610fb7565b6110238185610fc2565b9350611033818560208601610fd3565b61103c81610ffd565b840191505092915050565b61105081610f54565b82525050565b7f4e487b7100000000000000000000000000000000000000000000000000000000600052602160045260246000fd5b6002811061109657611095611056565b5b50565b60008190506110a782611085565b919050565b60006110b782611099565b9050919050565b6110c7816110ac565b82525050565b600063ffffffff82169050919050565b6110e6816110cd565b82525050565b60006110f782610ea6565b9050919050565b611107816110ec565b82525050565b6000610140820190508181036000830152611128818d61100e565b9050818103602083015261113c818c61100e565b905061114b604083018b611047565b611158606083018a611047565b61116560808301896110be565b61117260a08301886110dd565b61117f60c08301876110dd565b61118c60e08301866110dd565b61119a6101008301856110fe565b6111a86101208301846110fe565b9b9a5050505050505050505050565b600080fd5b600080fd5b7f4e487b7100000000000000000000000000000000000000000000000000000000600052604160045260246000fd5b6111f982610ffd565b810181811067ffffffffffffffff82111715611218576112176111c1565b5b80604052505050565b600061122b610f40565b905061123782826111f0565b919050565b600067ffffffffffffffff821115611257576112566111c1565b5b61126082610ffd565b9050602081019050919050565b82818337600083830152505050565b600061128f61128a8461123c565b611221565b9050828152602081018484840111156112ab576112aa6111bc565b5b6112b684828561126d565b509392505050565b600082601f8301126112d3576112d26111b7565b5b81356112e384826020860161127c565b91505092915050565b600281106112f957600080fd5b50565b60008135905061130b816112ec565b92915050565b61131a816110cd565b811461132557600080fd5b50565b60008135905061133781611311565b92915050565b600080600080600080600080610100898b03121561135e5761135d610f4a565b5b600089013567ffffffffffffffff81111561137c5761137b610f4f565b5b6113888b828c016112be565b985050602089013567ffffffffffffffff8111156113a9576113a8610f4f565b5b6113b58b828c016112be565b97505060406113c68b828c01610f75565b96505060606113d78b828c01610f75565b95505060806113e88b828c016112fc565b94505060a06113f98b828c01611328565b93505060c089013567ffffffffffffffff81111561141a57611419610f4f565b5b6114268b828c016112be565b92505060e089013567ffffffffffffffff81111561144757611446610f4f565b5b6114538b828c016112be565b9150509295985092959890939650565b61146c816110ec565b811461147757600080fd5b50565b60008135905061148981611463565b92915050565b600080604083850312156114a6576114a5610f4a565b5b60006114b48582860161147a565b92505060206114c585828601610f75565b9150509250929050565b60008115159050919050565b6114e4816114cf565b82525050565b60006020820190506114ff60008301846114db565b92915050565b600060208201905061151a6000830184611047565b92915050565b7f4e487b7100000000000000000000000000000000000000000000000000000000600052602260045260246000fd5b6000600282049050600182168061156757607f821691505b60208210810361157a57611579611520565b5b50919050565b7f4556454e5420444f45534e542045584953540000000000000000000000000000600082015250565b60006115b6601283610fc2565b91506115c182611580565b602082019050919050565b600060208201905081810360008301526115e5816115a9565b9050919050565b7f414c524541445920524547495354455245440000000000000000000000000000600082015250565b6000611622601283610fc2565b915061162d826115ec565b602082019050919050565b6000602082019050818103600083015261165181611615565b9050919050565b7f524547495354524154494f4e20434c4f53454400000000000000000000000000600082015250565b600061168e601383610fc2565b915061169982611658565b602082019050919050565b600060208201905081810360008301526116bd81611681565b9050919050565b7f4e487b7100000000000000000000000000000000000000000000000000000000600052601160045260246000fd5b60006116fe826110cd565b915063ffffffff8203611714576117136116c4565b5b600182019050919050565b7f5449434b4554494e47204e4f5420454e41424c45440000000000000000000000600082015250565b6000611755601583610fc2565b91506117608261171f565b602082019050919050565b6000602082019050818103600083015261178481611748565b9050919050565b60006020820190506117a060008301846110fe565b92915050565b60006117c16117bc6117b7846110cd565b610ec6565b610f54565b9050919050565b6117d1816117a6565b82525050565b60006020820190506117ec60008301846117c8565b92915050565b7f53544152542044415445204d55535420424520494e2046555455524500000000600082015250565b6000611828601c83610fc2565b9150611833826117f2565b602082019050919050565b600060208201905081810360008301526118578161181b565b9050919050565b7f454e442044415445204d55535420424520475245415445520000000000000000600082015250565b6000611894601883610fc2565b915061189f8261185e565b602082019050919050565b600060208201905081810360008301526118c381611887565b9050919050565b60006118d582610f54565b91507fffffffffffffffffffffffffffffffffffffffffffffffffffffffffffffffff8203611907576119066116c4565b5b600182019050919050565b6000604082019050818103600083015261192c818561100e565b90508181036020830152611940818461100e565b90509392505050565b60008151905061195881611463565b92915050565b60006020828403121561197457611973610f4a565b5b600061198284828501611949565b91505092915050565b60008190508160005260206000209050919050565b60006020601f8301049050919050565b600082821b905092915050565b6000600883026119ed7fffffffffffffffffffffffffffffffffffffffffffffffffffffffffffffffff826119b0565b6119f786836119b0565b95508019841693508086168417925050509392505050565b6000611a2a611a25611a2084610f54565b610ec6565b610f54565b9050919050565b6000819050919050565b611a4483611a0f565b611a58611a5082611a31565b8484546119bd565b825550505050565b600090565b611a6d611a60565b611a78818484611a3b565b505050565b5b81811015611a9c57611a91600082611a65565b600181019050611a7e565b5050565b601f821115611ae157611ab28161198b565b611abb846119a0565b81016020851015611aca578190505b611ade611ad6856119a0565b830182611a7d565b50505b505050565b600082821c905092915050565b6000611b0460001984600802611ae6565b1980831691505092915050565b6000611b1d8383611af3565b9150826002028217905092915050565b611b3682610fb7565b67ffffffffffffffff811115611b4f57611b4e6111c1565b5b611b59825461154f565b611b64828285611aa0565b600060209050601f831160018114611b975760008415611b85578287015190505b611b8f8582611b11565b865550611bf7565b601f198416611ba58661198b565b60005b82811015611bcd57848901518255600182019150602085019450602081019050611ba8565b86831015611bea5784890151611be6601f891682611af3565b8355505b6001600288020188555050505b505050505050565b7f4556454e5420484153204e4f5420535441525445440000000000000000000000600082015250565b6000611c35601583610fc2565b9150611c4082611bff565b602082019050919050565b60006020820190508181036000830152611c6481611c28565b9050919050565b7f414c524541445920434845434b454420494e0000000000000000000000000000600082015250565b6000611ca1601283610fc2565b9150611cac82611c6b565b602082019050919050565b60006020820190508181036000830152611cd081611c94565b9050919050565b600081519050611ce681610f5e565b92915050565b600060208284031215611d0257611d01610f4a565b5b6000611d1084828501611cd7565b91505092915050565b7f4e4f2056414c4944205449434b45540000000000000000000000000000000000600082015250565b6000611d4f600f83610fc2565b9150611d5a82611d19565b602082019050919050565b60006020820190508181036000830152611d7e81611d42565b905091905056fea2646970667358221220d4ab5c8dbde64e216c4b81aa5b0d43c17469dcb4760bb86434ba3f575b438f1564736f6c634300081c0033","opcodes":"PUSH1 0x80 PUSH1 0x40 MSTORE CALLVALUE DUP1 ISZERO PUSH2 0x10 JUMPI PUSH1 0x0 DUP1 REVERT JUMPDEST POP PUSH1 0x40 MLOAD PUSH2 0x1ED2 CODESIZE SUB DUP1 PUSH2 0x1ED2 DUP4 CODECOPY DUP2 DUP2 ADD PUSH1 0x40 MSTORE DUP2 ADD SWAP1 PUSH2 0x32 SWAP2 SWAP1 PUSH2 0xDB JUMP JUMPDEST DUP1 PUSH1 0x0 DUP1 PUSH2 0x100 EXP DUP2 SLOAD DUP2 PUSH20 0xFFFFFFFFFFFFFFFFFFFFFFFFFFFFFFFFFFFFFFFF MUL NOT AND SWAP1 DUP4 PUSH20 0xFFFFFFFFFFFFFFFFFFFFFFFFFFFFFFFFFFFFFFFF AND MUL OR SWAP1 SSTORE POP POP PUSH2 0x108 JUMP JUMPDEST PUSH1 0x0 DUP1 REVERT JUMPDEST PUSH1 0x0 PUSH20 0xFFFFFFFFFFFFFFFFFFFFFFFFFFFFFFFFFFFFFFFF DUP3 AND SWAP1 POP SWAP2 SWAP1 POP JUMP JUMPDEST PUSH1 0x0 PUSH2 0xA8 DUP3 PUSH2 0x7D JUMP JUMPDEST SWAP1 POP SWAP2 SWAP1 POP JUMP JUMPDEST PUSH2 0xB8 DUP2 PUSH2 0x9D JUMP JUMPDEST DUP2 EQ PUSH2 0xC3 JUMPI PUSH1 0x0 DUP1 REVERT JUMPDEST POP JUMP JUMPDEST PUSH1 0x0 DUP2 MLOAD SWAP1 POP PUSH2 0xD5 DUP2 PUSH2 0xAF JUMP JUMPDEST SWAP3 SWAP2 POP POP JUMP JUMPDEST PUSH1 0x0 PUSH1 0x20 DUP3 DUP5 SUB SLT ISZERO PUSH2 0xF1 JUMPI PUSH2 0xF0 PUSH2 0x78 JUMP JUMPDEST JUMPDEST PUSH1 0x0 PUSH2 0xFF DUP5 DUP3 DUP6 ADD PUSH2 0xC6 JUMP JUMPDEST SWAP2 POP POP SWAP3 SWAP2 POP POP JUMP JUMPDEST PUSH2 0x1DBB DUP1 PUSH2 0x117 PUSH1 0x0 CODECOPY PUSH1 0x0 RETURN INVALID PUSH1 0x80 PUSH1 0x40 MSTORE CALLVALUE DUP1 ISZERO PUSH2 0x10 JUMPI PUSH1 0x0 DUP1 REVERT JUMPDEST POP PUSH1 0x4 CALLDATASIZE LT PUSH2 0x88 JUMPI PUSH1 0x0 CALLDATALOAD PUSH1 0xE0 SHR DUP1 PUSH4 0x7115C244 GT PUSH2 0x5B JUMPI DUP1 PUSH4 0x7115C244 EQ PUSH2 0x11C JUMPI DUP1 PUSH4 0x71BE2E4A EQ PUSH2 0x14C JUMPI DUP1 PUSH4 0xA6EA1051 EQ PUSH2 0x16A JUMPI DUP1 PUSH4 0xE95A644F EQ PUSH2 0x19A JUMPI PUSH2 0x88 JUMP JUMPDEST DUP1 PUSH4 0x68F46CE EQ PUSH2 0x8D JUMPI DUP1 PUSH4 0xB791430 EQ PUSH2 0xAB JUMPI DUP1 PUSH4 0x406DB843 EQ PUSH2 0xE4 JUMPI DUP1 PUSH4 0x4C1362F8 EQ PUSH2 0x100 JUMPI JUMPDEST PUSH1 0x0 DUP1 REVERT JUMPDEST PUSH2 0x95 PUSH2 0x1B6 JUMP JUMPDEST PUSH1 0x40 MLOAD PUSH2 0xA2 SWAP2 SWAP1 PUSH2 0xF25 JUMP JUMPDEST PUSH1 0x40 MLOAD DUP1 SWAP2 SUB SWAP1 RETURN JUMPDEST PUSH2 0xC5 PUSH1 0x4 DUP1 CALLDATASIZE SUB DUP2 ADD SWAP1 PUSH2 0xC0 SWAP2 SWAP1 PUSH2 0xF8A JUMP JUMPDEST PUSH2 0x1DA JUMP JUMPDEST PUSH1 0x40 MLOAD PUSH2 0xDB SWAP11 SWAP10 SWAP9 SWAP8 SWAP7 SWAP6 SWAP5 SWAP4 SWAP3 SWAP2 SWAP1 PUSH2 0x110D JUMP JUMPDEST PUSH1 0x40 MLOAD DUP1 SWAP2 SUB SWAP1 RETURN JUMPDEST PUSH2 0xFE PUSH1 0x4 DUP1 CALLDATASIZE SUB DUP2 ADD SWAP1 PUSH2 0xF9 SWAP2 SWAP1 PUSH2 0xF8A JUMP JUMPDEST PUSH2 0x3BB JUMP JUMPDEST STOP JUMPDEST PUSH2 0x11A PUSH1 0x4 DUP1 CALLDATASIZE SUB DUP2 ADD SWAP1 PUSH2 0x115 SWAP2 SWAP1 PUSH2 0x133D JUMP JUMPDEST PUSH2 0x76D JUMP JUMPDEST STOP JUMPDEST PUSH2 0x136 PUSH1 0x4 DUP1 CALLDATASIZE SUB DUP2 ADD SWAP1 PUSH2 0x131 SWAP2 SWAP1 PUSH2 0x148F JUMP JUMPDEST PUSH2 0xB20 JUMP JUMPDEST PUSH1 0x40 MLOAD PUSH2 0x143 SWAP2 SWAP1 PUSH2 0x14EA JUMP JUMPDEST PUSH1 0x40 MLOAD DUP1 SWAP2 SUB SWAP1 RETURN JUMPDEST PUSH2 0x154 PUSH2 0xB4F JUMP JUMPDEST PUSH1 0x40 MLOAD PUSH2 0x161 SWAP2 SWAP1 PUSH2 0x1505 JUMP JUMPDEST PUSH1 0x40 MLOAD DUP1 SWAP2 SUB SWAP1 RETURN JUMPDEST PUSH2 0x184 PUSH1 0x4 DUP1 CALLDATASIZE SUB DUP2 ADD SWAP1 PUSH2 0x17F SWAP2 SWAP1 PUSH2 0x148F JUMP JUMPDEST PUSH2 0xB55 JUMP JUMPDEST PUSH1 0x40 MLOAD PUSH2 0x191 SWAP2 SWAP1 PUSH2 0x14EA JUMP JUMPDEST PUSH1 0x40 MLOAD DUP1 SWAP2 SUB SWAP1 RETURN JUMPDEST PUSH2 0x1B4 PUSH1 0x4 DUP1 CALLDATASIZE SUB DUP2 ADD SWAP1 PUSH2 0x1AF SWAP2 SWAP1 PUSH2 0xF8A JUMP JUMPDEST PUSH2 0xB84 JUMP JUMPDEST STOP JUMPDEST PUSH1 0x0 DUP1 SLOAD SWAP1 PUSH2 0x100 EXP SWAP1 DIV PUSH20 0xFFFFFFFFFFFFFFFFFFFFFFFFFFFFFFFFFFFFFFFF AND DUP2 JUMP JUMPDEST PUSH1 0x2 PUSH1 0x20 MSTORE DUP1 PUSH1 0x0 MSTORE PUSH1 0x40 PUSH1 0x0 KECCAK256 PUSH1 0x0 SWAP2 POP SWAP1 POP DUP1 PUSH1 0x0 ADD DUP1 SLOAD PUSH2 0x1FD SWAP1 PUSH2 0x154F JUMP JUMPDEST DUP1 PUSH1 0x1F ADD PUSH1 0x20 DUP1 SWAP2 DIV MUL PUSH1 0x20 ADD PUSH1 0x40 MLOAD SWAP1 DUP2 ADD PUSH1 0x40 MSTORE DUP1 SWAP3 SWAP2 SWAP1 DUP2 DUP2 MSTORE PUSH1 0x20 ADD DUP3 DUP1 SLOAD PUSH2 0x229 SWAP1 PUSH2 0x154F JUMP JUMPDEST DUP1 ISZERO PUSH2 0x276 JUMPI DUP1 PUSH1 0x1F LT PUSH2 0x24B JUMPI PUSH2 0x100 DUP1 DUP4 SLOAD DIV MUL DUP4 MSTORE SWAP2 PUSH1 0x20 ADD SWAP2 PUSH2 0x276 JUMP JUMPDEST DUP3 ADD SWAP2 SWAP1 PUSH1 0x0 MSTORE PUSH1 0x20 PUSH1 0x0 KECCAK256 SWAP1 JUMPDEST DUP2 SLOAD DUP2 MSTORE SWAP1 PUSH1 0x1 ADD SWAP1 PUSH1 0x20 ADD DUP1 DUP4 GT PUSH2 0x259 JUMPI DUP3 SWAP1 SUB PUSH1 0x1F AND DUP3 ADD SWAP2 JUMPDEST POP POP POP POP POP SWAP1 DUP1 PUSH1 0x1 ADD DUP1 SLOAD PUSH2 0x28B SWAP1 PUSH2 0x154F JUMP JUMPDEST DUP1 PUSH1 0x1F ADD PUSH1 0x20 DUP1 SWAP2 DIV MUL PUSH1 0x20 ADD PUSH1 0x40 MLOAD SWAP1 DUP2 ADD PUSH1 0x40 MSTORE DUP1 SWAP3 SWAP2 SWAP1 DUP2 DUP2 MSTORE PUSH1 0x20 ADD DUP3 DUP1 SLOAD PUSH2 0x2B7 SWAP1 PUSH2 0x154F JUMP JUMPDEST DUP1 ISZERO PUSH2 0x304 JUMPI DUP1 PUSH1 0x1F LT PUSH2 0x2D9 JUMPI PUSH2 0x100 DUP1 DUP4 SLOAD DIV MUL DUP4 MSTORE SWAP2 PUSH1 0x20 ADD SWAP2 PUSH2 0x304 JUMP JUMPDEST DUP3 ADD SWAP2 SWAP1 PUSH1 0x0 MSTORE PUSH1 0x20 PUSH1 0x0 KECCAK256 SWAP1 JUMPDEST DUP2 SLOAD DUP2 MSTORE SWAP1 PUSH1 0x1 ADD SWAP1 PUSH1 0x20 ADD DUP1 DUP4 GT PUSH2 0x2E7 JUMPI DUP3 SWAP1 SUB PUSH1 0x1F AND DUP3 ADD SWAP2 JUMPDEST POP POP POP POP POP SWAP1 DUP1 PUSH1 0x2 ADD SLOAD SWAP1 DUP1 PUSH1 0x3 ADD SLOAD SWAP1 DUP1 PUSH1 0x4 ADD PUSH1 0x0 SWAP1 SLOAD SWAP1 PUSH2 0x100 EXP SWAP1 DIV PUSH1 0xFF AND SWAP1 DUP1 PUSH1 0x4 ADD PUSH1 0x1 SWAP1 SLOAD SWAP1 PUSH2 0x100 EXP SWAP1 DIV PUSH4 0xFFFFFFFF AND SWAP1 DUP1 PUSH1 0x4 ADD PUSH1 0x5 SWAP1 SLOAD SWAP1 PUSH2 0x100 EXP SWAP1 DIV PUSH4 0xFFFFFFFF AND SWAP1 DUP1 PUSH1 0x4 ADD PUSH1 0x9 SWAP1 SLOAD SWAP1 PUSH2 0x100 EXP SWAP1 DIV PUSH4 0xFFFFFFFF AND SWAP1 DUP1 PUSH1 0x5 ADD PUSH1 0x0 SWAP1 SLOAD SWAP1 PUSH2 0x100 EXP SWAP1 DIV PUSH20 0xFFFFFFFFFFFFFFFFFFFFFFFFFFFFFFFFFFFFFFFF AND SWAP1 DUP1 PUSH1 0x6 ADD PUSH1 0x0 SWAP1 SLOAD SWAP1 PUSH2 0x100 EXP SWAP1 DIV PUSH20 0xFFFFFFFFFFFFFFFFFFFFFFFFFFFFFFFFFFFFFFFF AND SWAP1 POP DUP11 JUMP JUMPDEST PUSH1 0x1 SLOAD DUP2 GT ISZERO DUP1 ISZERO PUSH2 0x3CE JUMPI POP PUSH1 0x0 DUP2 EQ ISZERO JUMPDEST PUSH2 0x40D JUMPI PUSH1 0x40 MLOAD PUSH32 0x8C379A000000000000000000000000000000000000000000000000000000000 DUP2 MSTORE PUSH1 0x4 ADD PUSH2 0x404 SWAP1 PUSH2 0x15CC JUMP JUMPDEST PUSH1 0x40 MLOAD DUP1 SWAP2 SUB SWAP1 REVERT JUMPDEST PUSH1 0x3 PUSH1 0x0 CALLER PUSH20 0xFFFFFFFFFFFFFFFFFFFFFFFFFFFFFFFFFFFFFFFF AND PUSH20 0xFFFFFFFFFFFFFFFFFFFFFFFFFFFFFFFFFFFFFFFF AND DUP2 MSTORE PUSH1 0x20 ADD SWAP1 DUP2 MSTORE PUSH1 0x20 ADD PUSH1 0x0 KECCAK256 PUSH1 0x0 DUP3 DUP2 MSTORE PUSH1 0x20 ADD SWAP1 DUP2 MSTORE PUSH1 0x20 ADD PUSH1 0x0 KECCAK256 PUSH1 0x0 SWAP1 SLOAD SWAP1 PUSH2 0x100 EXP SWAP1 DIV PUSH1 0xFF AND ISZERO PUSH2 0x4AB JUMPI PUSH1 0x40 MLOAD PUSH32 0x8C379A000000000000000000000000000000000000000000000000000000000 DUP2 MSTORE PUSH1 0x4 ADD PUSH2 0x4A2 SWAP1 PUSH2 0x1638 JUMP JUMPDEST PUSH1 0x40 MLOAD DUP1 SWAP2 SUB SWAP1 REVERT JUMPDEST PUSH1 0x0 PUSH1 0x2 PUSH1 0x0 DUP4 DUP2 MSTORE PUSH1 0x20 ADD SWAP1 DUP2 MSTORE PUSH1 0x20 ADD PUSH1 0x0 KECCAK256 SWAP1 POP DUP1 PUSH1 0x4 ADD PUSH1 0x1 SWAP1 SLOAD SWAP1 PUSH2 0x100 EXP SWAP1 DIV PUSH4 0xFFFFFFFF AND PUSH4 0xFFFFFFFF AND DUP2 PUSH1 0x4 ADD PUSH1 0x5 SWAP1 SLOAD SWAP1 PUSH2 0x100 EXP SWAP1 DIV PUSH4 0xFFFFFFFF AND PUSH4 0xFFFFFFFF AND LT PUSH2 0x538 JUMPI PUSH1 0x40 MLOAD PUSH32 0x8C379A000000000000000000000000000000000000000000000000000000000 DUP2 MSTORE PUSH1 0x4 ADD PUSH2 0x52F SWAP1 PUSH2 0x16A4 JUMP JUMPDEST PUSH1 0x40 MLOAD DUP1 SWAP2 SUB SWAP1 REVERT JUMPDEST PUSH1 0x1 PUSH1 0x3 PUSH1 0x0 CALLER PUSH20 0xFFFFFFFFFFFFFFFFFFFFFFFFFFFFFFFFFFFFFFFF AND PUSH20 0xFFFFFFFFFFFFFFFFFFFFFFFFFFFFFFFFFFFFFFFF AND DUP2 MSTORE PUSH1 0x20 ADD SWAP1 DUP2 MSTORE PUSH1 0x20 ADD PUSH1 0x0 KECCAK256 PUSH1 0x0 DUP5 DUP2 MSTORE PUSH1 0x20 ADD SWAP1 DUP2 MSTORE PUSH1 0x20 ADD PUSH1 0x0 KECCAK256 PUSH1 0x0 PUSH2 0x100 EXP DUP2 SLOAD DUP2 PUSH1 0xFF MUL NOT AND SWAP1 DUP4 ISZERO ISZERO MUL OR SWAP1 SSTORE POP DUP1 PUSH1 0x4 ADD PUSH1 0x5 DUP2 DUP2 SWAP1 SLOAD SWAP1 PUSH2 0x100 EXP SWAP1 DIV PUSH4 0xFFFFFFFF AND DUP1 SWAP3 SWAP2 SWAP1 PUSH2 0x5C5 SWAP1 PUSH2 0x16F3 JUMP JUMPDEST SWAP2 SWAP1 PUSH2 0x100 EXP DUP2 SLOAD DUP2 PUSH4 0xFFFFFFFF MUL NOT AND SWAP1 DUP4 PUSH4 0xFFFFFFFF AND MUL OR SWAP1 SSTORE POP POP PUSH1 0x0 PUSH20 0xFFFFFFFFFFFFFFFFFFFFFFFFFFFFFFFFFFFFFFFF AND DUP2 PUSH1 0x6 ADD PUSH1 0x0 SWAP1 SLOAD SWAP1 PUSH2 0x100 EXP SWAP1 DIV PUSH20 0xFFFFFFFFFFFFFFFFFFFFFFFFFFFFFFFFFFFFFFFF AND PUSH20 0xFFFFFFFFFFFFFFFFFFFFFFFFFFFFFFFFFFFFFFFF AND SUB PUSH2 0x677 JUMPI PUSH1 0x40 MLOAD PUSH32 0x8C379A000000000000000000000000000000000000000000000000000000000 DUP2 MSTORE PUSH1 0x4 ADD PUSH2 0x66E SWAP1 PUSH2 0x176B JUMP JUMPDEST PUSH1 0x40 MLOAD DUP1 SWAP2 SUB SWAP1 REVERT JUMPDEST DUP1 PUSH1 0x6 ADD PUSH1 0x0 SWAP1 SLOAD SWAP1 PUSH2 0x100 EXP SWAP1 DIV PUSH20 0xFFFFFFFFFFFFFFFFFFFFFFFFFFFFFFFFFFFFFFFF AND PUSH20 0xFFFFFFFFFFFFFFFFFFFFFFFFFFFFFFFFFFFFFFFF AND PUSH4 0x4F2B9379 CALLER PUSH1 0x40 MLOAD DUP3 PUSH4 0xFFFFFFFF AND PUSH1 0xE0 SHL DUP2 MSTORE PUSH1 0x4 ADD PUSH2 0x6D4 SWAP2 SWAP1 PUSH2 0x178B JUMP JUMPDEST PUSH1 0x0 PUSH1 0x40 MLOAD DUP1 DUP4 SUB DUP2 PUSH1 0x0 DUP8 DUP1 EXTCODESIZE ISZERO DUP1 ISZERO PUSH2 0x6EE JUMPI PUSH1 0x0 DUP1 REVERT JUMPDEST POP GAS CALL ISZERO DUP1 ISZERO PUSH2 0x702 JUMPI RETURNDATASIZE PUSH1 0x0 DUP1 RETURNDATACOPY RETURNDATASIZE PUSH1 0x0 REVERT JUMPDEST POP POP POP POP DUP2 CALLER PUSH20 0xFFFFFFFFFFFFFFFFFFFFFFFFFFFFFFFFFFFFFFFF AND PUSH32 0xCBEA9C23945E351434F7AE5B1A435091CC278DD9DD0EBA4C04203674014CA7D7 DUP4 PUSH1 0x4 ADD PUSH1 0x5 SWAP1 SLOAD SWAP1 PUSH2 0x100 EXP SWAP1 DIV PUSH4 0xFFFFFFFF AND PUSH1 0x40 MLOAD PUSH2 0x761 SWAP2 SWAP1 PUSH2 0x17D7 JUMP JUMPDEST PUSH1 0x40 MLOAD DUP1 SWAP2 SUB SWAP1 LOG3 POP POP JUMP JUMPDEST TIMESTAMP DUP7 GT PUSH2 0x7AF JUMPI PUSH1 0x40 MLOAD PUSH32 0x8C379A000000000000000000000000000000000000000000000000000000000 DUP2 MSTORE PUSH1 0x4 ADD PUSH2 0x7A6 SWAP1 PUSH2 0x183E JUMP JUMPDEST PUSH1 0x40 MLOAD DUP1 SWAP2 SUB SWAP1 REVERT JUMPDEST DUP5 DUP7 LT PUSH2 0x7F1 JUMPI PUSH1 0x40 MLOAD PUSH32 0x8C379A000000000000000000000000000000000000000000000000000000000 DUP2 MSTORE PUSH1 0x4 ADD PUSH2 0x7E8 SWAP1 PUSH2 0x18AA JUMP JUMPDEST PUSH1 0x40 MLOAD DUP1 SWAP2 SUB SWAP1 REVERT JUMPDEST PUSH1 0x0 PUSH1 0x1 PUSH1 0x0 DUP2 SLOAD PUSH2 0x802 SWAP1 PUSH2 0x18CA JUMP JUMPDEST SWAP2 SWAP1 POP DUP2 SWAP1 SSTORE SWAP1 POP PUSH1 0x0 DUP1 PUSH1 0x0 SWAP1 SLOAD SWAP1 PUSH2 0x100 EXP SWAP1 DIV PUSH20 0xFFFFFFFFFFFFFFFFFFFFFFFFFFFFFFFFFFFFFFFF AND PUSH20 0xFFFFFFFFFFFFFFFFFFFFFFFFFFFFFFFFFFFFFFFF AND PUSH4 0x70ED0641 DUP6 DUP6 PUSH1 0x40 MLOAD DUP4 PUSH4 0xFFFFFFFF AND PUSH1 0xE0 SHL DUP2 MSTORE PUSH1 0x4 ADD PUSH2 0x868 SWAP3 SWAP2 SWAP1 PUSH2 0x1912 JUMP JUMPDEST PUSH1 0x20 PUSH1 0x40 MLOAD DUP1 DUP4 SUB DUP2 PUSH1 0x0 DUP8 GAS CALL ISZERO DUP1 ISZERO PUSH2 0x887 JUMPI RETURNDATASIZE PUSH1 0x0 DUP1 RETURNDATACOPY RETURNDATASIZE PUSH1 0x0 REVERT JUMPDEST POP POP POP POP PUSH1 0x40 MLOAD RETURNDATASIZE PUSH1 0x1F NOT PUSH1 0x1F DUP3 ADD AND DUP3 ADD DUP1 PUSH1 0x40 MSTORE POP DUP2 ADD SWAP1 PUSH2 0x8AB SWAP2 SWAP1 PUSH2 0x195E JUMP JUMPDEST SWAP1 POP PUSH1 0x40 MLOAD DUP1 PUSH2 0x140 ADD PUSH1 0x40 MSTORE DUP1 DUP12 DUP2 MSTORE PUSH1 0x20 ADD DUP11 DUP2 MSTORE PUSH1 0x20 ADD DUP10 DUP2 MSTORE PUSH1 0x20 ADD DUP9 DUP2 MSTORE PUSH1 0x20 ADD DUP8 PUSH1 0x1 DUP2 GT ISZERO PUSH2 0x8E4 JUMPI PUSH2 0x8E3 PUSH2 0x1056 JUMP JUMPDEST JUMPDEST DUP2 MSTORE PUSH1 0x20 ADD DUP7 PUSH4 0xFFFFFFFF AND DUP2 MSTORE PUSH1 0x20 ADD PUSH1 0x0 PUSH4 0xFFFFFFFF AND DUP2 MSTORE PUSH1 0x20 ADD PUSH1 0x0 PUSH4 0xFFFFFFFF AND DUP2 MSTORE PUSH1 0x20 ADD CALLER PUSH20 0xFFFFFFFFFFFFFFFFFFFFFFFFFFFFFFFFFFFFFFFF AND DUP2 MSTORE PUSH1 0x20 ADD DUP3 PUSH20 0xFFFFFFFFFFFFFFFFFFFFFFFFFFFFFFFFFFFFFFFF AND DUP2 MSTORE POP PUSH1 0x2 PUSH1 0x0 DUP5 DUP2 MSTORE PUSH1 0x20 ADD SWAP1 DUP2 MSTORE PUSH1 0x20 ADD PUSH1 0x0 KECCAK256 PUSH1 0x0 DUP3 ADD MLOAD DUP2 PUSH1 0x0 ADD SWAP1 DUP2 PUSH2 0x96D SWAP2 SWAP1 PUSH2 0x1B2D JUMP JUMPDEST POP PUSH1 0x20 DUP3 ADD MLOAD DUP2 PUSH1 0x1 ADD SWAP1 DUP2 PUSH2 0x983 SWAP2 SWAP1 PUSH2 0x1B2D JUMP JUMPDEST POP PUSH1 0x40 DUP3 ADD MLOAD DUP2 PUSH1 0x2 ADD SSTORE PUSH1 0x60 DUP3 ADD MLOAD DUP2 PUSH1 0x3 ADD SSTORE PUSH1 0x80 DUP3 ADD MLOAD DUP2 PUSH1 0x4 ADD PUSH1 0x0 PUSH2 0x100 EXP DUP2 SLOAD DUP2 PUSH1 0xFF MUL NOT AND SWAP1 DUP4 PUSH1 0x1 DUP2 GT ISZERO PUSH2 0x9C3 JUMPI PUSH2 0x9C2 PUSH2 0x1056 JUMP JUMPDEST JUMPDEST MUL OR SWAP1 SSTORE POP PUSH1 0xA0 DUP3 ADD MLOAD DUP2 PUSH1 0x4 ADD PUSH1 0x1 PUSH2 0x100 EXP DUP2 SLOAD DUP2 PUSH4 0xFFFFFFFF MUL NOT AND SWAP1 DUP4 PUSH4 0xFFFFFFFF AND MUL OR SWAP1 SSTORE POP PUSH1 0xC0 DUP3 ADD MLOAD DUP2 PUSH1 0x4 ADD PUSH1 0x5 PUSH2 0x100 EXP DUP2 SLOAD DUP2 PUSH4 0xFFFFFFFF MUL NOT AND SWAP1 DUP4 PUSH4 0xFFFFFFFF AND MUL OR SWAP1 SSTORE POP PUSH1 0xE0 DUP3 ADD MLOAD DUP2 PUSH1 0x4 ADD PUSH1 0x9 PUSH2 0x100 EXP DUP2 SLOAD DUP2 PUSH4 0xFFFFFFFF MUL NOT AND SWAP1 DUP4 PUSH4 0xFFFFFFFF AND MUL OR SWAP1 SSTORE POP PUSH2 0x100 DUP3 ADD MLOAD DUP2 PUSH1 0x5 ADD PUSH1 0x0 PUSH2 0x100 EXP DUP2 SLOAD DUP2 PUSH20 0xFFFFFFFFFFFFFFFFFFFFFFFFFFFFFFFFFFFFFFFF MUL NOT AND SWAP1 DUP4 PUSH20 0xFFFFFFFFFFFFFFFFFFFFFFFFFFFFFFFFFFFFFFFF AND MUL OR SWAP1 SSTORE POP PUSH2 0x120 DUP3 ADD MLOAD DUP2 PUSH1 0x6 ADD PUSH1 0x0 PUSH2 0x100 EXP DUP2 SLOAD DUP2 PUSH20 0xFFFFFFFFFFFFFFFFFFFFFFFFFFFFFFFFFFFFFFFF MUL NOT AND SWAP1 DUP4 PUSH20 0xFFFFFFFFFFFFFFFFFFFFFFFFFFFFFFFFFFFFFFFF AND MUL OR SWAP1 SSTORE POP SWAP1 POP POP CALLER PUSH20 0xFFFFFFFFFFFFFFFFFFFFFFFFFFFFFFFFFFFFFFFF AND DUP3 PUSH32 0xE43349C008949CF6B65249356E6F918D4AAA0CA79F2B1166DF4A4A98C9C16DE2 PUSH1 0x40 MLOAD PUSH1 0x40 MLOAD DUP1 SWAP2 SUB SWAP1 LOG3 POP POP POP POP POP POP POP POP POP POP JUMP JUMPDEST PUSH1 0x3 PUSH1 0x20 MSTORE DUP2 PUSH1 0x0 MSTORE PUSH1 0x40 PUSH1 0x0 KECCAK256 PUSH1 0x20 MSTORE DUP1 PUSH1 0x0 MSTORE PUSH1 0x40 PUSH1 0x0 KECCAK256 PUSH1 0x0 SWAP2 POP SWAP2 POP SWAP1 SLOAD SWAP1 PUSH2 0x100 EXP SWAP1 DIV PUSH1 0xFF AND DUP2 JUMP JUMPDEST PUSH1 0x1 SLOAD DUP2 JUMP JUMPDEST PUSH1 0x4 PUSH1 0x20 MSTORE DUP2 PUSH1 0x0 MSTORE PUSH1 0x40 PUSH1 0x0 KECCAK256 PUSH1 0x20 MSTORE DUP1 PUSH1 0x0 MSTORE PUSH1 0x40 PUSH1 0x0 KECCAK256 PUSH1 0x0 SWAP2 POP SWAP2 POP SWAP1 SLOAD SWAP1 PUSH2 0x100 EXP SWAP1 DIV PUSH1 0xFF AND DUP2 JUMP JUMPDEST PUSH1 0x1 SLOAD DUP2 GT ISZERO DUP1 ISZERO PUSH2 0xB97 JUMPI POP PUSH1 0x0 DUP2 EQ ISZERO JUMPDEST PUSH2 0xBD6 JUMPI PUSH1 0x40 MLOAD PUSH32 0x8C379A000000000000000000000000000000000000000000000000000000000 DUP2 MSTORE PUSH1 0x4 ADD PUSH2 0xBCD SWAP1 PUSH2 0x15CC JUMP JUMPDEST PUSH1 0x40 MLOAD DUP1 SWAP2 SUB SWAP1 REVERT JUMPDEST PUSH1 0x0 PUSH1 0x2 PUSH1 0x0 DUP4 DUP2 MSTORE PUSH1 0x20 ADD SWAP1 DUP2 MSTORE PUSH1 0x20 ADD PUSH1 0x0 KECCAK256 SWAP1 POP DUP1 PUSH1 0x2 ADD SLOAD TIMESTAMP LT ISZERO PUSH2 0xC34 JUMPI PUSH1 0x40 MLOAD PUSH32 0x8C379A000000000000000000000000000000000000000000000000000000000 DUP2 MSTORE PUSH1 0x4 ADD PUSH2 0xC2B SWAP1 PUSH2 0x1C4B JUMP JUMPDEST PUSH1 0x40 MLOAD DUP1 SWAP2 SUB SWAP1 REVERT JUMPDEST PUSH1 0x4 PUSH1 0x0 CALLER PUSH20 0xFFFFFFFFFFFFFFFFFFFFFFFFFFFFFFFFFFFFFFFF AND PUSH20 0xFFFFFFFFFFFFFFFFFFFFFFFFFFFFFFFFFFFFFFFF AND DUP2 MSTORE PUSH1 0x20 ADD SWAP1 DUP2 MSTORE PUSH1 0x20 ADD PUSH1 0x0 KECCAK256 PUSH1 0x0 DUP4 DUP2 MSTORE PUSH1 0x20 ADD SWAP1 DUP2 MSTORE PUSH1 0x20 ADD PUSH1 0x0 KECCAK256 PUSH1 0x0 SWAP1 SLOAD SWAP1 PUSH2 0x100 EXP SWAP1 DIV PUSH1 0xFF AND ISZERO PUSH2 0xCD2 JUMPI PUSH1 0x40 MLOAD PUSH32 0x8C379A000000000000000000000000000000000000000000000000000000000 DUP2 MSTORE PUSH1 0x4 ADD PUSH2 0xCC9 SWAP1 PUSH2 0x1CB7 JUMP JUMPDEST PUSH1 0x40 MLOAD DUP1 SWAP2 SUB SWAP1 REVERT JUMPDEST PUSH1 0x0 DUP2 PUSH1 0x6 ADD PUSH1 0x0 SWAP1 SLOAD SWAP1 PUSH2 0x100 EXP SWAP1 DIV PUSH20 0xFFFFFFFFFFFFFFFFFFFFFFFFFFFFFFFFFFFFFFFF AND PUSH20 0xFFFFFFFFFFFFFFFFFFFFFFFFFFFFFFFFFFFFFFFF AND PUSH4 0x70A08231 CALLER PUSH1 0x40 MLOAD DUP3 PUSH4 0xFFFFFFFF AND PUSH1 0xE0 SHL DUP2 MSTORE PUSH1 0x4 ADD PUSH2 0xD31 SWAP2 SWAP1 PUSH2 0x178B JUMP JUMPDEST PUSH1 0x20 PUSH1 0x40 MLOAD DUP1 DUP4 SUB DUP2 DUP7 GAS STATICCALL ISZERO DUP1 ISZERO PUSH2 0xD4E JUMPI RETURNDATASIZE PUSH1 0x0 DUP1 RETURNDATACOPY RETURNDATASIZE PUSH1 0x0 REVERT JUMPDEST POP POP POP POP PUSH1 0x40 MLOAD RETURNDATASIZE PUSH1 0x1F NOT PUSH1 0x1F DUP3 ADD AND DUP3 ADD DUP1 PUSH1 0x40 MSTORE POP DUP2 ADD SWAP1 PUSH2 0xD72 SWAP2 SWAP1 PUSH2 0x1CEC JUMP JUMPDEST GT PUSH2 0xDB2 JUMPI PUSH1 0x40 MLOAD PUSH32 0x8C379A000000000000000000000000000000000000000000000000000000000 DUP2 MSTORE PUSH1 0x4 ADD PUSH2 0xDA9 SWAP1 PUSH2 0x1D65 JUMP JUMPDEST PUSH1 0x40 MLOAD DUP1 SWAP2 SUB SWAP1 REVERT JUMPDEST PUSH1 0x1 PUSH1 0x4 PUSH1 0x0 CALLER PUSH20 0xFFFFFFFFFFFFFFFFFFFFFFFFFFFFFFFFFFFFFFFF AND PUSH20 0xFFFFFFFFFFFFFFFFFFFFFFFFFFFFFFFFFFFFFFFF AND DUP2 MSTORE PUSH1 0x20 ADD SWAP1 DUP2 MSTORE PUSH1 0x20 ADD PUSH1 0x0 KECCAK256 PUSH1 0x0 DUP5 DUP2 MSTORE PUSH1 0x20 ADD SWAP1 DUP2 MSTORE PUSH1 0x20 ADD PUSH1 0x0 KECCAK256 PUSH1 0x0 PUSH2 0x100 EXP DUP2 SLOAD DUP2 PUSH1 0xFF MUL NOT AND SWAP1 DUP4 ISZERO ISZERO MUL OR SWAP1 SSTORE POP DUP1 PUSH1 0x4 ADD PUSH1 0x9 DUP2 DUP2 SWAP1 SLOAD SWAP1 PUSH2 0x100 EXP SWAP1 DIV PUSH4 0xFFFFFFFF AND DUP1 SWAP3 SWAP2 SWAP1 PUSH2 0xE3F SWAP1 PUSH2 0x16F3 JUMP JUMPDEST SWAP2 SWAP1 PUSH2 0x100 EXP DUP2 SLOAD DUP2 PUSH4 0xFFFFFFFF MUL NOT AND SWAP1 DUP4 PUSH4 0xFFFFFFFF AND MUL OR SWAP1 SSTORE POP POP DUP2 CALLER PUSH20 0xFFFFFFFFFFFFFFFFFFFFFFFFFFFFFFFFFFFFFFFF AND PUSH32 0x5B25FC1EBD3020E3FD298DB72822AB1682ED5CDE8201B8081F970B67E9A71413 PUSH1 0x40 MLOAD PUSH1 0x40 MLOAD DUP1 SWAP2 SUB SWAP1 LOG3 POP POP JUMP JUMPDEST PUSH1 0x0 PUSH20 0xFFFFFFFFFFFFFFFFFFFFFFFFFFFFFFFFFFFFFFFF DUP3 AND SWAP1 POP SWAP2 SWAP1 POP JUMP JUMPDEST PUSH1 0x0 DUP2 SWAP1 POP SWAP2 SWAP1 POP JUMP JUMPDEST PUSH1 0x0 PUSH2 0xEEB PUSH2 0xEE6 PUSH2 0xEE1 DUP5 PUSH2 0xEA6 JUMP JUMPDEST PUSH2 0xEC6 JUMP JUMPDEST PUSH2 0xEA6 JUMP JUMPDEST SWAP1 POP SWAP2 SWAP1 POP JUMP JUMPDEST PUSH1 0x0 PUSH2 0xEFD DUP3 PUSH2 0xED0 JUMP JUMPDEST SWAP1 POP SWAP2 SWAP1 POP JUMP JUMPDEST PUSH1 0x0 PUSH2 0xF0F DUP3 PUSH2 0xEF2 JUMP JUMPDEST SWAP1 POP SWAP2 SWAP1 POP JUMP JUMPDEST PUSH2 0xF1F DUP2 PUSH2 0xF04 JUMP JUMPDEST DUP3 MSTORE POP POP JUMP JUMPDEST PUSH1 0x0 PUSH1 0x20 DUP3 ADD SWAP1 POP PUSH2 0xF3A PUSH1 0x0 DUP4 ADD DUP5 PUSH2 0xF16 JUMP JUMPDEST SWAP3 SWAP2 POP POP JUMP JUMPDEST PUSH1 0x0 PUSH1 0x40 MLOAD SWAP1 POP SWAP1 JUMP JUMPDEST PUSH1 0x0 DUP1 REVERT JUMPDEST PUSH1 0x0 DUP1 REVERT JUMPDEST PUSH1 0x0 DUP2 SWAP1 POP SWAP2 SWAP1 POP JUMP JUMPDEST PUSH2 0xF67 DUP2 PUSH2 0xF54 JUMP JUMPDEST DUP2 EQ PUSH2 0xF72 JUMPI PUSH1 0x0 DUP1 REVERT JUMPDEST POP JUMP JUMPDEST PUSH1 0x0 DUP2 CALLDATALOAD SWAP1 POP PUSH2 0xF84 DUP2 PUSH2 0xF5E JUMP JUMPDEST SWAP3 SWAP2 POP POP JUMP JUMPDEST PUSH1 0x0 PUSH1 0x20 DUP3 DUP5 SUB SLT ISZERO PUSH2 0xFA0 JUMPI PUSH2 0xF9F PUSH2 0xF4A JUMP JUMPDEST JUMPDEST PUSH1 0x0 PUSH2 0xFAE DUP5 DUP3 DUP6 ADD PUSH2 0xF75 JUMP JUMPDEST SWAP2 POP POP SWAP3 SWAP2 POP POP JUMP JUMPDEST PUSH1 0x0 DUP2 MLOAD SWAP1 POP SWAP2 SWAP1 POP JUMP JUMPDEST PUSH1 0x0 DUP3 DUP3 MSTORE PUSH1 0x20 DUP3 ADD SWAP1 POP SWAP3 SWAP2 POP POP JUMP JUMPDEST PUSH1 0x0 JUMPDEST DUP4 DUP2 LT ISZERO PUSH2 0xFF1 JUMPI DUP1 DUP3 ADD MLOAD DUP2 DUP5 ADD MSTORE PUSH1 0x20 DUP2 ADD SWAP1 POP PUSH2 0xFD6 JUMP JUMPDEST PUSH1 0x0 DUP5 DUP5 ADD MSTORE POP POP POP POP JUMP JUMPDEST PUSH1 0x0 PUSH1 0x1F NOT PUSH1 0x1F DUP4 ADD AND SWAP1 POP SWAP2 SWAP1 POP JUMP JUMPDEST PUSH1 0x0 PUSH2 0x1019 DUP3 PUSH2 0xFB7 JUMP JUMPDEST PUSH2 0x1023 DUP2 DUP6 PUSH2 0xFC2 JUMP JUMPDEST SWAP4 POP PUSH2 0x1033 DUP2 DUP6 PUSH1 0x20 DUP7 ADD PUSH2 0xFD3 JUMP JUMPDEST PUSH2 0x103C DUP2 PUSH2 0xFFD JUMP JUMPDEST DUP5 ADD SWAP2 POP POP SWAP3 SWAP2 POP POP JUMP JUMPDEST PUSH2 0x1050 DUP2 PUSH2 0xF54 JUMP JUMPDEST DUP3 MSTORE POP POP JUMP JUMPDEST PUSH32 0x4E487B7100000000000000000000000000000000000000000000000000000000 PUSH1 0x0 MSTORE PUSH1 0x21 PUSH1 0x4 MSTORE PUSH1 0x24 PUSH1 0x0 REVERT JUMPDEST PUSH1 0x2 DUP2 LT PUSH2 0x1096 JUMPI PUSH2 0x1095 PUSH2 0x1056 JUMP JUMPDEST JUMPDEST POP JUMP JUMPDEST PUSH1 0x0 DUP2 SWAP1 POP PUSH2 0x10A7 DUP3 PUSH2 0x1085 JUMP JUMPDEST SWAP2 SWAP1 POP JUMP JUMPDEST PUSH1 0x0 PUSH2 0x10B7 DUP3 PUSH2 0x1099 JUMP JUMPDEST SWAP1 POP SWAP2 SWAP1 POP JUMP JUMPDEST PUSH2 0x10C7 DUP2 PUSH2 0x10AC JUMP JUMPDEST DUP3 MSTORE POP POP JUMP JUMPDEST PUSH1 0x0 PUSH4 0xFFFFFFFF DUP3 AND SWAP1 POP SWAP2 SWAP1 POP JUMP JUMPDEST PUSH2 0x10E6 DUP2 PUSH2 0x10CD JUMP JUMPDEST DUP3 MSTORE POP POP JUMP JUMPDEST PUSH1 0x0 PUSH2 0x10F7 DUP3 PUSH2 0xEA6 JUMP JUMPDEST SWAP1 POP SWAP2 SWAP1 POP JUMP JUMPDEST PUSH2 0x1107 DUP2 PUSH2 0x10EC JUMP JUMPDEST DUP3 MSTORE POP POP JUMP JUMPDEST PUSH1 0x0 PUSH2 0x140 DUP3 ADD SWAP1 POP DUP2 DUP2 SUB PUSH1 0x0 DUP4 ADD MSTORE PUSH2 0x1128 DUP2 DUP14 PUSH2 0x100E JUMP JUMPDEST SWAP1 POP DUP2 DUP2 SUB PUSH1 0x20 DUP4 ADD MSTORE PUSH2 0x113C DUP2 DUP13 PUSH2 0x100E JUMP JUMPDEST SWAP1 POP PUSH2 0x114B PUSH1 0x40 DUP4 ADD DUP12 PUSH2 0x1047 JUMP JUMPDEST PUSH2 0x1158 PUSH1 0x60 DUP4 ADD DUP11 PUSH2 0x1047 JUMP JUMPDEST PUSH2 0x1165 PUSH1 0x80 DUP4 ADD DUP10 PUSH2 0x10BE JUMP JUMPDEST PUSH2 0x1172 PUSH1 0xA0 DUP4 ADD DUP9 PUSH2 0x10DD JUMP JUMPDEST PUSH2 0x117F PUSH1 0xC0 DUP4 ADD DUP8 PUSH2 0x10DD JUMP JUMPDEST PUSH2 0x118C PUSH1 0xE0 DUP4 ADD DUP7 PUSH2 0x10DD JUMP JUMPDEST PUSH2 0x119A PUSH2 0x100 DUP4 ADD DUP6 PUSH2 0x10FE JUMP JUMPDEST PUSH2 0x11A8 PUSH2 0x120 DUP4 ADD DUP5 PUSH2 0x10FE JUMP JUMPDEST SWAP12 SWAP11 POP POP POP POP POP POP POP POP POP POP POP JUMP JUMPDEST PUSH1 0x0 DUP1 REVERT JUMPDEST PUSH1 0x0 DUP1 REVERT JUMPDEST PUSH32 0x4E487B7100000000000000000000000000000000000000000000000000000000 PUSH1 0x0 MSTORE PUSH1 0x41 PUSH1 0x4 MSTORE PUSH1 0x24 PUSH1 0x0 REVERT JUMPDEST PUSH2 0x11F9 DUP3 PUSH2 0xFFD JUMP JUMPDEST DUP2 ADD DUP2 DUP2 LT PUSH8 0xFFFFFFFFFFFFFFFF DUP3 GT OR ISZERO PUSH2 0x1218 JUMPI PUSH2 0x1217 PUSH2 0x11C1 JUMP JUMPDEST JUMPDEST DUP1 PUSH1 0x40 MSTORE POP POP POP JUMP JUMPDEST PUSH1 0x0 PUSH2 0x122B PUSH2 0xF40 JUMP JUMPDEST SWAP1 POP PUSH2 0x1237 DUP3 DUP3 PUSH2 0x11F0 JUMP JUMPDEST SWAP2 SWAP1 POP JUMP JUMPDEST PUSH1 0x0 PUSH8 0xFFFFFFFFFFFFFFFF DUP3 GT ISZERO PUSH2 0x1257 JUMPI PUSH2 0x1256 PUSH2 0x11C1 JUMP JUMPDEST JUMPDEST PUSH2 0x1260 DUP3 PUSH2 0xFFD JUMP JUMPDEST SWAP1 POP PUSH1 0x20 DUP2 ADD SWAP1 POP SWAP2 SWAP1 POP JUMP JUMPDEST DUP3 DUP2 DUP4 CALLDATACOPY PUSH1 0x0 DUP4 DUP4 ADD MSTORE POP POP POP JUMP JUMPDEST PUSH1 0x0 PUSH2 0x128F PUSH2 0x128A DUP5 PUSH2 0x123C JUMP JUMPDEST PUSH2 0x1221 JUMP JUMPDEST SWAP1 POP DUP3 DUP2 MSTORE PUSH1 0x20 DUP2 ADD DUP5 DUP5 DUP5 ADD GT ISZERO PUSH2 0x12AB JUMPI PUSH2 0x12AA PUSH2 0x11BC JUMP JUMPDEST JUMPDEST PUSH2 0x12B6 DUP5 DUP3 DUP6 PUSH2 0x126D JUMP JUMPDEST POP SWAP4 SWAP3 POP POP POP JUMP JUMPDEST PUSH1 0x0 DUP3 PUSH1 0x1F DUP4 ADD SLT PUSH2 0x12D3 JUMPI PUSH2 0x12D2 PUSH2 0x11B7 JUMP JUMPDEST JUMPDEST DUP2 CALLDATALOAD PUSH2 0x12E3 DUP5 DUP3 PUSH1 0x20 DUP7 ADD PUSH2 0x127C JUMP JUMPDEST SWAP2 POP POP SWAP3 SWAP2 POP POP JUMP JUMPDEST PUSH1 0x2 DUP2 LT PUSH2 0x12F9 JUMPI PUSH1 0x0 DUP1 REVERT JUMPDEST POP JUMP JUMPDEST PUSH1 0x0 DUP2 CALLDATALOAD SWAP1 POP PUSH2 0x130B DUP2 PUSH2 0x12EC JUMP JUMPDEST SWAP3 SWAP2 POP POP JUMP JUMPDEST PUSH2 0x131A DUP2 PUSH2 0x10CD JUMP JUMPDEST DUP2 EQ PUSH2 0x1325 JUMPI PUSH1 0x0 DUP1 REVERT JUMPDEST POP JUMP JUMPDEST PUSH1 0x0 DUP2 CALLDATALOAD SWAP1 POP PUSH2 0x1337 DUP2 PUSH2 0x1311 JUMP JUMPDEST SWAP3 SWAP2 POP POP JUMP JUMPDEST PUSH1 0x0 DUP1 PUSH1 0x0 DUP1 PUSH1 0x0 DUP1 PUSH1 0x0 DUP1 PUSH2 0x100 DUP10 DUP12 SUB SLT ISZERO PUSH2 0x135E JUMPI PUSH2 0x135D PUSH2 0xF4A JUMP JUMPDEST JUMPDEST PUSH1 0x0 DUP10 ADD CALLDATALOAD PUSH8 0xFFFFFFFFFFFFFFFF DUP2 GT ISZERO PUSH2 0x137C JUMPI PUSH2 0x137B PUSH2 0xF4F JUMP JUMPDEST JUMPDEST PUSH2 0x1388 DUP12 DUP3 DUP13 ADD PUSH2 0x12BE JUMP JUMPDEST SWAP9 POP POP PUSH1 0x20 DUP10 ADD CALLDATALOAD PUSH8 0xFFFFFFFFFFFFFFFF DUP2 GT ISZERO PUSH2 0x13A9 JUMPI PUSH2 0x13A8 PUSH2 0xF4F JUMP JUMPDEST JUMPDEST PUSH2 0x13B5 DUP12 DUP3 DUP13 ADD PUSH2 0x12BE JUMP JUMPDEST SWAP8 POP POP PUSH1 0x40 PUSH2 0x13C6 DUP12 DUP3 DUP13 ADD PUSH2 0xF75 JUMP JUMPDEST SWAP7 POP POP PUSH1 0x60 PUSH2 0x13D7 DUP12 DUP3 DUP13 ADD PUSH2 0xF75 JUMP JUMPDEST SWAP6 POP POP PUSH1 0x80 PUSH2 0x13E8 DUP12 DUP3 DUP13 ADD PUSH2 0x12FC JUMP JUMPDEST SWAP5 POP POP PUSH1 0xA0 PUSH2 0x13F9 DUP12 DUP3 DUP13 ADD PUSH2 0x1328 JUMP JUMPDEST SWAP4 POP POP PUSH1 0xC0 DUP10 ADD CALLDATALOAD PUSH8 0xFFFFFFFFFFFFFFFF DUP2 GT ISZERO PUSH2 0x141A JUMPI PUSH2 0x1419 PUSH2 0xF4F JUMP JUMPDEST JUMPDEST PUSH2 0x1426 DUP12 DUP3 DUP13 ADD PUSH2 0x12BE JUMP JUMPDEST SWAP3 POP POP PUSH1 0xE0 DUP10 ADD CALLDATALOAD PUSH8 0xFFFFFFFFFFFFFFFF DUP2 GT ISZERO PUSH2 0x1447 JUMPI PUSH2 0x1446 PUSH2 0xF4F JUMP JUMPDEST JUMPDEST PUSH2 0x1453 DUP12 DUP3 DUP13 ADD PUSH2 0x12BE JUMP JUMPDEST SWAP2 POP POP SWAP3 SWAP6 SWAP9 POP SWAP3 SWAP6 SWAP9 SWAP1 SWAP4 SWAP7 POP JUMP JUMPDEST PUSH2 0x146C DUP2 PUSH2 0x10EC JUMP JUMPDEST DUP2 EQ PUSH2 0x1477 JUMPI PUSH1 0x0 DUP1 REVERT JUMPDEST POP JUMP JUMPDEST PUSH1 0x0 DUP2 CALLDATALOAD SWAP1 POP PUSH2 0x1489 DUP2 PUSH2 0x1463 JUMP JUMPDEST SWAP3 SWAP2 POP POP JUMP JUMPDEST PUSH1 0x0 DUP1 PUSH1 0x40 DUP4 DUP6 SUB SLT ISZERO PUSH2 0x14A6 JUMPI PUSH2 0x14A5 PUSH2 0xF4A JUMP JUMPDEST JUMPDEST PUSH1 0x0 PUSH2 0x14B4 DUP6 DUP3 DUP7 ADD PUSH2 0x147A JUMP JUMPDEST SWAP3 POP POP PUSH1 0x20 PUSH2 0x14C5 DUP6 DUP3 DUP7 ADD PUSH2 0xF75 JUMP JUMPDEST SWAP2 POP POP SWAP3 POP SWAP3 SWAP1 POP JUMP JUMPDEST PUSH1 0x0 DUP2 ISZERO ISZERO SWAP1 POP SWAP2 SWAP1 POP JUMP JUMPDEST PUSH2 0x14E4 DUP2 PUSH2 0x14CF JUMP JUMPDEST DUP3 MSTORE POP POP JUMP JUMPDEST PUSH1 0x0 PUSH1 0x20 DUP3 ADD SWAP1 POP PUSH2 0x14FF PUSH1 0x0 DUP4 ADD DUP5 PUSH2 0x14DB JUMP JUMPDEST SWAP3 SWAP2 POP POP JUMP JUMPDEST PUSH1 0x0 PUSH1 0x20 DUP3 ADD SWAP1 POP PUSH2 0x151A PUSH1 0x0 DUP4 ADD DUP5 PUSH2 0x1047 JUMP JUMPDEST SWAP3 SWAP2 POP POP JUMP JUMPDEST PUSH32 0x4E487B7100000000000000000000000000000000000000000000000000000000 PUSH1 0x0 MSTORE PUSH1 0x22 PUSH1 0x4 MSTORE PUSH1 0x24 PUSH1 0x0 REVERT JUMPDEST PUSH1 0x0 PUSH1 0x2 DUP3 DIV SWAP1 POP PUSH1 0x1 DUP3 AND DUP1 PUSH2 0x1567 JUMPI PUSH1 0x7F DUP3 AND SWAP2 POP JUMPDEST PUSH1 0x20 DUP3 LT DUP2 SUB PUSH2 0x157A JUMPI PUSH2 0x1579 PUSH2 0x1520 JUMP JUMPDEST JUMPDEST POP SWAP2 SWAP1 POP JUMP JUMPDEST PUSH32 0x4556454E5420444F45534E542045584953540000000000000000000000000000 PUSH1 0x0 DUP3 ADD MSTORE POP JUMP JUMPDEST PUSH1 0x0 PUSH2 0x15B6 PUSH1 0x12 DUP4 PUSH2 0xFC2 JUMP JUMPDEST SWAP2 POP PUSH2 0x15C1 DUP3 PUSH2 0x1580 JUMP JUMPDEST PUSH1 0x20 DUP3 ADD SWAP1 POP SWAP2 SWAP1 POP JUMP JUMPDEST PUSH1 0x0 PUSH1 0x20 DUP3 ADD SWAP1 POP DUP2 DUP2 SUB PUSH1 0x0 DUP4 ADD MSTORE PUSH2 0x15E5 DUP2 PUSH2 0x15A9 JUMP JUMPDEST SWAP1 POP SWAP2 SWAP1 POP JUMP JUMPDEST PUSH32 0x414C524541445920524547495354455245440000000000000000000000000000 PUSH1 0x0 DUP3 ADD MSTORE POP JUMP JUMPDEST PUSH1 0x0 PUSH2 0x1622 PUSH1 0x12 DUP4 PUSH2 0xFC2 JUMP JUMPDEST SWAP2 POP PUSH2 0x162D DUP3 PUSH2 0x15EC JUMP JUMPDEST PUSH1 0x20 DUP3 ADD SWAP1 POP SWAP2 SWAP1 POP JUMP JUMPDEST PUSH1 0x0 PUSH1 0x20 DUP3 ADD SWAP1 POP DUP2 DUP2 SUB PUSH1 0x0 DUP4 ADD MSTORE PUSH2 0x1651 DUP2 PUSH2 0x1615 JUMP JUMPDEST SWAP1 POP SWAP2 SWAP1 POP JUMP JUMPDEST PUSH32 0x524547495354524154494F4E20434C4F53454400000000000000000000000000 PUSH1 0x0 DUP3 ADD MSTORE POP JUMP JUMPDEST PUSH1 0x0 PUSH2 0x168E PUSH1 0x13 DUP4 PUSH2 0xFC2 JUMP JUMPDEST SWAP2 POP PUSH2 0x1699 DUP3 PUSH2 0x1658 JUMP JUMPDEST PUSH1 0x20 DUP3 ADD SWAP1 POP SWAP2 SWAP1 POP JUMP JUMPDEST PUSH1 0x0 PUSH1 0x20 DUP3 ADD SWAP1 POP DUP2 DUP2 SUB PUSH1 0x0 DUP4 ADD MSTORE PUSH2 0x16BD DUP2 PUSH2 0x1681 JUMP JUMPDEST SWAP1 POP SWAP2 SWAP1 POP JUMP JUMPDEST PUSH32 0x4E487B7100000000000000000000000000000000000000000000000000000000 PUSH1 0x0 MSTORE PUSH1 0x11 PUSH1 0x4 MSTORE PUSH1 0x24 PUSH1 0x0 REVERT JUMPDEST PUSH1 0x0 PUSH2 0x16FE DUP3 PUSH2 0x10CD JUMP JUMPDEST SWAP2 POP PUSH4 0xFFFFFFFF DUP3 SUB PUSH2 0x1714 JUMPI PUSH2 0x1713 PUSH2 0x16C4 JUMP JUMPDEST JUMPDEST PUSH1 0x1 DUP3 ADD SWAP1 POP SWAP2 SWAP1 POP JUMP JUMPDEST PUSH32 0x5449434B4554494E47204E4F5420454E41424C45440000000000000000000000 PUSH1 0x0 DUP3 ADD MSTORE POP JUMP JUMPDEST PUSH1 0x0 PUSH2 0x1755 PUSH1 0x15 DUP4 PUSH2 0xFC2 JUMP JUMPDEST SWAP2 POP PUSH2 0x1760 DUP3 PUSH2 0x171F JUMP JUMPDEST PUSH1 0x20 DUP3 ADD SWAP1 POP SWAP2 SWAP1 POP JUMP JUMPDEST PUSH1 0x0 PUSH1 0x20 DUP3 ADD SWAP1 POP DUP2 DUP2 SUB PUSH1 0x0 DUP4 ADD MSTORE PUSH2 0x1784 DUP2 PUSH2 0x1748 JUMP JUMPDEST SWAP1 POP SWAP2 SWAP1 POP JUMP JUMPDEST PUSH1 0x0 PUSH1 0x20 DUP3 ADD SWAP1 POP PUSH2 0x17A0 PUSH1 0x0 DUP4 ADD DUP5 PUSH2 0x10FE JUMP JUMPDEST SWAP3 SWAP2 POP POP JUMP JUMPDEST PUSH1 0x0 PUSH2 0x17C1 PUSH2 0x17BC PUSH2 0x17B7 DUP5 PUSH2 0x10CD JUMP JUMPDEST PUSH2 0xEC6 JUMP JUMPDEST PUSH2 0xF54 JUMP JUMPDEST SWAP1 POP SWAP2 SWAP1 POP JUMP JUMPDEST PUSH2 0x17D1 DUP2 PUSH2 0x17A6 JUMP JUMPDEST DUP3 MSTORE POP POP JUMP JUMPDEST PUSH1 0x0 PUSH1 0x20 DUP3 ADD SWAP1 POP PUSH2 0x17EC PUSH1 0x0 DUP4 ADD DUP5 PUSH2 0x17C8 JUMP JUMPDEST SWAP3 SWAP2 POP POP JUMP JUMPDEST PUSH32 0x53544152542044415445204D55535420424520494E2046555455524500000000 PUSH1 0x0 DUP3 ADD MSTORE POP JUMP JUMPDEST PUSH1 0x0 PUSH2 0x1828 PUSH1 0x1C DUP4 PUSH2 0xFC2 JUMP JUMPDEST SWAP2 POP PUSH2 0x1833 DUP3 PUSH2 0x17F2 JUMP JUMPDEST PUSH1 0x20 DUP3 ADD SWAP1 POP SWAP2 SWAP1 POP JUMP JUMPDEST PUSH1 0x0 PUSH1 0x20 DUP3 ADD SWAP1 POP DUP2 DUP2 SUB PUSH1 0x0 DUP4 ADD MSTORE PUSH2 0x1857 DUP2 PUSH2 0x181B JUMP JUMPDEST SWAP1 POP SWAP2 SWAP1 POP JUMP JUMPDEST PUSH32 0x454E442044415445204D55535420424520475245415445520000000000000000 PUSH1 0x0 DUP3 ADD MSTORE POP JUMP JUMPDEST PUSH1 0x0 PUSH2 0x1894 PUSH1 0x18 DUP4 PUSH2 0xFC2 JUMP JUMPDEST SWAP2 POP PUSH2 0x189F DUP3 PUSH2 0x185E JUMP JUMPDEST PUSH1 0x20 DUP3 ADD SWAP1 POP SWAP2 SWAP1 POP JUMP JUMPDEST PUSH1 0x0 PUSH1 0x20 DUP3 ADD SWAP1 POP DUP2 DUP2 SUB PUSH1 0x0 DUP4 ADD MSTORE PUSH2 0x18C3 DUP2 PUSH2 0x1887 JUMP JUMPDEST SWAP1 POP SWAP2 SWAP1 POP JUMP JUMPDEST PUSH1 0x0 PUSH2 0x18D5 DUP3 PUSH2 0xF54 JUMP JUMPDEST SWAP2 POP PUSH32 0xFFFFFFFFFFFFFFFFFFFFFFFFFFFFFFFFFFFFFFFFFFFFFFFFFFFFFFFFFFFFFFFF DUP3 SUB PUSH2 0x1907 JUMPI PUSH2 0x1906 PUSH2 0x16C4 JUMP JUMPDEST JUMPDEST PUSH1 0x1 DUP3 ADD SWAP1 POP SWAP2 SWAP1 POP JUMP JUMPDEST PUSH1 0x0 PUSH1 0x40 DUP3 ADD SWAP1 POP DUP2 DUP2 SUB PUSH1 0x0 DUP4 ADD MSTORE PUSH2 0x192C DUP2 DUP6 PUSH2 0x100E JUMP JUMPDEST SWAP1 POP DUP2 DUP2 SUB PUSH1 0x20 DUP4 ADD MSTORE PUSH2 0x1940 DUP2 DUP5 PUSH2 0x100E JUMP JUMPDEST SWAP1 POP SWAP4 SWAP3 POP POP POP JUMP JUMPDEST PUSH1 0x0 DUP2 MLOAD SWAP1 POP PUSH2 0x1958 DUP2 PUSH2 0x1463 JUMP JUMPDEST SWAP3 SWAP2 POP POP JUMP JUMPDEST PUSH1 0x0 PUSH1 0x20 DUP3 DUP5 SUB SLT ISZERO PUSH2 0x1974 JUMPI PUSH2 0x1973 PUSH2 0xF4A JUMP JUMPDEST JUMPDEST PUSH1 0x0 PUSH2 0x1982 DUP5 DUP3 DUP6 ADD PUSH2 0x1949 JUMP JUMPDEST SWAP2 POP POP SWAP3 SWAP2 POP POP JUMP JUMPDEST PUSH1 0x0 DUP2 SWAP1 POP DUP2 PUSH1 0x0 MSTORE PUSH1 0x20 PUSH1 0x0 KECCAK256 SWAP1 POP SWAP2 SWAP1 POP JUMP JUMPDEST PUSH1 0x0 PUSH1 0x20 PUSH1 0x1F DUP4 ADD DIV SWAP1 POP SWAP2 SWAP1 POP JUMP JUMPDEST PUSH1 0x0 DUP3 DUP3 SHL SWAP1 POP SWAP3 SWAP2 POP POP JUMP JUMPDEST PUSH1 0x0 PUSH1 0x8 DUP4 MUL PUSH2 0x19ED PUSH32 0xFFFFFFFFFFFFFFFFFFFFFFFFFFFFFFFFFFFFFFFFFFFFFFFFFFFFFFFFFFFFFFFF DUP3 PUSH2 0x19B0 JUMP JUMPDEST PUSH2 0x19F7 DUP7 DUP4 PUSH2 0x19B0 JUMP JUMPDEST SWAP6 POP DUP1 NOT DUP5 AND SWAP4 POP DUP1 DUP7 AND DUP5 OR SWAP3 POP POP POP SWAP4 SWAP3 POP POP POP JUMP JUMPDEST PUSH1 0x0 PUSH2 0x1A2A PUSH2 0x1A25 PUSH2 0x1A20 DUP5 PUSH2 0xF54 JUMP JUMPDEST PUSH2 0xEC6 JUMP JUMPDEST PUSH2 0xF54 JUMP JUMPDEST SWAP1 POP SWAP2 SWAP1 POP JUMP JUMPDEST PUSH1 0x0 DUP2 SWAP1 POP SWAP2 SWAP1 POP JUMP JUMPDEST PUSH2 0x1A44 DUP4 PUSH2 0x1A0F JUMP JUMPDEST PUSH2 0x1A58 PUSH2 0x1A50 DUP3 PUSH2 0x1A31 JUMP JUMPDEST DUP5 DUP5 SLOAD PUSH2 0x19BD JUMP JUMPDEST DUP3 SSTORE POP POP POP POP JUMP JUMPDEST PUSH1 0x0 SWAP1 JUMP JUMPDEST PUSH2 0x1A6D PUSH2 0x1A60 JUMP JUMPDEST PUSH2 0x1A78 DUP2 DUP5 DUP5 PUSH2 0x1A3B JUMP JUMPDEST POP POP POP JUMP JUMPDEST JUMPDEST DUP2 DUP2 LT ISZERO PUSH2 0x1A9C JUMPI PUSH2 0x1A91 PUSH1 0x0 DUP3 PUSH2 0x1A65 JUMP JUMPDEST PUSH1 0x1 DUP2 ADD SWAP1 POP PUSH2 0x1A7E JUMP JUMPDEST POP POP JUMP JUMPDEST PUSH1 0x1F DUP3 GT ISZERO PUSH2 0x1AE1 JUMPI PUSH2 0x1AB2 DUP2 PUSH2 0x198B JUMP JUMPDEST PUSH2 0x1ABB DUP5 PUSH2 0x19A0 JUMP JUMPDEST DUP2 ADD PUSH1 0x20 DUP6 LT ISZERO PUSH2 0x1ACA JUMPI DUP2 SWAP1 POP JUMPDEST PUSH2 0x1ADE PUSH2 0x1AD6 DUP6 PUSH2 0x19A0 JUMP JUMPDEST DUP4 ADD DUP3 PUSH2 0x1A7D JUMP JUMPDEST POP POP JUMPDEST POP POP POP JUMP JUMPDEST PUSH1 0x0 DUP3 DUP3 SHR SWAP1 POP SWAP3 SWAP2 POP POP JUMP JUMPDEST PUSH1 0x0 PUSH2 0x1B04 PUSH1 0x0 NOT DUP5 PUSH1 0x8 MUL PUSH2 0x1AE6 JUMP JUMPDEST NOT DUP1 DUP4 AND SWAP2 POP POP SWAP3 SWAP2 POP POP JUMP JUMPDEST PUSH1 0x0 PUSH2 0x1B1D DUP4 DUP4 PUSH2 0x1AF3 JUMP JUMPDEST SWAP2 POP DUP3 PUSH1 0x2 MUL DUP3 OR SWAP1 POP SWAP3 SWAP2 POP POP JUMP JUMPDEST PUSH2 0x1B36 DUP3 PUSH2 0xFB7 JUMP JUMPDEST PUSH8 0xFFFFFFFFFFFFFFFF DUP2 GT ISZERO PUSH2 0x1B4F JUMPI PUSH2 0x1B4E PUSH2 0x11C1 JUMP JUMPDEST JUMPDEST PUSH2 0x1B59 DUP3 SLOAD PUSH2 0x154F JUMP JUMPDEST PUSH2 0x1B64 DUP3 DUP3 DUP6 PUSH2 0x1AA0 JUMP JUMPDEST PUSH1 0x0 PUSH1 0x20 SWAP1 POP PUSH1 0x1F DUP4 GT PUSH1 0x1 DUP2 EQ PUSH2 0x1B97 JUMPI PUSH1 0x0 DUP5 ISZERO PUSH2 0x1B85 JUMPI DUP3 DUP8 ADD MLOAD SWAP1 POP JUMPDEST PUSH2 0x1B8F DUP6 DUP3 PUSH2 0x1B11 JUMP JUMPDEST DUP7 SSTORE POP PUSH2 0x1BF7 JUMP JUMPDEST PUSH1 0x1F NOT DUP5 AND PUSH2 0x1BA5 DUP7 PUSH2 0x198B JUMP JUMPDEST PUSH1 0x0 JUMPDEST DUP3 DUP2 LT ISZERO PUSH2 0x1BCD JUMPI DUP5 DUP10 ADD MLOAD DUP3 SSTORE PUSH1 0x1 DUP3 ADD SWAP2 POP PUSH1 0x20 DUP6 ADD SWAP5 POP PUSH1 0x20 DUP2 ADD SWAP1 POP PUSH2 0x1BA8 JUMP JUMPDEST DUP7 DUP4 LT ISZERO PUSH2 0x1BEA JUMPI DUP5 DUP10 ADD MLOAD PUSH2 0x1BE6 PUSH1 0x1F DUP10 AND DUP3 PUSH2 0x1AF3 JUMP JUMPDEST DUP4 SSTORE POP JUMPDEST PUSH1 0x1 PUSH1 0x2 DUP9 MUL ADD DUP9 SSTORE POP POP POP JUMPDEST POP POP POP POP POP POP JUMP JUMPDEST PUSH32 0x4556454E5420484153204E4F5420535441525445440000000000000000000000 PUSH1 0x0 DUP3 ADD MSTORE POP JUMP JUMPDEST PUSH1 0x0 PUSH2 0x1C35 PUSH1 0x15 DUP4 PUSH2 0xFC2 JUMP JUMPDEST SWAP2 POP PUSH2 0x1C40 DUP3 PUSH2 0x1BFF JUMP JUMPDEST PUSH1 0x20 DUP3 ADD SWAP1 POP SWAP2 SWAP1 POP JUMP JUMPDEST PUSH1 0x0 PUSH1 0x20 DUP3 ADD SWAP1 POP DUP2 DUP2 SUB PUSH1 0x0 DUP4 ADD MSTORE PUSH2 0x1C64 DUP2 PUSH2 0x1C28 JUMP JUMPDEST SWAP1 POP SWAP2 SWAP1 POP JUMP JUMPDEST PUSH32 0x414C524541445920434845434B454420494E0000000000000000000000000000 PUSH1 0x0 DUP3 ADD MSTORE POP JUMP JUMPDEST PUSH1 0x0 PUSH2 0x1CA1 PUSH1 0x12 DUP4 PUSH2 0xFC2 JUMP JUMPDEST SWAP2 POP PUSH2 0x1CAC DUP3 PUSH2 0x1C6B JUMP JUMPDEST PUSH1 0x20 DUP3 ADD SWAP1 POP SWAP2 SWAP1 POP JUMP JUMPDEST PUSH1 0x0 PUSH1 0x20 DUP3 ADD SWAP1 POP DUP2 DUP2 SUB PUSH1 0x0 DUP4 ADD MSTORE PUSH2 0x1CD0 DUP2 PUSH2 0x1C94 JUMP JUMPDEST SWAP1 POP SWAP2 SWAP1 POP JUMP JUMPDEST PUSH1 0x0 DUP2 MLOAD SWAP1 POP PUSH2 0x1CE6 DUP2 PUSH2 0xF5E JUMP JUMPDEST SWAP3 SWAP2 POP POP JUMP JUMPDEST PUSH1 0x0 PUSH1 0x20 DUP3 DUP5 SUB SLT ISZERO PUSH2 0x1D02 JUMPI PUSH2 0x1D01 PUSH2 0xF4A JUMP JUMPDEST JUMPDEST PUSH1 0x0 PUSH2 0x1D10 DUP5 DUP3 DUP6 ADD PUSH2 0x1CD7 JUMP JUMPDEST SWAP2 POP POP SWAP3 SWAP2 POP POP JUMP JUMPDEST PUSH32 0x4E4F2056414C4944205449434B45540000000000000000000000000000000000 PUSH1 0x0 DUP3 ADD MSTORE POP JUMP JUMPDEST PUSH1 0x0 PUSH2 0x1D4F PUSH1 0xF DUP4 PUSH2 0xFC2 JUMP JUMPDEST SWAP2 POP PUSH2 0x1D5A DUP3 PUSH2 0x1D19 JUMP JUMPDEST PUSH1 0x20 DUP3 ADD SWAP1 POP SWAP2 SWAP1 POP JUMP JUMPDEST PUSH1 0x0 PUSH1 0x20 DUP3 ADD SWAP1 POP DUP2 DUP2 SUB PUSH1 0x0 DUP4 ADD MSTORE PUSH2 0x1D7E DUP2 PUSH2 0x1D42 JUMP JUMPDEST SWAP1 POP SWAP2 SWAP1 POP JUMP INVALID LOG2 PUSH5 0x6970667358 0x22 SLT KECCAK256 0xD4 0xAB TLOAD DUP14 0xBD 0xE6 0x4E 0x21 PUSH13 0x4B81AA5B0D43C17469DCB4760B 0xB8 PUSH5 0x34BA3F575B NUMBER DUP16 ISZERO PUSH5 0x736F6C6343 STOP ADDMOD SHR STOP CALLER "},"methodIdentifiers":{"checkIn(uint256)":"e95a644f","createEvent(string,string,uint256,uint256,uint8,uint32,string,string)":"4c1362f8","eventCount()":"71be2e4a","events(uint256)":"0b791430","hasCheckedIn(address,uint256)":"a6ea1051","hasRegistered(address,uint256)":"7115c244","registerForEvent(uint256)":"406db843","ticketFactory()":"068f46ce"}}}}}