{"contracts/PiggyBank.sol":{"PiggyBank":{"abi":[{"inputs":[{"internalType":"address","name":"_tokenAddress","type":"address"},{"internalType":"address","name":"_NFTAddress","type":"address"},{"internalType":"uint256","name":"_targetAmount","type":"uint256"},{"internalType":"uint256","name":"_withdrawalDate","type":"uint256"},{"internalType":"address","name":"_manager","type":"address"}],"stateMutability":"nonpayable","type":"constructor"},{"anonymous":false,"inputs":[{"indexed":true,"internalType":"address","name":"Contributor","type":"address"},{"indexed":false,"internalType":"uint256","name":"amount","type":"uint256"},{"indexed":false,"internalType":"uint256","name":"time","type":"uint256"}],"name":"Contributed","type":"event"},{"anonymous":false,"inputs":[{"indexed":false,"internalType":"uint256","name":"amount","type":"uint256"},{"indexed":false,"internalType":"uint256","name":"time","type":"uint256"}],"name":"Withdrawn","type":"event"},{"inputs":[{"internalType":"address","name":"","type":"address"}],"name":"contributions","outputs":[{"internalType":"uint256","name":"","type":"uint256"}],"stateMutability":"view","type":"function"},{"inputs":[],"name":"contributorsCount","outputs":[{"internalType":"uint8","name":"","type":"uint8"}],"stateMutability":"view","type":"function"},{"inputs":[],"name":"manager","outputs":[{"internalType":"address","name":"","type":"address"}],"stateMutability":"view","type":"function"},{"inputs":[],"name":"peteNFT","outputs":[{"internalType":"contract IERC721","name":"","type":"address"}],"stateMutability":"view","type":"function"},{"inputs":[],"name":"peteNFTAddress","outputs":[{"internalType":"address","name":"","type":"address"}],"stateMutability":"view","type":"function"},{"inputs":[],"name":"peteToken","outputs":[{"internalType":"contract IPeteToken","name":"","type":"address"}],"stateMutability":"view","type":"function"},{"inputs":[],"name":"peteTokenAddress","outputs":[{"internalType":"address","name":"","type":"address"}],"stateMutability":"view","type":"function"},{"inputs":[{"internalType":"uint256","name":"_amount","type":"uint256"}],"name":"save","outputs":[],"stateMutability":"nonpayable","type":"function"},{"inputs":[],"name":"targetAmount","outputs":[{"internalType":"uint256","name":"","type":"uint256"}],"stateMutability":"view","type":"function"},{"inputs":[],"name":"withdrawal","outputs":[],"stateMutability":"nonpayable","type":"function"},{"inputs":[],"name":"withdrawalDate","outputs":[{"internalType":"uint256","name":"","type":"uint256"}],"stateMutability":"view","type":"function"}],"evm":{"bytecode":{"linkReferences":{},"object":"60a060405234801561001057600080fd5b506040516118b53803806118b583398181016040528101906100329190610348565b428211610074576040517f08c379a000000000000000000000000000000000000000000000000000000000815260040161006b90610420565b60405180910390fd5b600073ffffffffffffffffffffffffffffffffffffffff168573ffffffffffffffffffffffffffffffffffffffff16036100e3576040517f08c379a00000000000000000000000000000000000000000000000000000000081526004016100da9061048c565b60405180910390fd5b600073ffffffffffffffffffffffffffffffffffffffff168473ffffffffffffffffffffffffffffffffffffffff1603610152576040517f08c379a0000000000000000000000000000000000000000000000000000000008152600401610149906104f8565b60405180910390fd5b82600481905550816080818152505080600660016101000a81548173ffffffffffffffffffffffffffffffffffffffff021916908373ffffffffffffffffffffffffffffffffffffffff160217905550846000806101000a81548173ffffffffffffffffffffffffffffffffffffffff021916908373ffffffffffffffffffffffffffffffffffffffff16021790555084600160006101000a81548173ffffffffffffffffffffffffffffffffffffffff021916908373ffffffffffffffffffffffffffffffffffffffff16021790555083600260006101000a81548173ffffffffffffffffffffffffffffffffffffffff021916908373ffffffffffffffffffffffffffffffffffffffff16021790555083600360006101000a81548173ffffffffffffffffffffffffffffffffffffffff021916908373ffffffffffffffffffffffffffffffffffffffff1602179055505050505050610518565b600080fd5b600073ffffffffffffffffffffffffffffffffffffffff82169050919050565b60006102df826102b4565b9050919050565b6102ef816102d4565b81146102fa57600080fd5b50565b60008151905061030c816102e6565b92915050565b6000819050919050565b61032581610312565b811461033057600080fd5b50565b6000815190506103428161031c565b92915050565b600080600080600060a08688031215610364576103636102af565b5b6000610372888289016102fd565b9550506020610383888289016102fd565b945050604061039488828901610333565b93505060606103a588828901610333565b92505060806103b6888289016102fd565b9150509295509295909350565b600082825260208201905092915050565b7f5749544844524157414c204d55535420424520494e2046555455524500000000600082015250565b600061040a601c836103c3565b9150610415826103d4565b602082019050919050565b60006020820190508181036000830152610439816103fd565b9050919050565b7f504c454153452050524f56494445204120544f4b454e20414444524553530000600082015250565b6000610476601e836103c3565b915061048182610440565b602082019050919050565b600060208201905081810360008301526104a581610469565b9050919050565b7f504c454153452050524f564944452041204e4654204144445245535300000000600082015250565b60006104e2601c836103c3565b91506104ed826104ac565b602082019050919050565b60006020820190508181036000830152610511816104d5565b9050919050565b6080516113746105416000396000818161028b01528181610726015261080401526113746000f3fe608060405234801561001057600080fd5b50600436106100a95760003560e01c80635d9c13e4116100715780635d9c13e4146101545780637569b3d7146101725780638261051f14610190578063953b8fb8146101ae578063b23cd150146101cc578063d4e93292146101ea576100a9565b8063066a5734146100ae5780631b862027146100cc578063401aec6d146100e857806342e94c9014610106578063481c6a7514610136575b600080fd5b6100b66101f4565b6040516100c39190610bc3565b60405180910390f35b6100e660048036038101906100e19190610c19565b61021a565b005b6100f0610687565b6040516100fd9190610c67565b60405180910390f35b610120600480360381019061011b9190610cc0565b6106ad565b60405161012d9190610cfc565b60405180910390f35b61013e6106c5565b60405161014b9190610d26565b60405180910390f35b61015c6106eb565b6040516101699190610d26565b60405180910390f35b61017a610711565b6040516101879190610d5d565b60405180910390f35b610198610724565b6040516101a59190610cfc565b60405180910390f35b6101b6610748565b6040516101c39190610cfc565b60405180910390f35b6101d461074e565b6040516101e19190610d26565b60405180910390f35b6101f2610772565b005b600360009054906101000a900473ffffffffffffffffffffffffffffffffffffffff1681565b600073ffffffffffffffffffffffffffffffffffffffff163373ffffffffffffffffffffffffffffffffffffffff1603610289576040517f08c379a000000000000000000000000000000000000000000000000000000000815260040161028090610dd5565b60405180910390fd5b7f00000000000000000000000000000000000000000000000000000000000000004211156102ec576040517f08c379a00000000000000000000000000000000000000000000000000000000081526004016102e390610e41565b60405180910390fd5b600073ffffffffffffffffffffffffffffffffffffffff1660008054906101000a900473ffffffffffffffffffffffffffffffffffffffff1673ffffffffffffffffffffffffffffffffffffffff160361034557600080fd5b6000600160009054906101000a900473ffffffffffffffffffffffffffffffffffffffff1673ffffffffffffffffffffffffffffffffffffffff1663dd62ed3e33306040518363ffffffff1660e01b81526004016103a4929190610e61565b602060405180830381865afa1580156103c1573d6000803e3d6000fd5b505050506040513d601f19601f820116820180604052508101906103e59190610e9f565b90508181101561042a576040517f08c379a000000000000000000000000000000000000000000000000000000000815260040161042190610f18565b60405180910390fd5b600160009054906101000a900473ffffffffffffffffffffffffffffffffffffffff1673ffffffffffffffffffffffffffffffffffffffff166323b872dd3330856040518463ffffffff1660e01b815260040161048993929190610f38565b6020604051808303816000875af11580156104a8573d6000803e3d6000fd5b505050506040513d601f19601f820116820180604052508101906104cc9190610fa7565b61050b576040517f08c379a000000000000000000000000000000000000000000000000000000000815260040161050290611020565b60405180910390fd5b6000600560003373ffffffffffffffffffffffffffffffffffffffff1673ffffffffffffffffffffffffffffffffffffffff168152602001908152602001600020540361058e576001600660008282829054906101000a900460ff16610571919061106f565b92506101000a81548160ff021916908360ff16021790555061061f565b600360009054906101000a900473ffffffffffffffffffffffffffffffffffffffff1673ffffffffffffffffffffffffffffffffffffffff166340c10f193360016040518363ffffffff1660e01b81526004016105ec9291906110df565b600060405180830381600087803b15801561060657600080fd5b505af115801561061a573d6000803e3d6000fd5b505050505b8160045461062d9190611108565b6004819055503373ffffffffffffffffffffffffffffffffffffffff167ffa35a310d7113dddce1c275da946348e9aaebf9050b00b372033c4d84b0bd6eb834260405161067b92919061113c565b60405180910390a25050565b600160009054906101000a900473ffffffffffffffffffffffffffffffffffffffff1681565b60056020528060005260406000206000915090505481565b600660019054906101000a900473ffffffffffffffffffffffffffffffffffffffff1681565b600260009054906101000a900473ffffffffffffffffffffffffffffffffffffffff1681565b600660009054906101000a900460ff1681565b7f000000000000000000000000000000000000000000000000000000000000000081565b60045481565b60008054906101000a900473ffffffffffffffffffffffffffffffffffffffff1681565b600660019054906101000a900473ffffffffffffffffffffffffffffffffffffffff1673ffffffffffffffffffffffffffffffffffffffff163373ffffffffffffffffffffffffffffffffffffffff1614610802576040517f08c379a00000000000000000000000000000000000000000000000000000000081526004016107f9906111b1565b60405180910390fd5b7f0000000000000000000000000000000000000000000000000000000000000000421015610865576040517f08c379a000000000000000000000000000000000000000000000000000000000815260040161085c9061121d565b60405180910390fd5b6000600160009054906101000a900473ffffffffffffffffffffffffffffffffffffffff1673ffffffffffffffffffffffffffffffffffffffff166370a08231306040518263ffffffff1660e01b81526004016108c29190610d26565b602060405180830381865afa1580156108df573d6000803e3d6000fd5b505050506040513d601f19601f820116820180604052508101906109039190610e9f565b905060045481101561094a576040517f08c379a000000000000000000000000000000000000000000000000000000000815260040161094190611289565b60405180910390fd5b600160009054906101000a900473ffffffffffffffffffffffffffffffffffffffff1673ffffffffffffffffffffffffffffffffffffffff1663095ea7b333836040518363ffffffff1660e01b81526004016109a79291906112a9565b6020604051808303816000875af11580156109c6573d6000803e3d6000fd5b505050506040513d601f19601f820116820180604052508101906109ea9190610fa7565b610a29576040517f08c379a0000000000000000000000000000000000000000000000000000000008152600401610a209061131e565b60405180910390fd5b600160009054906101000a900473ffffffffffffffffffffffffffffffffffffffff1673ffffffffffffffffffffffffffffffffffffffff1663a9059cbb33836040518363ffffffff1660e01b8152600401610a869291906112a9565b6020604051808303816000875af1158015610aa5573d6000803e3d6000fd5b505050506040513d601f19601f82011682018060405250810190610ac99190610fa7565b610b08576040517f08c379a0000000000000000000000000000000000000000000000000000000008152600401610aff90611020565b60405180910390fd5b7f0c875c8d391179c5cf7ad8303d268efd50b8beb78b671f85cd54bfb91eb8ef408142604051610b3992919061113c565b60405180910390a150565b600073ffffffffffffffffffffffffffffffffffffffff82169050919050565b6000819050919050565b6000610b89610b84610b7f84610b44565b610b64565b610b44565b9050919050565b6000610b9b82610b6e565b9050919050565b6000610bad82610b90565b9050919050565b610bbd81610ba2565b82525050565b6000602082019050610bd86000830184610bb4565b92915050565b600080fd5b6000819050919050565b610bf681610be3565b8114610c0157600080fd5b50565b600081359050610c1381610bed565b92915050565b600060208284031215610c2f57610c2e610bde565b5b6000610c3d84828501610c04565b91505092915050565b6000610c5182610b90565b9050919050565b610c6181610c46565b82525050565b6000602082019050610c7c6000830184610c58565b92915050565b6000610c8d82610b44565b9050919050565b610c9d81610c82565b8114610ca857600080fd5b50565b600081359050610cba81610c94565b92915050565b600060208284031215610cd657610cd5610bde565b5b6000610ce484828501610cab565b91505092915050565b610cf681610be3565b82525050565b6000602082019050610d116000830184610ced565b92915050565b610d2081610c82565b82525050565b6000602082019050610d3b6000830184610d17565b92915050565b600060ff82169050919050565b610d5781610d41565b82525050565b6000602082019050610d726000830184610d4e565b92915050565b600082825260208201905092915050565b7f554e415554484f52495a45442041444452455353000000000000000000000000600082015250565b6000610dbf601483610d78565b9150610dca82610d89565b602082019050919050565b60006020820190508181036000830152610dee81610db2565b9050919050565b7f594f552043414e204e4f204c4f4e474552205341564500000000000000000000600082015250565b6000610e2b601683610d78565b9150610e3682610df5565b602082019050919050565b60006020820190508181036000830152610e5a81610e1e565b9050919050565b6000604082019050610e766000830185610d17565b610e836020830184610d17565b9392505050565b600081519050610e9981610bed565b92915050565b600060208284031215610eb557610eb4610bde565b5b6000610ec384828501610e8a565b91505092915050565b7f496e73756666696369656e7420616c6c6f77616e636500000000000000000000600082015250565b6000610f02601683610d78565b9150610f0d82610ecc565b602082019050919050565b60006020820190508181036000830152610f3181610ef5565b9050919050565b6000606082019050610f4d6000830186610d17565b610f5a6020830185610d17565b610f676040830184610ced565b949350505050565b60008115159050919050565b610f8481610f6f565b8114610f8f57600080fd5b50565b600081519050610fa181610f7b565b92915050565b600060208284031215610fbd57610fbc610bde565b5b6000610fcb84828501610f92565b91505092915050565b7f5472616e73666572206661696c65640000000000000000000000000000000000600082015250565b600061100a600f83610d78565b915061101582610fd4565b602082019050919050565b6000602082019050818103600083015261103981610ffd565b9050919050565b7f4e487b7100000000000000000000000000000000000000000000000000000000600052601160045260246000fd5b600061107a82610d41565b915061108583610d41565b9250828201905060ff81111561109e5761109d611040565b5b92915050565b6000819050919050565b60006110c96110c46110bf846110a4565b610b64565b610be3565b9050919050565b6110d9816110ae565b82525050565b60006040820190506110f46000830185610d17565b61110160208301846110d0565b9392505050565b600061111382610be3565b915061111e83610be3565b925082820190508082111561113657611135611040565b5b92915050565b60006040820190506111516000830185610ced565b61115e6020830184610ced565b9392505050565b7f594f552057414e20544849454620414249203f00000000000000000000000000600082015250565b600061119b601383610d78565b91506111a682611165565b602082019050919050565b600060208201905081810360008301526111ca8161118e565b9050919050565b7f4e4f54205945542054494d450000000000000000000000000000000000000000600082015250565b6000611207600c83610d78565b9150611212826111d1565b602082019050919050565b60006020820190508181036000830152611236816111fa565b9050919050565b7f54415247455420414d4f554e54204e4f54205245414348454400000000000000600082015250565b6000611273601983610d78565b915061127e8261123d565b602082019050919050565b600060208201905081810360008301526112a281611266565b9050919050565b60006040820190506112be6000830185610d17565b6112cb6020830184610ced565b9392505050565b7f415050524f56414c204641494c45440000000000000000000000000000000000600082015250565b6000611308600f83610d78565b9150611313826112d2565b602082019050919050565b60006020820190508181036000830152611337816112fb565b905091905056fea264697066735822122076732aba75959183b2e7178e7bd02b93a77627ccd041be5f4a166603d87e720064736f6c634300081c0033","opcodes":"PUSH1 0xA0 PUSH1 0x40 MSTORE CALLVALUE DUP1 ISZERO PUSH2 0x10 JUMPI PUSH1 0x0 DUP1 REVERT JUMPDEST POP PUSH1 0x40 MLOAD PUSH2 0x18B5 CODESIZE SUB DUP1 PUSH2 0x18B5 DUP4 CODECOPY DUP2 DUP2 ADD PUSH1 0x40 MSTORE DUP2 ADD SWAP1 PUSH2 0x32 SWAP2 SWAP1 PUSH2 0x348 JUMP JUMPDEST TIMESTAMP DUP3 GT PUSH2 0x74 JUMPI PUSH1 0x40 MLOAD PUSH32 0x8C379A000000000000000000000000000000000000000000000000000000000 DUP2 MSTORE PUSH1 0x4 ADD PUSH2 0x6B SWAP1 PUSH2 0x420 JUMP JUMPDEST PUSH1 0x40 MLOAD DUP1 SWAP2 SUB SWAP1 REVERT JUMPDEST PUSH1 0x0 PUSH20 0xFFFFFFFFFFFFFFFFFFFFFFFFFFFFFFFFFFFFFFFF AND DUP6 PUSH20 0xFFFFFFFFFFFFFFFFFFFFFFFFFFFFFFFFFFFFFFFF AND SUB PUSH2 0xE3 JUMPI PUSH1 0x40 MLOAD PUSH32 0x8C379A000000000000000000000000000000000000000000000000000000000 DUP2 MSTORE PUSH1 0x4 ADD PUSH2 0xDA SWAP1 PUSH2 0x48C JUMP JUMPDEST PUSH1 0x40 MLOAD DUP1 SWAP2 SUB SWAP1 REVERT JUMPDEST PUSH1 0x0 PUSH20 0xFFFFFFFFFFFFFFFFFFFFFFFFFFFFFFFFFFFFFFFF AND DUP5 PUSH20 0xFFFFFFFFFFFFFFFFFFFFFFFFFFFFFFFFFFFFFFFF AND SUB PUSH2 0x152 JUMPI PUSH1 0x40 MLOAD PUSH32 0x8C379A000000000000000000000000000000000000000000000000000000000 DUP2 MSTORE PUSH1 0x4 ADD PUSH2 0x149 SWAP1 PUSH2 0x4F8 JUMP JUMPDEST PUSH1 0x40 MLOAD DUP1 SWAP2 SUB SWAP1 REVERT JUMPDEST DUP3 PUSH1 0x4 DUP2 SWAP1 SSTORE POP DUP2 PUSH1 0x80 DUP2 DUP2 MSTORE POP POP DUP1 PUSH1 0x6 PUSH1 0x1 PUSH2 0x100 EXP DUP2 SLOAD DUP2 PUSH20 0xFFFFFFFFFFFFFFFFFFFFFFFFFFFFFFFFFFFFFFFF MUL NOT AND SWAP1 DUP4 PUSH20 0xFFFFFFFFFFFFFFFFFFFFFFFFFFFFFFFFFFFFFFFF AND MUL OR SWAP1 SSTORE POP DUP5 PUSH1 0x0 DUP1 PUSH2 0x100 EXP DUP2 SLOAD DUP2 PUSH20 0xFFFFFFFFFFFFFFFFFFFFFFFFFFFFFFFFFFFFFFFF MUL NOT AND SWAP1 DUP4 PUSH20 0xFFFFFFFFFFFFFFFFFFFFFFFFFFFFFFFFFFFFFFFF AND MUL OR SWAP1 SSTORE POP DUP5 PUSH1 0x1 PUSH1 0x0 PUSH2 0x100 EXP DUP2 SLOAD DUP2 PUSH20 0xFFFFFFFFFFFFFFFFFFFFFFFFFFFFFFFFFFFFFFFF MUL NOT AND SWAP1 DUP4 PUSH20 0xFFFFFFFFFFFFFFFFFFFFFFFFFFFFFFFFFFFFFFFF AND MUL OR SWAP1 SSTORE POP DUP4 PUSH1 0x2 PUSH1 0x0 PUSH2 0x100 EXP DUP2 SLOAD DUP2 PUSH20 0xFFFFFFFFFFFFFFFFFFFFFFFFFFFFFFFFFFFFFFFF MUL NOT AND SWAP1 DUP4 PUSH20 0xFFFFFFFFFFFFFFFFFFFFFFFFFFFFFFFFFFFFFFFF AND MUL OR SWAP1 SSTORE POP DUP4 PUSH1 0x3 PUSH1 0x0 PUSH2 0x100 EXP DUP2 SLOAD DUP2 PUSH20 0xFFFFFFFFFFFFFFFFFFFFFFFFFFFFFFFFFFFFFFFF MUL NOT AND SWAP1 DUP4 PUSH20 0xFFFFFFFFFFFFFFFFFFFFFFFFFFFFFFFFFFFFFFFF AND MUL OR SWAP1 SSTORE POP POP POP POP POP POP PUSH2 0x518 JUMP JUMPDEST PUSH1 0x0 DUP1 REVERT JUMPDEST PUSH1 0x0 PUSH20 0xFFFFFFFFFFFFFFFFFFFFFFFFFFFFFFFFFFFFFFFF DUP3 AND SWAP1 POP SWAP2 SWAP1 POP JUMP JUMPDEST PUSH1 0x0 PUSH2 0x2DF DUP3 PUSH2 0x2B4 JUMP JUMPDEST SWAP1 POP SWAP2 SWAP1 POP JUMP JUMPDEST PUSH2 0x2EF DUP2 PUSH2 0x2D4 JUMP JUMPDEST DUP2 EQ PUSH2 0x2FA JUMPI PUSH1 0x0 DUP1 REVERT JUMPDEST POP JUMP JUMPDEST PUSH1 0x0 DUP2 MLOAD SWAP1 POP PUSH2 0x30C DUP2 PUSH2 0x2E6 JUMP JUMPDEST SWAP3 SWAP2 POP POP JUMP JUMPDEST PUSH1 0x0 DUP2 SWAP1 POP SWAP2 SWAP1 POP JUMP JUMPDEST PUSH2 0x325 DUP2 PUSH2 0x312 JUMP JUMPDEST DUP2 EQ PUSH2 0x330 JUMPI PUSH1 0x0 DUP1 REVERT JUMPDEST POP JUMP JUMPDEST PUSH1 0x0 DUP2 MLOAD SWAP1 POP PUSH2 0x342 DUP2 PUSH2 0x31C JUMP JUMPDEST SWAP3 SWAP2 POP POP JUMP JUMPDEST PUSH1 0x0 DUP1 PUSH1 0x0 DUP1 PUSH1 0x0 PUSH1 0xA0 DUP7 DUP9 SUB SLT ISZERO PUSH2 0x364 JUMPI PUSH2 0x363 PUSH2 0x2AF JUMP JUMPDEST JUMPDEST PUSH1 0x0 PUSH2 0x372 DUP9 DUP3 DUP10 ADD PUSH2 0x2FD JUMP JUMPDEST SWAP6 POP POP PUSH1 0x20 PUSH2 0x383 DUP9 DUP3 DUP10 ADD PUSH2 0x2FD JUMP JUMPDEST SWAP5 POP POP PUSH1 0x40 PUSH2 0x394 DUP9 DUP3 DUP10 ADD PUSH2 0x333 JUMP JUMPDEST SWAP4 POP POP PUSH1 0x60 PUSH2 0x3A5 DUP9 DUP3 DUP10 ADD PUSH2 0x333 JUMP JUMPDEST SWAP3 POP POP PUSH1 0x80 PUSH2 0x3B6 DUP9 DUP3 DUP10 ADD PUSH2 0x2FD JUMP JUMPDEST SWAP2 POP POP SWAP3 SWAP6 POP SWAP3 SWAP6 SWAP1 SWAP4 POP JUMP JUMPDEST PUSH1 0x0 DUP3 DUP3 MSTORE PUSH1 0x20 DUP3 ADD SWAP1 POP SWAP3 SWAP2 POP POP JUMP JUMPDEST PUSH32 0x5749544844524157414C204D55535420424520494E2046555455524500000000 PUSH1 0x0 DUP3 ADD MSTORE POP JUMP JUMPDEST PUSH1 0x0 PUSH2 0x40A PUSH1 0x1C DUP4 PUSH2 0x3C3 JUMP JUMPDEST SWAP2 POP PUSH2 0x415 DUP3 PUSH2 0x3D4 JUMP JUMPDEST PUSH1 0x20 DUP3 ADD SWAP1 POP SWAP2 SWAP1 POP JUMP JUMPDEST PUSH1 0x0 PUSH1 0x20 DUP3 ADD SWAP1 POP DUP2 DUP2 SUB PUSH1 0x0 DUP4 ADD MSTORE PUSH2 0x439 DUP2 PUSH2 0x3FD JUMP JUMPDEST SWAP1 POP SWAP2 SWAP1 POP JUMP JUMPDEST PUSH32 0x504C454153452050524F56494445204120544F4B454E20414444524553530000 PUSH1 0x0 DUP3 ADD MSTORE POP JUMP JUMPDEST PUSH1 0x0 PUSH2 0x476 PUSH1 0x1E DUP4 PUSH2 0x3C3 JUMP JUMPDEST SWAP2 POP PUSH2 0x481 DUP3 PUSH2 0x440 JUMP JUMPDEST PUSH1 0x20 DUP3 ADD SWAP1 POP SWAP2 SWAP1 POP JUMP JUMPDEST PUSH1 0x0 PUSH1 0x20 DUP3 ADD SWAP1 POP DUP2 DUP2 SUB PUSH1 0x0 DUP4 ADD MSTORE PUSH2 0x4A5 DUP2 PUSH2 0x469 JUMP JUMPDEST SWAP1 POP SWAP2 SWAP1 POP JUMP JUMPDEST PUSH32 0x504C454153452050524F564944452041204E4654204144445245535300000000 PUSH1 0x0 DUP3 ADD MSTORE POP JUMP JUMPDEST PUSH1 0x0 PUSH2 0x4E2 PUSH1 0x1C DUP4 PUSH2 0x3C3 JUMP JUMPDEST SWAP2 POP PUSH2 0x4ED DUP3 PUSH2 0x4AC JUMP JUMPDEST PUSH1 0x20 DUP3 ADD SWAP1 POP SWAP2 SWAP1 POP JUMP JUMPDEST PUSH1 0x0 PUSH1 0x20 DUP3 ADD SWAP1 POP DUP2 DUP2 SUB PUSH1 0x0 DUP4 ADD MSTORE PUSH2 0x511 DUP2 PUSH2 0x4D5 JUMP JUMPDEST SWAP1 POP SWAP2 SWAP1 POP JUMP JUMPDEST PUSH1 0x80 MLOAD PUSH2 0x1374 PUSH2 0x541 PUSH1 0x0 CODECOPY PUSH1 0x0 DUP2 DUP2 PUSH2 0x28B ADD MSTORE DUP2 DUP2 PUSH2 0x726 ADD MSTORE PUSH2 0x804 ADD MSTORE PUSH2 0x1374 PUSH1 0x0 RETURN INVALID PUSH1 0x80 PUSH1 0x40 MSTORE CALLVALUE DUP1 ISZERO PUSH2 0x10 JUMPI PUSH1 0x0 DUP1 REVERT JUMPDEST POP PUSH1 0x4 CALLDATASIZE LT PUSH2 0xA9 JUMPI PUSH1 0x0 CALLDATALOAD PUSH1 0xE0 SHR DUP1 PUSH4 0x5D9C13E4 GT PUSH2 0x71 JUMPI DUP1 PUSH4 0x5D9C13E4 EQ PUSH2 0x154 JUMPI DUP1 PUSH4 0x7569B3D7 EQ PUSH2 0x172 JUMPI DUP1 PUSH4 0x8261051F EQ PUSH2 0x190 JUMPI DUP1 PUSH4 0x953B8FB8 EQ PUSH2 0x1AE JUMPI DUP1 PUSH4 0xB23CD150 EQ PUSH2 0x1CC JUMPI DUP1 PUSH4 0xD4E93292 EQ PUSH2 0x1EA JUMPI PUSH2 0xA9 JUMP JUMPDEST DUP1 PUSH4 0x66A5734 EQ PUSH2 0xAE JUMPI DUP1 PUSH4 0x1B862027 EQ PUSH2 0xCC JUMPI DUP1 PUSH4 0x401AEC6D EQ PUSH2 0xE8 JUMPI DUP1 PUSH4 0x42E94C90 EQ PUSH2 0x106 JUMPI DUP1 PUSH4 0x481C6A75 EQ PUSH2 0x136 JUMPI JUMPDEST PUSH1 0x0 DUP1 REVERT JUMPDEST PUSH2 0xB6 PUSH2 0x1F4 JUMP JUMPDEST PUSH1 0x40 MLOAD PUSH2 0xC3 SWAP2 SWAP1 PUSH2 0xBC3 JUMP JUMPDEST PUSH1 0x40 MLOAD DUP1 SWAP2 SUB SWAP1 RETURN JUMPDEST PUSH2 0xE6 PUSH1 0x4 DUP1 CALLDATASIZE SUB DUP2 ADD SWAP1 PUSH2 0xE1 SWAP2 SWAP1 PUSH2 0xC19 JUMP JUMPDEST PUSH2 0x21A JUMP JUMPDEST STOP JUMPDEST PUSH2 0xF0 PUSH2 0x687 JUMP JUMPDEST PUSH1 0x40 MLOAD PUSH2 0xFD SWAP2 SWAP1 PUSH2 0xC67 JUMP JUMPDEST PUSH1 0x40 MLOAD DUP1 SWAP2 SUB SWAP1 RETURN JUMPDEST PUSH2 0x120 PUSH1 0x4 DUP1 CALLDATASIZE SUB DUP2 ADD SWAP1 PUSH2 0x11B SWAP2 SWAP1 PUSH2 0xCC0 JUMP JUMPDEST PUSH2 0x6AD JUMP JUMPDEST PUSH1 0x40 MLOAD PUSH2 0x12D SWAP2 SWAP1 PUSH2 0xCFC JUMP JUMPDEST PUSH1 0x40 MLOAD DUP1 SWAP2 SUB SWAP1 RETURN JUMPDEST PUSH2 0x13E PUSH2 0x6C5 JUMP JUMPDEST PUSH1 0x40 MLOAD PUSH2 0x14B SWAP2 SWAP1 PUSH2 0xD26 JUMP JUMPDEST PUSH1 0x40 MLOAD DUP1 SWAP2 SUB SWAP1 RETURN JUMPDEST PUSH2 0x15C PUSH2 0x6EB JUMP JUMPDEST PUSH1 0x40 MLOAD PUSH2 0x169 SWAP2 SWAP1 PUSH2 0xD26 JUMP JUMPDEST PUSH1 0x40 MLOAD DUP1 SWAP2 SUB SWAP1 RETURN JUMPDEST PUSH2 0x17A PUSH2 0x711 JUMP JUMPDEST PUSH1 0x40 MLOAD PUSH2 0x187 SWAP2 SWAP1 PUSH2 0xD5D JUMP JUMPDEST PUSH1 0x40 MLOAD DUP1 SWAP2 SUB SWAP1 RETURN JUMPDEST PUSH2 0x198 PUSH2 0x724 JUMP JUMPDEST PUSH1 0x40 MLOAD PUSH2 0x1A5 SWAP2 SWAP1 PUSH2 0xCFC JUMP JUMPDEST PUSH1 0x40 MLOAD DUP1 SWAP2 SUB SWAP1 RETURN JUMPDEST PUSH2 0x1B6 PUSH2 0x748 JUMP JUMPDEST PUSH1 0x40 MLOAD PUSH2 0x1C3 SWAP2 SWAP1 PUSH2 0xCFC JUMP JUMPDEST PUSH1 0x40 MLOAD DUP1 SWAP2 SUB SWAP1 RETURN JUMPDEST PUSH2 0x1D4 PUSH2 0x74E JUMP JUMPDEST PUSH1 0x40 MLOAD PUSH2 0x1E1 SWAP2 SWAP1 PUSH2 0xD26 JUMP JUMPDEST PUSH1 0x40 MLOAD DUP1 SWAP2 SUB SWAP1 RETURN JUMPDEST PUSH2 0x1F2 PUSH2 0x772 JUMP JUMPDEST STOP JUMPDEST PUSH1 0x3 PUSH1 0x0 SWAP1 SLOAD SWAP1 PUSH2 0x100 EXP SWAP1 DIV PUSH20 0xFFFFFFFFFFFFFFFFFFFFFFFFFFFFFFFFFFFFFFFF AND DUP2 JUMP JUMPDEST PUSH1 0x0 PUSH20 0xFFFFFFFFFFFFFFFFFFFFFFFFFFFFFFFFFFFFFFFF AND CALLER PUSH20 0xFFFFFFFFFFFFFFFFFFFFFFFFFFFFFFFFFFFFFFFF AND SUB PUSH2 0x289 JUMPI PUSH1 0x40 MLOAD PUSH32 0x8C379A000000000000000000000000000000000000000000000000000000000 DUP2 MSTORE PUSH1 0x4 ADD PUSH2 0x280 SWAP1 PUSH2 0xDD5 JUMP JUMPDEST PUSH1 0x40 MLOAD DUP1 SWAP2 SUB SWAP1 REVERT JUMPDEST PUSH32 0x0 TIMESTAMP GT ISZERO PUSH2 0x2EC JUMPI PUSH1 0x40 MLOAD PUSH32 0x8C379A000000000000000000000000000000000000000000000000000000000 DUP2 MSTORE PUSH1 0x4 ADD PUSH2 0x2E3 SWAP1 PUSH2 0xE41 JUMP JUMPDEST PUSH1 0x40 MLOAD DUP1 SWAP2 SUB SWAP1 REVERT JUMPDEST PUSH1 0x0 PUSH20 0xFFFFFFFFFFFFFFFFFFFFFFFFFFFFFFFFFFFFFFFF AND PUSH1 0x0 DUP1 SLOAD SWAP1 PUSH2 0x100 EXP SWAP1 DIV PUSH20 0xFFFFFFFFFFFFFFFFFFFFFFFFFFFFFFFFFFFFFFFF AND PUSH20 0xFFFFFFFFFFFFFFFFFFFFFFFFFFFFFFFFFFFFFFFF AND SUB PUSH2 0x345 JUMPI PUSH1 0x0 DUP1 REVERT JUMPDEST PUSH1 0x0 PUSH1 0x1 PUSH1 0x0 SWAP1 SLOAD SWAP1 PUSH2 0x100 EXP SWAP1 DIV PUSH20 0xFFFFFFFFFFFFFFFFFFFFFFFFFFFFFFFFFFFFFFFF AND PUSH20 0xFFFFFFFFFFFFFFFFFFFFFFFFFFFFFFFFFFFFFFFF AND PUSH4 0xDD62ED3E CALLER ADDRESS PUSH1 0x40 MLOAD DUP4 PUSH4 0xFFFFFFFF AND PUSH1 0xE0 SHL DUP2 MSTORE PUSH1 0x4 ADD PUSH2 0x3A4 SWAP3 SWAP2 SWAP1 PUSH2 0xE61 JUMP JUMPDEST PUSH1 0x20 PUSH1 0x40 MLOAD DUP1 DUP4 SUB DUP2 DUP7 GAS STATICCALL ISZERO DUP1 ISZERO PUSH2 0x3C1 JUMPI RETURNDATASIZE PUSH1 0x0 DUP1 RETURNDATACOPY RETURNDATASIZE PUSH1 0x0 REVERT JUMPDEST POP POP POP POP PUSH1 0x40 MLOAD RETURNDATASIZE PUSH1 0x1F NOT PUSH1 0x1F DUP3 ADD AND DUP3 ADD DUP1 PUSH1 0x40 MSTORE POP DUP2 ADD SWAP1 PUSH2 0x3E5 SWAP2 SWAP1 PUSH2 0xE9F JUMP JUMPDEST SWAP1 POP DUP2 DUP2 LT ISZERO PUSH2 0x42A JUMPI PUSH1 0x40 MLOAD PUSH32 0x8C379A000000000000000000000000000000000000000000000000000000000 DUP2 MSTORE PUSH1 0x4 ADD PUSH2 0x421 SWAP1 PUSH2 0xF18 JUMP JUMPDEST PUSH1 0x40 MLOAD DUP1 SWAP2 SUB SWAP1 REVERT JUMPDEST PUSH1 0x1 PUSH1 0x0 SWAP1 SLOAD SWAP1 PUSH2 0x100 EXP SWAP1 DIV PUSH20 0xFFFFFFFFFFFFFFFFFFFFFFFFFFFFFFFFFFFFFFFF AND PUSH20 0xFFFFFFFFFFFFFFFFFFFFFFFFFFFFFFFFFFFFFFFF AND PUSH4 0x23B872DD CALLER ADDRESS DUP6 PUSH1 0x40 MLOAD DUP5 PUSH4 0xFFFFFFFF AND PUSH1 0xE0 SHL DUP2 MSTORE PUSH1 0x4 ADD PUSH2 0x489 SWAP4 SWAP3 SWAP2 SWAP1 PUSH2 0xF38 JUMP JUMPDEST PUSH1 0x20 PUSH1 0x40 MLOAD DUP1 DUP4 SUB DUP2 PUSH1 0x0 DUP8 GAS CALL ISZERO DUP1 ISZERO PUSH2 0x4A8 JUMPI RETURNDATASIZE PUSH1 0x0 DUP1 RETURNDATACOPY RETURNDATASIZE PUSH1 0x0 REVERT JUMPDEST POP POP POP POP PUSH1 0x40 MLOAD RETURNDATASIZE PUSH1 0x1F NOT PUSH1 0x1F DUP3 ADD AND DUP3 ADD DUP1 PUSH1 0x40 MSTORE POP DUP2 ADD SWAP1 PUSH2 0x4CC SWAP2 SWAP1 PUSH2 0xFA7 JUMP JUMPDEST PUSH2 0x50B JUMPI PUSH1 0x40 MLOAD PUSH32 0x8C379A000000000000000000000000000000000000000000000000000000000 DUP2 MSTORE PUSH1 0x4 ADD PUSH2 0x502 SWAP1 PUSH2 0x1020 JUMP JUMPDEST PUSH1 0x40 MLOAD DUP1 SWAP2 SUB SWAP1 REVERT JUMPDEST PUSH1 0x0 PUSH1 0x5 PUSH1 0x0 CALLER PUSH20 0xFFFFFFFFFFFFFFFFFFFFFFFFFFFFFFFFFFFFFFFF AND PUSH20 0xFFFFFFFFFFFFFFFFFFFFFFFFFFFFFFFFFFFFFFFF AND DUP2 MSTORE PUSH1 0x20 ADD SWAP1 DUP2 MSTORE PUSH1 0x20 ADD PUSH1 0x0 KECCAK256 SLOAD SUB PUSH2 0x58E JUMPI PUSH1 0x1 PUSH1 0x6 PUSH1 0x0 DUP3 DUP3 DUP3 SWAP1 SLOAD SWAP1 PUSH2 0x100 EXP SWAP1 DIV PUSH1 0xFF AND PUSH2 0x571 SWAP2 SWAP1 PUSH2 0x106F JUMP JUMPDEST SWAP3 POP PUSH2 0x100 EXP DUP2 SLOAD DUP2 PUSH1 0xFF MUL NOT AND SWAP1 DUP4 PUSH1 0xFF AND MUL OR SWAP1 SSTORE POP PUSH2 0x61F JUMP JUMPDEST PUSH1 0x3 PUSH1 0x0 SWAP1 SLOAD SWAP1 PUSH2 0x100 EXP SWAP1 DIV PUSH20 0xFFFFFFFFFFFFFFFFFFFFFFFFFFFFFFFFFFFFFFFF AND PUSH20 0xFFFFFFFFFFFFFFFFFFFFFFFFFFFFFFFFFFFFFFFF AND PUSH4 0x40C10F19 CALLER PUSH1 0x1 PUSH1 0x40 MLOAD DUP4 PUSH4 0xFFFFFFFF AND PUSH1 0xE0 SHL DUP2 MSTORE PUSH1 0x4 ADD PUSH2 0x5EC SWAP3 SWAP2 SWAP1 PUSH2 0x10DF JUMP JUMPDEST PUSH1 0x0 PUSH1 0x40 MLOAD DUP1 DUP4 SUB DUP2 PUSH1 0x0 DUP8 DUP1 EXTCODESIZE ISZERO DUP1 ISZERO PUSH2 0x606 JUMPI PUSH1 0x0 DUP1 REVERT JUMPDEST POP GAS CALL ISZERO DUP1 ISZERO PUSH2 0x61A JUMPI RETURNDATASIZE PUSH1 0x0 DUP1 RETURNDATACOPY RETURNDATASIZE PUSH1 0x0 REVERT JUMPDEST POP POP POP POP JUMPDEST DUP2 PUSH1 0x4 SLOAD PUSH2 0x62D SWAP2 SWAP1 PUSH2 0x1108 JUMP JUMPDEST PUSH1 0x4 DUP2 SWAP1 SSTORE POP CALLER PUSH20 0xFFFFFFFFFFFFFFFFFFFFFFFFFFFFFFFFFFFFFFFF AND PUSH32 0xFA35A310D7113DDDCE1C275DA946348E9AAEBF9050B00B372033C4D84B0BD6EB DUP4 TIMESTAMP PUSH1 0x40 MLOAD PUSH2 0x67B SWAP3 SWAP2 SWAP1 PUSH2 0x113C JUMP JUMPDEST PUSH1 0x40 MLOAD DUP1 SWAP2 SUB SWAP1 LOG2 POP POP JUMP JUMPDEST PUSH1 0x1 PUSH1 0x0 SWAP1 SLOAD SWAP1 PUSH2 0x100 EXP SWAP1 DIV PUSH20 0xFFFFFFFFFFFFFFFFFFFFFFFFFFFFFFFFFFFFFFFF AND DUP2 JUMP JUMPDEST PUSH1 0x5 PUSH1 0x20 MSTORE DUP1 PUSH1 0x0 MSTORE PUSH1 0x40 PUSH1 0x0 KECCAK256 PUSH1 0x0 SWAP2 POP SWAP1 POP SLOAD DUP2 JUMP JUMPDEST PUSH1 0x6 PUSH1 0x1 SWAP1 SLOAD SWAP1 PUSH2 0x100 EXP SWAP1 DIV PUSH20 0xFFFFFFFFFFFFFFFFFFFFFFFFFFFFFFFFFFFFFFFF AND DUP2 JUMP JUMPDEST PUSH1 0x2 PUSH1 0x0 SWAP1 SLOAD SWAP1 PUSH2 0x100 EXP SWAP1 DIV PUSH20 0xFFFFFFFFFFFFFFFFFFFFFFFFFFFFFFFFFFFFFFFF AND DUP2 JUMP JUMPDEST PUSH1 0x6 PUSH1 0x0 SWAP1 SLOAD SWAP1 PUSH2 0x100 EXP SWAP1 DIV PUSH1 0xFF AND DUP2 JUMP JUMPDEST PUSH32 0x0 DUP2 JUMP JUMPDEST PUSH1 0x4 SLOAD DUP2 JUMP JUMPDEST PUSH1 0x0 DUP1 SLOAD SWAP1 PUSH2 0x100 EXP SWAP1 DIV PUSH20 0xFFFFFFFFFFFFFFFFFFFFFFFFFFFFFFFFFFFFFFFF AND DUP2 JUMP JUMPDEST PUSH1 0x6 PUSH1 0x1 SWAP1 SLOAD SWAP1 PUSH2 0x100 EXP SWAP1 DIV PUSH20 0xFFFFFFFFFFFFFFFFFFFFFFFFFFFFFFFFFFFFFFFF AND PUSH20 0xFFFFFFFFFFFFFFFFFFFFFFFFFFFFFFFFFFFFFFFF AND CALLER PUSH20 0xFFFFFFFFFFFFFFFFFFFFFFFFFFFFFFFFFFFFFFFF AND EQ PUSH2 0x802 JUMPI PUSH1 0x40 MLOAD PUSH32 0x8C379A000000000000000000000000000000000000000000000000000000000 DUP2 MSTORE PUSH1 0x4 ADD PUSH2 0x7F9 SWAP1 PUSH2 0x11B1 JUMP JUMPDEST PUSH1 0x40 MLOAD DUP1 SWAP2 SUB SWAP1 REVERT JUMPDEST PUSH32 0x0 TIMESTAMP LT ISZERO PUSH2 0x865 JUMPI PUSH1 0x40 MLOAD PUSH32 0x8C379A000000000000000000000000000000000000000000000000000000000 DUP2 MSTORE PUSH1 0x4 ADD PUSH2 0x85C SWAP1 PUSH2 0x121D JUMP JUMPDEST PUSH1 0x40 MLOAD DUP1 SWAP2 SUB SWAP1 REVERT JUMPDEST PUSH1 0x0 PUSH1 0x1 PUSH1 0x0 SWAP1 SLOAD SWAP1 PUSH2 0x100 EXP SWAP1 DIV PUSH20 0xFFFFFFFFFFFFFFFFFFFFFFFFFFFFFFFFFFFFFFFF AND PUSH20 0xFFFFFFFFFFFFFFFFFFFFFFFFFFFFFFFFFFFFFFFF AND PUSH4 0x70A08231 ADDRESS PUSH1 0x40 MLOAD DUP3 PUSH4 0xFFFFFFFF AND PUSH1 0xE0 SHL DUP2 MSTORE PUSH1 0x4 ADD PUSH2 0x8C2 SWAP2 SWAP1 PUSH2 0xD26 JUMP JUMPDEST PUSH1 0x20 PUSH1 0x40 MLOAD DUP1 DUP4 SUB DUP2 DUP7 GAS STATICCALL ISZERO DUP1 ISZERO PUSH2 0x8DF JUMPI RETURNDATASIZE PUSH1 0x0 DUP1 RETURNDATACOPY RETURNDATASIZE PUSH1 0x0 REVERT JUMPDEST POP POP POP POP PUSH1 0x40 MLOAD RETURNDATASIZE PUSH1 0x1F NOT PUSH1 0x1F DUP3 ADD AND DUP3 ADD DUP1 PUSH1 0x40 MSTORE POP DUP2 ADD SWAP1 PUSH2 0x903 SWAP2 SWAP1 PUSH2 0xE9F JUMP JUMPDEST SWAP1 POP PUSH1 0x4 SLOAD DUP2 LT ISZERO PUSH2 0x94A JUMPI PUSH1 0x40 MLOAD PUSH32 0x8C379A000000000000000000000000000000000000000000000000000000000 DUP2 MSTORE PUSH1 0x4 ADD PUSH2 0x941 SWAP1 PUSH2 0x1289 JUMP JUMPDEST PUSH1 0x40 MLOAD DUP1 SWAP2 SUB SWAP1 REVERT JUMPDEST PUSH1 0x1 PUSH1 0x0 SWAP1 SLOAD SWAP1 PUSH2 0x100 EXP SWAP1 DIV PUSH20 0xFFFFFFFFFFFFFFFFFFFFFFFFFFFFFFFFFFFFFFFF AND PUSH20 0xFFFFFFFFFFFFFFFFFFFFFFFFFFFFFFFFFFFFFFFF AND PUSH4 0x95EA7B3 CALLER DUP4 PUSH1 0x40 MLOAD DUP4 PUSH4 0xFFFFFFFF AND PUSH1 0xE0 SHL DUP2 MSTORE PUSH1 0x4 ADD PUSH2 0x9A7 SWAP3 SWAP2 SWAP1 PUSH2 0x12A9 JUMP JUMPDEST PUSH1 0x20 PUSH1 0x40 MLOAD DUP1 DUP4 SUB DUP2 PUSH1 0x0 DUP8 GAS CALL ISZERO DUP1 ISZERO PUSH2 0x9C6 JUMPI RETURNDATASIZE PUSH1 0x0 DUP1 RETURNDATACOPY RETURNDATASIZE PUSH1 0x0 REVERT JUMPDEST POP POP POP POP PUSH1 0x40 MLOAD RETURNDATASIZE PUSH1 0x1F NOT PUSH1 0x1F DUP3 ADD AND DUP3 ADD DUP1 PUSH1 0x40 MSTORE POP DUP2 ADD SWAP1 PUSH2 0x9EA SWAP2 SWAP1 PUSH2 0xFA7 JUMP JUMPDEST PUSH2 0xA29 JUMPI PUSH1 0x40 MLOAD PUSH32 0x8C379A000000000000000000000000000000000000000000000000000000000 DUP2 MSTORE PUSH1 0x4 ADD PUSH2 0xA20 SWAP1 PUSH2 0x131E JUMP JUMPDEST PUSH1 0x40 MLOAD DUP1 SWAP2 SUB SWAP1 REVERT JUMPDEST PUSH1 0x1 PUSH1 0x0 SWAP1 SLOAD SWAP1 PUSH2 0x100 EXP SWAP1 DIV PUSH20 0xFFFFFFFFFFFFFFFFFFFFFFFFFFFFFFFFFFFFFFFF AND PUSH20 0xFFFFFFFFFFFFFFFFFFFFFFFFFFFFFFFFFFFFFFFF AND PUSH4 0xA9059CBB CALLER DUP4 PUSH1 0x40 MLOAD DUP4 PUSH4 0xFFFFFFFF AND PUSH1 0xE0 SHL DUP2 MSTORE PUSH1 0x4 ADD PUSH2 0xA86 SWAP3 SWAP2 SWAP1 PUSH2 0x12A9 JUMP JUMPDEST PUSH1 0x20 PUSH1 0x40 MLOAD DUP1 DUP4 SUB DUP2 PUSH1 0x0 DUP8 GAS CALL ISZERO DUP1 ISZERO PUSH2 0xAA5 JUMPI RETURNDATASIZE PUSH1 0x0 DUP1 RETURNDATACOPY RETURNDATASIZE PUSH1 0x0 REVERT JUMPDEST POP POP POP POP PUSH1 0x40 MLOAD RETURNDATASIZE PUSH1 0x1F NOT PUSH1 0x1F DUP3 ADD AND DUP3 ADD DUP1 PUSH1 0x40 MSTORE POP DUP2 ADD SWAP1 PUSH2 0xAC9 SWAP2 SWAP1 PUSH2 0xFA7 JUMP JUMPDEST PUSH2 0xB08 JUMPI PUSH1 0x40 MLOAD PUSH32 0x8C379A000000000000000000000000000000000000000000000000000000000 DUP2 MSTORE PUSH1 0x4 ADD PUSH2 0xAFF SWAP1 PUSH2 0x1020 JUMP JUMPDEST PUSH1 0x40 MLOAD DUP1 SWAP2 SUB SWAP1 REVERT JUMPDEST PUSH32 0xC875C8D391179C5CF7AD8303D268EFD50B8BEB78B671F85CD54BFB91EB8EF40 DUP2 TIMESTAMP PUSH1 0x40 MLOAD PUSH2 0xB39 SWAP3 SWAP2 SWAP1 PUSH2 0x113C JUMP JUMPDEST PUSH1 0x40 MLOAD DUP1 SWAP2 SUB SWAP1 LOG1 POP JUMP JUMPDEST PUSH1 0x0 PUSH20 0xFFFFFFFFFFFFFFFFFFFFFFFFFFFFFFFFFFFFFFFF DUP3 AND SWAP1 POP SWAP2 SWAP1 POP JUMP JUMPDEST PUSH1 0x0 DUP2 SWAP1 POP SWAP2 SWAP1 POP JUMP JUMPDEST PUSH1 0x0 PUSH2 0xB89 PUSH2 0xB84 PUSH2 0xB7F DUP5 PUSH2 0xB44 JUMP JUMPDEST PUSH2 0xB64 JUMP JUMPDEST PUSH2 0xB44 JUMP JUMPDEST SWAP1 POP SWAP2 SWAP1 POP JUMP JUMPDEST PUSH1 0x0 PUSH2 0xB9B DUP3 PUSH2 0xB6E JUMP JUMPDEST SWAP1 POP SWAP2 SWAP1 POP JUMP JUMPDEST PUSH1 0x0 PUSH2 0xBAD DUP3 PUSH2 0xB90 JUMP JUMPDEST SWAP1 POP SWAP2 SWAP1 POP JUMP JUMPDEST PUSH2 0xBBD DUP2 PUSH2 0xBA2 JUMP JUMPDEST DUP3 MSTORE POP POP JUMP JUMPDEST PUSH1 0x0 PUSH1 0x20 DUP3 ADD SWAP1 POP PUSH2 0xBD8 PUSH1 0x0 DUP4 ADD DUP5 PUSH2 0xBB4 JUMP JUMPDEST SWAP3 SWAP2 POP POP JUMP JUMPDEST PUSH1 0x0 DUP1 REVERT JUMPDEST PUSH1 0x0 DUP2 SWAP1 POP SWAP2 SWAP1 POP JUMP JUMPDEST PUSH2 0xBF6 DUP2 PUSH2 0xBE3 JUMP JUMPDEST DUP2 EQ PUSH2 0xC01 JUMPI PUSH1 0x0 DUP1 REVERT JUMPDEST POP JUMP JUMPDEST PUSH1 0x0 DUP2 CALLDATALOAD SWAP1 POP PUSH2 0xC13 DUP2 PUSH2 0xBED JUMP JUMPDEST SWAP3 SWAP2 POP POP JUMP JUMPDEST PUSH1 0x0 PUSH1 0x20 DUP3 DUP5 SUB SLT ISZERO PUSH2 0xC2F JUMPI PUSH2 0xC2E PUSH2 0xBDE JUMP JUMPDEST JUMPDEST PUSH1 0x0 PUSH2 0xC3D DUP5 DUP3 DUP6 ADD PUSH2 0xC04 JUMP JUMPDEST SWAP2 POP POP SWAP3 SWAP2 POP POP JUMP JUMPDEST PUSH1 0x0 PUSH2 0xC51 DUP3 PUSH2 0xB90 JUMP JUMPDEST SWAP1 POP SWAP2 SWAP1 POP JUMP JUMPDEST PUSH2 0xC61 DUP2 PUSH2 0xC46 JUMP JUMPDEST DUP3 MSTORE POP POP JUMP JUMPDEST PUSH1 0x0 PUSH1 0x20 DUP3 ADD SWAP1 POP PUSH2 0xC7C PUSH1 0x0 DUP4 ADD DUP5 PUSH2 0xC58 JUMP JUMPDEST SWAP3 SWAP2 POP POP JUMP JUMPDEST PUSH1 0x0 PUSH2 0xC8D DUP3 PUSH2 0xB44 JUMP JUMPDEST SWAP1 POP SWAP2 SWAP1 POP JUMP JUMPDEST PUSH2 0xC9D DUP2 PUSH2 0xC82 JUMP JUMPDEST DUP2 EQ PUSH2 0xCA8 JUMPI PUSH1 0x0 DUP1 REVERT JUMPDEST POP JUMP JUMPDEST PUSH1 0x0 DUP2 CALLDATALOAD SWAP1 POP PUSH2 0xCBA DUP2 PUSH2 0xC94 JUMP JUMPDEST SWAP3 SWAP2 POP POP JUMP JUMPDEST PUSH1 0x0 PUSH1 0x20 DUP3 DUP5 SUB SLT ISZERO PUSH2 0xCD6 JUMPI PUSH2 0xCD5 PUSH2 0xBDE JUMP JUMPDEST JUMPDEST PUSH1 0x0 PUSH2 0xCE4 DUP5 DUP3 DUP6 ADD PUSH2 0xCAB JUMP JUMPDEST SWAP2 POP POP SWAP3 SWAP2 POP POP JUMP JUMPDEST PUSH2 0xCF6 DUP2 PUSH2 0xBE3 JUMP JUMPDEST DUP3 MSTORE POP POP JUMP JUMPDEST PUSH1 0x0 PUSH1 0x20 DUP3 ADD SWAP1 POP PUSH2 0xD11 PUSH1 0x0 DUP4 ADD DUP5 PUSH2 0xCED JUMP JUMPDEST SWAP3 SWAP2 POP POP JUMP JUMPDEST PUSH2 0xD20 DUP2 PUSH2 0xC82 JUMP JUMPDEST DUP3 MSTORE POP POP JUMP JUMPDEST PUSH1 0x0 PUSH1 0x20 DUP3 ADD SWAP1 POP PUSH2 0xD3B PUSH1 0x0 DUP4 ADD DUP5 PUSH2 0xD17 JUMP JUMPDEST SWAP3 SWAP2 POP POP JUMP JUMPDEST PUSH1 0x0 PUSH1 0xFF DUP3 AND SWAP1 POP SWAP2 SWAP1 POP JUMP JUMPDEST PUSH2 0xD57 DUP2 PUSH2 0xD41 JUMP JUMPDEST DUP3 MSTORE POP POP JUMP JUMPDEST PUSH1 0x0 PUSH1 0x20 DUP3 ADD SWAP1 POP PUSH2 0xD72 PUSH1 0x0 DUP4 ADD DUP5 PUSH2 0xD4E JUMP JUMPDEST SWAP3 SWAP2 POP POP JUMP JUMPDEST PUSH1 0x0 DUP3 DUP3 MSTORE PUSH1 0x20 DUP3 ADD SWAP1 POP SWAP3 SWAP2 POP POP JUMP JUMPDEST PUSH32 0x554E415554484F52495A45442041444452455353000000000000000000000000 PUSH1 0x0 DUP3 ADD MSTORE POP JUMP JUMPDEST PUSH1 0x0 PUSH2 0xDBF PUSH1 0x14 DUP4 PUSH2 0xD78 JUMP JUMPDEST SWAP2 POP PUSH2 0xDCA DUP3 PUSH2 0xD89 JUMP JUMPDEST PUSH1 0x20 DUP3 ADD SWAP1 POP SWAP2 SWAP1 POP JUMP JUMPDEST PUSH1 0x0 PUSH1 0x20 DUP3 ADD SWAP1 POP DUP2 DUP2 SUB PUSH1 0x0 DUP4 ADD MSTORE PUSH2 0xDEE DUP2 PUSH2 0xDB2 JUMP JUMPDEST SWAP1 POP SWAP2 SWAP1 POP JUMP JUMPDEST PUSH32 0x594F552043414E204E4F204C4F4E474552205341564500000000000000000000 PUSH1 0x0 DUP3 ADD MSTORE POP JUMP JUMPDEST PUSH1 0x0 PUSH2 0xE2B PUSH1 0x16 DUP4 PUSH2 0xD78 JUMP JUMPDEST SWAP2 POP PUSH2 0xE36 DUP3 PUSH2 0xDF5 JUMP JUMPDEST PUSH1 0x20 DUP3 ADD SWAP1 POP SWAP2 SWAP1 POP JUMP JUMPDEST PUSH1 0x0 PUSH1 0x20 DUP3 ADD SWAP1 POP DUP2 DUP2 SUB PUSH1 0x0 DUP4 ADD MSTORE PUSH2 0xE5A DUP2 PUSH2 0xE1E JUMP JUMPDEST SWAP1 POP SWAP2 SWAP1 POP JUMP JUMPDEST PUSH1 0x0 PUSH1 0x40 DUP3 ADD SWAP1 POP PUSH2 0xE76 PUSH1 0x0 DUP4 ADD DUP6 PUSH2 0xD17 JUMP JUMPDEST PUSH2 0xE83 PUSH1 0x20 DUP4 ADD DUP5 PUSH2 0xD17 JUMP JUMPDEST SWAP4 SWAP3 POP POP POP JUMP JUMPDEST PUSH1 0x0 DUP2 MLOAD SWAP1 POP PUSH2 0xE99 DUP2 PUSH2 0xBED JUMP JUMPDEST SWAP3 SWAP2 POP POP JUMP JUMPDEST PUSH1 0x0 PUSH1 0x20 DUP3 DUP5 SUB SLT ISZERO PUSH2 0xEB5 JUMPI PUSH2 0xEB4 PUSH2 0xBDE JUMP JUMPDEST JUMPDEST PUSH1 0x0 PUSH2 0xEC3 DUP5 DUP3 DUP6 ADD PUSH2 0xE8A JUMP JUMPDEST SWAP2 POP POP SWAP3 SWAP2 POP POP JUMP JUMPDEST PUSH32 0x496E73756666696369656E7420616C6C6F77616E636500000000000000000000 PUSH1 0x0 DUP3 ADD MSTORE POP JUMP JUMPDEST PUSH1 0x0 PUSH2 0xF02 PUSH1 0x16 DUP4 PUSH2 0xD78 JUMP JUMPDEST SWAP2 POP PUSH2 0xF0D DUP3 PUSH2 0xECC JUMP JUMPDEST PUSH1 0x20 DUP3 ADD SWAP1 POP SWAP2 SWAP1 POP JUMP JUMPDEST PUSH1 0x0 PUSH1 0x20 DUP3 ADD SWAP1 POP DUP2 DUP2 SUB PUSH1 0x0 DUP4 ADD MSTORE PUSH2 0xF31 DUP2 PUSH2 0xEF5 JUMP JUMPDEST SWAP1 POP SWAP2 SWAP1 POP JUMP JUMPDEST PUSH1 0x0 PUSH1 0x60 DUP3 ADD SWAP1 POP PUSH2 0xF4D PUSH1 0x0 DUP4 ADD DUP7 PUSH2 0xD17 JUMP JUMPDEST PUSH2 0xF5A PUSH1 0x20 DUP4 ADD DUP6 PUSH2 0xD17 JUMP JUMPDEST PUSH2 0xF67 PUSH1 0x40 DUP4 ADD DUP5 PUSH2 0xCED JUMP JUMPDEST SWAP5 SWAP4 POP POP POP POP JUMP JUMPDEST PUSH1 0x0 DUP2 ISZERO ISZERO SWAP1 POP SWAP2 SWAP1 POP JUMP JUMPDEST PUSH2 0xF84 DUP2 PUSH2 0xF6F JUMP JUMPDEST DUP2 EQ PUSH2 0xF8F JUMPI PUSH1 0x0 DUP1 REVERT JUMPDEST POP JUMP JUMPDEST PUSH1 0x0 DUP2 MLOAD SWAP1 POP PUSH2 0xFA1 DUP2 PUSH2 0xF7B JUMP JUMPDEST SWAP3 SWAP2 POP POP JUMP JUMPDEST PUSH1 0x0 PUSH1 0x20 DUP3 DUP5 SUB SLT ISZERO PUSH2 0xFBD JUMPI PUSH2 0xFBC PUSH2 0xBDE JUMP JUMPDEST JUMPDEST PUSH1 0x0 PUSH2 0xFCB DUP5 DUP3 DUP6 ADD PUSH2 0xF92 JUMP JUMPDEST SWAP2 POP POP SWAP3 SWAP2 POP POP JUMP JUMPDEST PUSH32 0x5472616E73666572206661696C65640000000000000000000000000000000000 PUSH1 0x0 DUP3 ADD MSTORE POP JUMP JUMPDEST PUSH1 0x0 PUSH2 0x100A PUSH1 0xF DUP4 PUSH2 0xD78 JUMP JUMPDEST SWAP2 POP PUSH2 0x1015 DUP3 PUSH2 0xFD4 JUMP JUMPDEST PUSH1 0x20 DUP3 ADD SWAP1 POP SWAP2 SWAP1 POP JUMP JUMPDEST PUSH1 0x0 PUSH1 0x20 DUP3 ADD SWAP1 POP DUP2 DUP2 SUB PUSH1 0x0 DUP4 ADD MSTORE PUSH2 0x1039 DUP2 PUSH2 0xFFD JUMP JUMPDEST SWAP1 POP SWAP2 SWAP1 POP JUMP JUMPDEST PUSH32 0x4E487B7100000000000000000000000000000000000000000000000000000000 PUSH1 0x0 MSTORE PUSH1 0x11 PUSH1 0x4 MSTORE PUSH1 0x24 PUSH1 0x0 REVERT JUMPDEST PUSH1 0x0 PUSH2 0x107A DUP3 PUSH2 0xD41 JUMP JUMPDEST SWAP2 POP PUSH2 0x1085 DUP4 PUSH2 0xD41 JUMP JUMPDEST SWAP3 POP DUP3 DUP3 ADD SWAP1 POP PUSH1 0xFF DUP2 GT ISZERO PUSH2 0x109E JUMPI PUSH2 0x109D PUSH2 0x1040 JUMP JUMPDEST JUMPDEST SWAP3 SWAP2 POP POP JUMP JUMPDEST PUSH1 0x0 DUP2 SWAP1 POP SWAP2 SWAP1 POP JUMP JUMPDEST PUSH1 0x0 PUSH2 0x10C9 PUSH2 0x10C4 PUSH2 0x10BF DUP5 PUSH2 0x10A4 JUMP JUMPDEST PUSH2 0xB64 JUMP JUMPDEST PUSH2 0xBE3 JUMP JUMPDEST SWAP1 POP SWAP2 SWAP1 POP JUMP JUMPDEST PUSH2 0x10D9 DUP2 PUSH2 0x10AE JUMP JUMPDEST DUP3 MSTORE POP POP JUMP JUMPDEST PUSH1 0x0 PUSH1 0x40 DUP3 ADD SWAP1 POP PUSH2 0x10F4 PUSH1 0x0 DUP4 ADD DUP6 PUSH2 0xD17 JUMP JUMPDEST PUSH2 0x1101 PUSH1 0x20 DUP4 ADD DUP5 PUSH2 0x10D0 JUMP JUMPDEST SWAP4 SWAP3 POP POP POP JUMP JUMPDEST PUSH1 0x0 PUSH2 0x1113 DUP3 PUSH2 0xBE3 JUMP JUMPDEST SWAP2 POP PUSH2 0x111E DUP4 PUSH2 0xBE3 JUMP JUMPDEST SWAP3 POP DUP3 DUP3 ADD SWAP1 POP DUP1 DUP3 GT ISZERO PUSH2 0x1136 JUMPI PUSH2 0x1135 PUSH2 0x1040 JUMP JUMPDEST JUMPDEST SWAP3 SWAP2 POP POP JUMP JUMPDEST PUSH1 0x0 PUSH1 0x40 DUP3 ADD SWAP1 POP PUSH2 0x1151 PUSH1 0x0 DUP4 ADD DUP6 PUSH2 0xCED JUMP JUMPDEST PUSH2 0x115E PUSH1 0x20 DUP4 ADD DUP5 PUSH2 0xCED JUMP JUMPDEST SWAP4 SWAP3 POP POP POP JUMP JUMPDEST PUSH32 0x594F552057414E20544849454620414249203F00000000000000000000000000 PUSH1 0x0 DUP3 ADD MSTORE POP JUMP JUMPDEST PUSH1 0x0 PUSH2 0x119B PUSH1 0x13 DUP4 PUSH2 0xD78 JUMP JUMPDEST SWAP2 POP PUSH2 0x11A6 DUP3 PUSH2 0x1165 JUMP JUMPDEST PUSH1 0x20 DUP3 ADD SWAP1 POP SWAP2 SWAP1 POP JUMP JUMPDEST PUSH1 0x0 PUSH1 0x20 DUP3 ADD SWAP1 POP DUP2 DUP2 SUB PUSH1 0x0 DUP4 ADD MSTORE PUSH2 0x11CA DUP2 PUSH2 0x118E JUMP JUMPDEST SWAP1 POP SWAP2 SWAP1 POP JUMP JUMPDEST PUSH32 0x4E4F54205945542054494D450000000000000000000000000000000000000000 PUSH1 0x0 DUP3 ADD MSTORE POP JUMP JUMPDEST PUSH1 0x0 PUSH2 0x1207 PUSH1 0xC DUP4 PUSH2 0xD78 JUMP JUMPDEST SWAP2 POP PUSH2 0x1212 DUP3 PUSH2 0x11D1 JUMP JUMPDEST PUSH1 0x20 DUP3 ADD SWAP1 POP SWAP2 SWAP1 POP JUMP JUMPDEST PUSH1 0x0 PUSH1 0x20 DUP3 ADD SWAP1 POP DUP2 DUP2 SUB PUSH1 0x0 DUP4 ADD MSTORE PUSH2 0x1236 DUP2 PUSH2 0x11FA JUMP JUMPDEST SWAP1 POP SWAP2 SWAP1 POP JUMP JUMPDEST PUSH32 0x54415247455420414D4F554E54204E4F54205245414348454400000000000000 PUSH1 0x0 DUP3 ADD MSTORE POP JUMP JUMPDEST PUSH1 0x0 PUSH2 0x1273 PUSH1 0x19 DUP4 PUSH2 0xD78 JUMP JUMPDEST SWAP2 POP PUSH2 0x127E DUP3 PUSH2 0x123D JUMP JUMPDEST PUSH1 0x20 DUP3 ADD SWAP1 POP SWAP2 SWAP1 POP JUMP JUMPDEST PUSH1 0x0 PUSH1 0x20 DUP3 ADD SWAP1 POP DUP2 DUP2 SUB PUSH1 0x0 DUP4 ADD MSTORE PUSH2 0x12A2 DUP2 PUSH2 0x1266 JUMP JUMPDEST SWAP1 POP SWAP2 SWAP1 POP JUMP JUMPDEST PUSH1 0x0 PUSH1 0x40 DUP3 ADD SWAP1 POP PUSH2 0x12BE PUSH1 0x0 DUP4 ADD DUP6 PUSH2 0xD17 JUMP JUMPDEST PUSH2 0x12CB PUSH1 0x20 DUP4 ADD DUP5 PUSH2 0xCED JUMP JUMPDEST SWAP4 SWAP3 POP POP POP JUMP JUMPDEST PUSH32 0x415050524F56414C204641494C45440000000000000000000000000000000000 PUSH1 0x0 DUP3 ADD MSTORE POP JUMP JUMPDEST PUSH1 0x0 PUSH2 0x1308 PUSH1 0xF DUP4 PUSH2 0xD78 JUMP JUMPDEST SWAP2 POP PUSH2 0x1313 DUP3 PUSH2 0x12D2 JUMP JUMPDEST PUSH1 0x20 DUP3 ADD SWAP1 POP SWAP2 SWAP1 POP JUMP JUMPDEST PUSH1 0x0 PUSH1 0x20 DUP3 ADD SWAP1 POP DUP2 DUP2 SUB PUSH1 0x0 DUP4 ADD MSTORE PUSH2 0x1337 DUP2 PUSH2 0x12FB JUMP JUMPDEST SWAP1 POP SWAP2 SWAP1 POP JUMP INVALID LOG2 PUSH5 0x6970667358 0x22 SLT KECCAK256 PUSH23 0x732ABA75959183B2E7178E7BD02B93A77627CCD041BE5F BLOBBASEFEE AND PUSH7 0x3D87E72006473 PUSH16 0x6C634300081C00330000000000000000 "},"methodIdentifiers":{"contributions(address)":"42e94c90","contributorsCount()":"7569b3d7","manager()":"481c6a75","peteNFT()":"066a5734","peteNFTAddress()":"5d9c13e4","peteToken()":"401aec6d","peteTokenAddress()":"b23cd150","save(uint256)":"1b862027","targetAmount()":"953b8fb8","withdrawal()":"d4e93292","withdrawalDate()":"8261051f"}},"storageLayout":{"storage":[{"astId":7068,"contract":"contracts/PiggyBank.sol:PiggyBank","label":"peteTokenAddress","offset":0,"slot":"0","type":"t_address"},{"astId":7071,"contract":"contracts/PiggyBank.sol:PiggyBank","label":"peteToken","offset":0,"slot":"1","type":"t_contract(IPeteToken)7003"},{"astId":7073,"contract":"contracts/PiggyBank.sol:PiggyBank","label":"peteNFTAddress","offset":0,"slot":"2","type":"t_address"},{"astId":7076,"contract":"contracts/PiggyBank.sol:PiggyBank","label":"peteNFT","offset":0,"slot":"3","type":"t_contract(IERC721)6990"},{"astId":7078,"contract":"contracts/PiggyBank.sol:PiggyBank","label":"targetAmount","offset":0,"slot":"4","type":"t_uint256"},{"astId":7082,"contract":"contracts/PiggyBank.sol:PiggyBank","label":"contributions","offset":0,"slot":"5","type":"t_mapping(t_address,t_uint256)"},{"astId":7086,"contract":"contracts/PiggyBank.sol:PiggyBank","label":"contributorsCount","offset":0,"slot":"6","type":"t_uint8"},{"astId":7088,"contract":"contracts/PiggyBank.sol:PiggyBank","label":"manager","offset":1,"slot":"6","type":"t_address"}],"types":{"t_address":{"encoding":"inplace","label":"address","numberOfBytes":"20"},"t_contract(IERC721)6990":{"encoding":"inplace","label":"contract IERC721","numberOfBytes":"20"},"t_contract(IPeteToken)7003":{"encoding":"inplace","label":"contract IPeteToken","numberOfBytes":"20"},"t_mapping(t_address,t_uint256)":{"encoding":"mapping","key":"t_address","label":"mapping(address => uint256)","numberOfBytes":"32","value":"t_uint256"},"t_uint256":{"encoding":"inplace","label":"uint256","numberOfBytes":"32"},"t_uint8":{"encoding":"inplace","label":"uint8","numberOfBytes":"1"}}}}}}